{
  "contractName": "AssetTokenizationContract",
  "abi": [
    {
      "constant": true,
      "inputs": [],
      "name": "name",
      "outputs": [
        {
          "name": "",
          "type": "string"
        }
      ],
      "payable": false,
      "stateMutability": "view",
      "type": "function"
    },
    {
      "constant": true,
      "inputs": [],
      "name": "tokenizeCore",
      "outputs": [
        {
          "name": "",
          "type": "address"
        }
      ],
      "payable": false,
      "stateMutability": "view",
      "type": "function"
    },
    {
      "constant": true,
      "inputs": [
        {
          "name": "",
          "type": "address"
        }
      ],
      "name": "balances",
      "outputs": [
        {
          "name": "",
          "type": "uint256"
        }
      ],
      "payable": false,
      "stateMutability": "view",
      "type": "function"
    },
    {
      "constant": true,
      "inputs": [],
      "name": "decimals",
      "outputs": [
        {
          "name": "",
          "type": "uint8"
        }
      ],
      "payable": false,
      "stateMutability": "view",
      "type": "function"
    },
    {
      "constant": true,
      "inputs": [
        {
          "name": "",
          "type": "address"
        }
      ],
      "name": "harbergerSetByUser",
      "outputs": [
        {
          "name": "userValue",
          "type": "uint256"
        },
        {
          "name": "userDuration",
          "type": "uint256"
        },
        {
          "name": "userStartTime",
          "type": "uint256"
        },
        {
          "name": "initialized",
          "type": "bool"
        }
      ],
      "payable": false,
      "stateMutability": "view",
      "type": "function"
    },
    {
      "constant": true,
      "inputs": [
        {
          "name": "",
          "type": "address"
        }
      ],
      "name": "escrowedByUser",
      "outputs": [
        {
          "name": "",
          "type": "uint256"
        }
      ],
      "payable": false,
      "stateMutability": "view",
      "type": "function"
    },
    {
      "constant": true,
      "inputs": [
        {
          "name": "",
          "type": "address"
        }
      ],
      "name": "accruedReimbursementByUser",
      "outputs": [
        {
          "name": "",
          "type": "uint256"
        }
      ],
      "payable": false,
      "stateMutability": "view",
      "type": "function"
    },
    {
      "constant": true,
      "inputs": [
        {
          "name": "",
          "type": "address"
        },
        {
          "name": "",
          "type": "address"
        }
      ],
      "name": "allowed",
      "outputs": [
        {
          "name": "",
          "type": "uint256"
        }
      ],
      "payable": false,
      "stateMutability": "view",
      "type": "function"
    },
    {
      "constant": true,
      "inputs": [],
      "name": "paymentAddress",
      "outputs": [
        {
          "name": "",
          "type": "address"
        }
      ],
      "payable": false,
      "stateMutability": "view",
      "type": "function"
    },
    {
      "constant": false,
      "inputs": [],
      "name": "renounceOwnership",
      "outputs": [],
      "payable": false,
      "stateMutability": "nonpayable",
      "type": "function"
    },
    {
      "constant": true,
      "inputs": [],
      "name": "taxRate",
      "outputs": [
        {
          "name": "",
          "type": "uint256"
        }
      ],
      "payable": false,
      "stateMutability": "view",
      "type": "function"
    },
    {
      "constant": true,
      "inputs": [],
      "name": "minimumShares",
      "outputs": [
        {
          "name": "",
          "type": "uint256"
        }
      ],
      "payable": false,
      "stateMutability": "view",
      "type": "function"
    },
    {
      "constant": true,
      "inputs": [],
      "name": "owner",
      "outputs": [
        {
          "name": "",
          "type": "address"
        }
      ],
      "payable": false,
      "stateMutability": "view",
      "type": "function"
    },
    {
      "constant": true,
      "inputs": [],
      "name": "isOwner",
      "outputs": [
        {
          "name": "",
          "type": "bool"
        }
      ],
      "payable": false,
      "stateMutability": "view",
      "type": "function"
    },
    {
      "constant": true,
      "inputs": [],
      "name": "symbol",
      "outputs": [
        {
          "name": "",
          "type": "string"
        }
      ],
      "payable": false,
      "stateMutability": "view",
      "type": "function"
    },
    {
      "constant": true,
      "inputs": [],
      "name": "taxAddress",
      "outputs": [
        {
          "name": "",
          "type": "address"
        }
      ],
      "payable": false,
      "stateMutability": "view",
      "type": "function"
    },
    {
      "constant": true,
      "inputs": [],
      "name": "contractUnderlyingToken",
      "outputs": [
        {
          "name": "underlyingTokenAddress",
          "type": "address"
        },
        {
          "name": "underlyingTokenId",
          "type": "uint256"
        }
      ],
      "payable": false,
      "stateMutability": "view",
      "type": "function"
    },
    {
      "constant": false,
      "inputs": [
        {
          "name": "newOwner",
          "type": "address"
        }
      ],
      "name": "transferOwnership",
      "outputs": [],
      "payable": false,
      "stateMutability": "nonpayable",
      "type": "function"
    },
    {
      "inputs": [
        {
          "name": "_underlyingTokenAddress",
          "type": "address"
        },
        {
          "name": "_underlyingTokenId",
          "type": "uint256"
        }
      ],
      "payable": false,
      "stateMutability": "nonpayable",
      "type": "constructor"
    },
    {
      "payable": false,
      "stateMutability": "nonpayable",
      "type": "fallback"
    },
    {
      "anonymous": false,
      "inputs": [
        {
          "indexed": false,
          "name": "",
          "type": "uint256"
        }
      ],
      "name": "worksChecker",
      "type": "event"
    },
    {
      "anonymous": false,
      "inputs": [
        {
          "indexed": true,
          "name": "_from",
          "type": "address"
        },
        {
          "indexed": true,
          "name": "_to",
          "type": "address"
        },
        {
          "indexed": false,
          "name": "_amount",
          "type": "uint256"
        }
      ],
      "name": "Transfer",
      "type": "event"
    },
    {
      "anonymous": false,
      "inputs": [
        {
          "indexed": true,
          "name": "_owner",
          "type": "address"
        },
        {
          "indexed": true,
          "name": "_spender",
          "type": "address"
        },
        {
          "indexed": false,
          "name": "_amount",
          "type": "uint256"
        }
      ],
      "name": "Approval",
      "type": "event"
    },
    {
      "anonymous": false,
      "inputs": [
        {
          "indexed": false,
          "name": "num",
          "type": "uint256"
        }
      ],
      "name": "testTransfer",
      "type": "event"
    },
    {
      "anonymous": false,
      "inputs": [
        {
          "indexed": true,
          "name": "previousOwner",
          "type": "address"
        },
        {
          "indexed": true,
          "name": "newOwner",
          "type": "address"
        }
      ],
      "name": "OwnershipTransferred",
      "type": "event"
    },
    {
      "constant": true,
      "inputs": [],
      "name": "totalSupply",
      "outputs": [
        {
          "name": "",
          "type": "uint256"
        }
      ],
      "payable": false,
      "stateMutability": "view",
      "type": "function"
    },
    {
      "constant": false,
      "inputs": [
        {
          "name": "_erc20Name",
          "type": "string"
        },
        {
          "name": "_erc20Symbol",
          "type": "string"
        },
        {
          "name": "_erc20Decimals",
          "type": "uint8"
        }
      ],
      "name": "setERC20",
      "outputs": [],
      "payable": false,
      "stateMutability": "nonpayable",
      "type": "function"
    },
    {
      "constant": false,
      "inputs": [
        {
          "name": "_paymentAddress",
          "type": "address"
        },
        {
          "name": "_taxAddress",
          "type": "address"
        },
        {
          "name": "_minimumShares",
          "type": "uint256"
        },
        {
          "name": "_taxRate",
          "type": "uint256"
        },
        {
          "name": "_erc20Supply",
          "type": "uint256"
        }
      ],
      "name": "setMainInfo",
      "outputs": [],
      "payable": false,
      "stateMutability": "nonpayable",
      "type": "function"
    },
    {
      "constant": false,
      "inputs": [
        {
          "name": "_userValue",
          "type": "uint256"
        },
        {
          "name": "_userDuration",
          "type": "uint256"
        }
      ],
      "name": "setHarberger",
      "outputs": [],
      "payable": false,
      "stateMutability": "nonpayable",
      "type": "function"
    },
    {
      "constant": false,
      "inputs": [
        {
          "name": "_to",
          "type": "address"
        },
        {
          "name": "_value",
          "type": "uint256"
        }
      ],
      "name": "transfer",
      "outputs": [
        {
          "name": "success",
          "type": "bool"
        }
      ],
      "payable": false,
      "stateMutability": "nonpayable",
      "type": "function"
    },
    {
      "constant": false,
      "inputs": [
        {
          "name": "_from",
          "type": "address"
        },
        {
          "name": "_to",
          "type": "address"
        },
        {
          "name": "_value",
          "type": "uint256"
        }
      ],
      "name": "transferFrom",
      "outputs": [
        {
          "name": "success",
          "type": "bool"
        }
      ],
      "payable": false,
      "stateMutability": "nonpayable",
      "type": "function"
    },
    {
      "constant": false,
      "inputs": [
        {
          "name": "amount",
          "type": "uint256"
        }
      ],
      "name": "withdrawReimbursement",
      "outputs": [],
      "payable": false,
      "stateMutability": "nonpayable",
      "type": "function"
    },
    {
      "constant": false,
      "inputs": [
        {
          "name": "_logic",
          "type": "bytes"
        },
        {
          "name": "_driver",
          "type": "address"
        }
      ],
      "name": "execute",
      "outputs": [],
      "payable": false,
      "stateMutability": "nonpayable",
      "type": "function"
    },
    {
      "constant": true,
      "inputs": [
        {
          "name": "_owner",
          "type": "address"
        }
      ],
      "name": "balanceOf",
      "outputs": [
        {
          "name": "balance",
          "type": "uint256"
        }
      ],
      "payable": false,
      "stateMutability": "view",
      "type": "function"
    },
    {
      "constant": false,
      "inputs": [
        {
          "name": "_spender",
          "type": "address"
        },
        {
          "name": "_amount",
          "type": "uint256"
        }
      ],
      "name": "approve",
      "outputs": [
        {
          "name": "success",
          "type": "bool"
        }
      ],
      "payable": false,
      "stateMutability": "nonpayable",
      "type": "function"
    },
    {
      "constant": false,
      "inputs": [],
      "name": "withdrawTaxes",
      "outputs": [],
      "payable": false,
      "stateMutability": "nonpayable",
      "type": "function"
    },
    {
      "constant": true,
      "inputs": [
        {
          "name": "_owner",
          "type": "address"
        },
        {
          "name": "_spender",
          "type": "address"
        }
      ],
      "name": "allowance",
      "outputs": [
        {
          "name": "remaining",
          "type": "uint256"
        }
      ],
      "payable": false,
      "stateMutability": "view",
      "type": "function"
    },
    {
      "constant": false,
      "inputs": [],
      "name": "unlockToken",
      "outputs": [],
      "payable": false,
      "stateMutability": "nonpayable",
      "type": "function"
    }
  ],
  "bytecode": "0x608060405234801561001057600080fd5b5060405160408061379d8339810180604052604081101561003057600080fd5b810190808051906020019092919080519060200190929190505050336000806101000a81548173ffffffffffffffffffffffffffffffffffffffff021916908373ffffffffffffffffffffffffffffffffffffffff1602179055506000809054906101000a900473ffffffffffffffffffffffffffffffffffffffff1673ffffffffffffffffffffffffffffffffffffffff16600073ffffffffffffffffffffffffffffffffffffffff167f8be0079c531659141344cd1fd0a4f28419497f9722a3daafe3b4186f6b6457e060405160405180910390a333600360006101000a81548173ffffffffffffffffffffffffffffffffffffffff021916908373ffffffffffffffffffffffffffffffffffffffff16021790555081600c60000160006101000a81548173ffffffffffffffffffffffffffffffffffffffff021916908373ffffffffffffffffffffffffffffffffffffffff16021790555080600c6001018190555050506135f6806101a76000396000f3fe60806040526004361061018b576000357c0100000000000000000000000000000000000000000000000000000000900463ffffffff16806306fdde031461019a578063095ea7b31461022a57806309fe2a581461029d57806318160ddd146102f457806318a24b5b1461031f57806323b872dd1461033657806327e235e3146103c9578063313ce5671461042e57806332b72ffd1461045f57806346829831146104dd5780634a4f5a1c146104f45780635563ad6d146105595780635c658165146105be578063633423be1461064357806367eaf0721461069a5780636accdc13146106d557806370a08231146107bd578063715018a614610822578063771a3a1d146108395780638b66b27e146108645780638d78fd0b146108a95780638da5cb5b146108d45780638f32d59b1461092b5780639487e08f1461095a57806395d89b41146109e9578063a9059cbb14610a79578063b7bda68f14610aec578063bcdea4f214610b43578063dd62ed3e14610ba1578063eaf6851214610c26578063f2fde38b14610d0e575b34801561019757600080fd5b50005b3480156101a657600080fd5b506101af610d5f565b6040518080602001828103825283818151815260200191508051906020019080838360005b838110156101ef5780820151818401526020810190506101d4565b50505050905090810190601f16801561021c5780820380516001836020036101000a031916815260200191505b509250505060405180910390f35b34801561023657600080fd5b506102836004803603604081101561024d57600080fd5b81019080803573ffffffffffffffffffffffffffffffffffffffff16906020019092919080359060200190929190505050610dfd565b604051808215151515815260200191505060405180910390f35b3480156102a957600080fd5b506102b2610f84565b604051808273ffffffffffffffffffffffffffffffffffffffff1673ffffffffffffffffffffffffffffffffffffffff16815260200191505060405180910390f35b34801561030057600080fd5b50610309610faa565b6040518082815260200191505060405180910390f35b34801561032b57600080fd5b50610334610fb4565b005b34801561034257600080fd5b506103af6004803603606081101561035957600080fd5b81019080803573ffffffffffffffffffffffffffffffffffffffff169060200190929190803573ffffffffffffffffffffffffffffffffffffffff16906020019092919080359060200190929190505050611176565b604051808215151515815260200191505060405180910390f35b3480156103d557600080fd5b50610418600480360360208110156103ec57600080fd5b81019080803573ffffffffffffffffffffffffffffffffffffffff169060200190929190505050611f00565b6040518082815260200191505060405180910390f35b34801561043a57600080fd5b50610443611f18565b604051808260ff1660ff16815260200191505060405180910390f35b34801561046b57600080fd5b506104ae6004803603602081101561048257600080fd5b81019080803573ffffffffffffffffffffffffffffffffffffffff169060200190929190505050611f2b565b604051808581526020018481526020018381526020018215151515815260200194505050505060405180910390f35b3480156104e957600080fd5b506104f2611f68565b005b34801561050057600080fd5b506105436004803603602081101561051757600080fd5b81019080803573ffffffffffffffffffffffffffffffffffffffff169060200190929190505050612097565b6040518082815260200191505060405180910390f35b34801561056557600080fd5b506105a86004803603602081101561057c57600080fd5b81019080803573ffffffffffffffffffffffffffffffffffffffff1690602001909291905050506120af565b6040518082815260200191505060405180910390f35b3480156105ca57600080fd5b5061062d600480360360408110156105e157600080fd5b81019080803573ffffffffffffffffffffffffffffffffffffffff169060200190929190803573ffffffffffffffffffffffffffffffffffffffff1690602001909291905050506120c7565b6040518082815260200191505060405180910390f35b34801561064f57600080fd5b506106586120ec565b604051808273ffffffffffffffffffffffffffffffffffffffff1673ffffffffffffffffffffffffffffffffffffffff16815260200191505060405180910390f35b3480156106a657600080fd5b506106d3600480360360208110156106bd57600080fd5b8101908080359060200190929190505050612112565b005b3480156106e157600080fd5b506107bb600480360360408110156106f857600080fd5b810190808035906020019064010000000081111561071557600080fd5b82018360208201111561072757600080fd5b8035906020019184600183028401116401000000008311171561074957600080fd5b91908080601f016020809104026020016040519081016040528093929190818152602001838380828437600081840152601f19601f820116905080830192505050505050509192919290803573ffffffffffffffffffffffffffffffffffffffff1690602001909291905050506122b1565b005b3480156107c957600080fd5b5061080c600480360360208110156107e057600080fd5b81019080803573ffffffffffffffffffffffffffffffffffffffff1690602001909291905050506123de565b6040518082815260200191505060405180910390f35b34801561082e57600080fd5b50610837612427565b005b34801561084557600080fd5b5061084e6124f9565b6040518082815260200191505060405180910390f35b34801561087057600080fd5b506108a76004803603604081101561088757600080fd5b8101908080359060200190929190803590602001909291905050506124ff565b005b3480156108b557600080fd5b506108be612a04565b6040518082815260200191505060405180910390f35b3480156108e057600080fd5b506108e9612a0a565b604051808273ffffffffffffffffffffffffffffffffffffffff1673ffffffffffffffffffffffffffffffffffffffff16815260200191505060405180910390f35b34801561093757600080fd5b50610940612a33565b604051808215151515815260200191505060405180910390f35b34801561096657600080fd5b506109e7600480360360a081101561097d57600080fd5b81019080803573ffffffffffffffffffffffffffffffffffffffff169060200190929190803573ffffffffffffffffffffffffffffffffffffffff169060200190929190803590602001909291908035906020019092919080359060200190929190505050612a8a565b005b3480156109f557600080fd5b506109fe612c22565b6040518080602001828103825283818151815260200191508051906020019080838360005b83811015610a3e578082015181840152602081019050610a23565b50505050905090810190601f168015610a6b5780820380516001836020036101000a031916815260200191505b509250505060405180910390f35b348015610a8557600080fd5b50610ad260048036036040811015610a9c57600080fd5b81019080803573ffffffffffffffffffffffffffffffffffffffff16906020019092919080359060200190929190505050612cc0565b604051808215151515815260200191505060405180910390f35b348015610af857600080fd5b50610b01612fb8565b604051808273ffffffffffffffffffffffffffffffffffffffff1673ffffffffffffffffffffffffffffffffffffffff16815260200191505060405180910390f35b348015610b4f57600080fd5b50610b58612fde565b604051808373ffffffffffffffffffffffffffffffffffffffff1673ffffffffffffffffffffffffffffffffffffffff1681526020018281526020019250505060405180910390f35b348015610bad57600080fd5b50610c1060048036036040811015610bc457600080fd5b81019080803573ffffffffffffffffffffffffffffffffffffffff169060200190929190803573ffffffffffffffffffffffffffffffffffffffff169060200190929190505050613010565b6040518082815260200191505060405180910390f35b348015610c3257600080fd5b50610d0c60048036036060811015610c4957600080fd5b8101908080359060200190640100000000811115610c6657600080fd5b820183602082011115610c7857600080fd5b80359060200191846001830284011164010000000083111715610c9a57600080fd5b909192939192939080359060200190640100000000811115610cbb57600080fd5b820183602082011115610ccd57600080fd5b80359060200191846001830284011164010000000083111715610cef57600080fd5b9091929391929390803560ff169060200190929190505050613097565b005b348015610d1a57600080fd5b50610d5d60048036036020811015610d3157600080fd5b81019080803573ffffffffffffffffffffffffffffffffffffffff16906020019092919050505061314b565b005b60068054600181600116156101000203166002900480601f016020809104026020016040519081016040528092919081815260200182805460018160011615610100020316600290048015610df55780601f10610dca57610100808354040283529160200191610df5565b820191906000526020600020905b815481529060010190602001808311610dd857829003601f168201915b505050505081565b600080821480610e8957506000601060003373ffffffffffffffffffffffffffffffffffffffff1673ffffffffffffffffffffffffffffffffffffffff16815260200190815260200160002060008573ffffffffffffffffffffffffffffffffffffffff1673ffffffffffffffffffffffffffffffffffffffff16815260200190815260200160002054145b1515610e9457600080fd5b81601060003373ffffffffffffffffffffffffffffffffffffffff1673ffffffffffffffffffffffffffffffffffffffff16815260200190815260200160002060008573ffffffffffffffffffffffffffffffffffffffff1673ffffffffffffffffffffffffffffffffffffffff168152602001908152602001600020819055508273ffffffffffffffffffffffffffffffffffffffff163373ffffffffffffffffffffffffffffffffffffffff167f8c5be1e5ebec7d5bd14f71427d1e84f3dd0314c0f7b2291e5b200ac8c7c3b925846040518082815260200191505060405180910390a36001905092915050565b600360009054906101000a900473ffffffffffffffffffffffffffffffffffffffff1681565b6000600554905090565b600554600f60003373ffffffffffffffffffffffffffffffffffffffff1673ffffffffffffffffffffffffffffffffffffffff1681526020019081526020016000205414151561100357600080fd5b61103233600360009054906101000a900473ffffffffffffffffffffffffffffffffffffffff16600554611176565b506000600360009054906101000a900473ffffffffffffffffffffffffffffffffffffffff1690508073ffffffffffffffffffffffffffffffffffffffff16635a9c78ab600c60000160009054906101000a900473ffffffffffffffffffffffffffffffffffffffff16600c60010154336040518463ffffffff167c0100000000000000000000000000000000000000000000000000000000028152600401808473ffffffffffffffffffffffffffffffffffffffff1673ffffffffffffffffffffffffffffffffffffffff1681526020018381526020018273ffffffffffffffffffffffffffffffffffffffff1673ffffffffffffffffffffffffffffffffffffffff1681526020019350505050600060405180830381600087803b15801561115b57600080fd5b505af115801561116f573d6000803e3d6000fd5b5050505050565b6000600360009054906101000a900473ffffffffffffffffffffffffffffffffffffffff1673ffffffffffffffffffffffffffffffffffffffff168473ffffffffffffffffffffffffffffffffffffffff161415151561123e576040517f08c379a00000000000000000000000000000000000000000000000000000000081526004018080602001828103825260058152602001807f6572726f7200000000000000000000000000000000000000000000000000000081525060200191505060405180910390fd5b6000821115156112b6576040517f08c379a000000000000000000000000000000000000000000000000000000000815260040180806020018281038252601c8152602001807f76616c7565206d7573742062652067726561746572207468616e20300000000081525060200191505060405180910390fd5b60011515600e60008573ffffffffffffffffffffffffffffffffffffffff1673ffffffffffffffffffffffffffffffffffffffff16815260200190815260200160002060030160009054906101000a900460ff16151514806113655750600360009054906101000a900473ffffffffffffffffffffffffffffffffffffffff1673ffffffffffffffffffffffffffffffffffffffff168373ffffffffffffffffffffffffffffffffffffffff16145b15156113ff576040517f08c379a00000000000000000000000000000000000000000000000000000000081526004018080602001828103825260258152602001807f726563697069656e74206d75737420686176652068617262657267657220746181526020017f782073657400000000000000000000000000000000000000000000000000000081525060400191505060405180910390fd5b600a5482600f60008673ffffffffffffffffffffffffffffffffffffffff1673ffffffffffffffffffffffffffffffffffffffff1681526020019081526020016000205401101580156114e15750600a5482600f60008773ffffffffffffffffffffffffffffffffffffffff1673ffffffffffffffffffffffffffffffffffffffff16815260200190815260200160002054031015806114e05750600082600f60008773ffffffffffffffffffffffffffffffffffffffff1673ffffffffffffffffffffffffffffffffffffffff1681526020019081526020016000205403145b5b15156114ec57600080fd5b3073ffffffffffffffffffffffffffffffffffffffff168473ffffffffffffffffffffffffffffffffffffffff1614151561170e57600260009054906101000a900473ffffffffffffffffffffffffffffffffffffffff1673ffffffffffffffffffffffffffffffffffffffff166323b872dd338685600e60008a73ffffffffffffffffffffffffffffffffffffffff1673ffffffffffffffffffffffffffffffffffffffff16815260200190815260200160002060000154026040518463ffffffff167c0100000000000000000000000000000000000000000000000000000000028152600401808473ffffffffffffffffffffffffffffffffffffffff1673ffffffffffffffffffffffffffffffffffffffff1681526020018373ffffffffffffffffffffffffffffffffffffffff1673ffffffffffffffffffffffffffffffffffffffff1681526020018281526020019350505050602060405180830381600087803b15801561165e57600080fd5b505af1158015611672573d6000803e3d6000fd5b505050506040513d602081101561168857600080fd5b8101908080519060200190929190505050151561170d576040517f08c379a000000000000000000000000000000000000000000000000000000000815260040180806020018281038252600e8152602001807f5061796d656e74206661696c656400000000000000000000000000000000000081525060200191505060405180910390fd5b5b3073ffffffffffffffffffffffffffffffffffffffff168473ffffffffffffffffffffffffffffffffffffffff161415801561178957506000601160008673ffffffffffffffffffffffffffffffffffffffff1673ffffffffffffffffffffffffffffffffffffffff16815260200190815260200160002054115b15611bfe57600e60008573ffffffffffffffffffffffffffffffffffffffff1673ffffffffffffffffffffffffffffffffffffffff16815260200190815260200160002060010154600e60008673ffffffffffffffffffffffffffffffffffffffff1673ffffffffffffffffffffffffffffffffffffffff168152602001908152602001600020600201544203601160008773ffffffffffffffffffffffffffffffffffffffff1673ffffffffffffffffffffffffffffffffffffffff16815260200190815260200160002054600f60008873ffffffffffffffffffffffffffffffffffffffff1673ffffffffffffffffffffffffffffffffffffffff16815260200190815260200160002054858115156118a057fe5b0402028115156118ac57fe5b04600b60008282540192505081905550600260009054906101000a900473ffffffffffffffffffffffffffffffffffffffff1673ffffffffffffffffffffffffffffffffffffffff1663a9059cbb85600e60008873ffffffffffffffffffffffffffffffffffffffff1673ffffffffffffffffffffffffffffffffffffffff16815260200190815260200160002060010154600e60008973ffffffffffffffffffffffffffffffffffffffff1673ffffffffffffffffffffffffffffffffffffffff16815260200190815260200160002060020154420381151561198c57fe5b04600103601160008973ffffffffffffffffffffffffffffffffffffffff1673ffffffffffffffffffffffffffffffffffffffff16815260200190815260200160002054600f60008a73ffffffffffffffffffffffffffffffffffffffff1673ffffffffffffffffffffffffffffffffffffffff1681526020019081526020016000205487811515611a1a57fe5b0402026040518363ffffffff167c0100000000000000000000000000000000000000000000000000000000028152600401808373ffffffffffffffffffffffffffffffffffffffff1673ffffffffffffffffffffffffffffffffffffffff16815260200182815260200192505050602060405180830381600087803b158015611aa257600080fd5b505af1158015611ab6573d6000803e3d6000fd5b505050506040513d6020811015611acc57600080fd5b810190808051906020019092919050505050601160008573ffffffffffffffffffffffffffffffffffffffff1673ffffffffffffffffffffffffffffffffffffffff16815260200190815260200160002054600f60008673ffffffffffffffffffffffffffffffffffffffff1673ffffffffffffffffffffffffffffffffffffffff1681526020019081526020016000205483811515611b6857fe5b0402601160008673ffffffffffffffffffffffffffffffffffffffff1673ffffffffffffffffffffffffffffffffffffffff1681526020019081526020016000206000828254039250508190555042600e60008673ffffffffffffffffffffffffffffffffffffffff1673ffffffffffffffffffffffffffffffffffffffff168152602001908152602001600020600201819055505b600042600e60008673ffffffffffffffffffffffffffffffffffffffff1673ffffffffffffffffffffffffffffffffffffffff16815260200190815260200160002060010154600e60008773ffffffffffffffffffffffffffffffffffffffff1673ffffffffffffffffffffffffffffffffffffffff16815260200190815260200160002060020154010310151515611c9657600080fd5b600260009054906101000a900473ffffffffffffffffffffffffffffffffffffffff1673ffffffffffffffffffffffffffffffffffffffff166323b872dd8430600860009054906101000a900460ff1660ff16600a0a42600e60008a73ffffffffffffffffffffffffffffffffffffffff1673ffffffffffffffffffffffffffffffffffffffff16815260200190815260200160002060010154600e60008b73ffffffffffffffffffffffffffffffffffffffff1673ffffffffffffffffffffffffffffffffffffffff168152602001908152602001600020600201540103811515611d7e57fe5b04600e60008973ffffffffffffffffffffffffffffffffffffffff1673ffffffffffffffffffffffffffffffffffffffff16815260200190815260200160002060000154876009540202026040518463ffffffff167c0100000000000000000000000000000000000000000000000000000000028152600401808473ffffffffffffffffffffffffffffffffffffffff1673ffffffffffffffffffffffffffffffffffffffff1681526020018373ffffffffffffffffffffffffffffffffffffffff1673ffffffffffffffffffffffffffffffffffffffff1681526020018281526020019350505050602060405180830381600087803b158015611e8157600080fd5b505af1158015611e95573d6000803e3d6000fd5b505050506040513d6020811015611eab57600080fd5b8101908080519060200190929190505050507f777dec751f8a191ec297c5a70ffc57e627dd1117ca5d0a795cf8bb07164566a260016040518082815260200191505060405180910390a1600190509392505050565b600f6020528060005260406000206000915090505481565b600860009054906101000a900460ff1681565b600e6020528060005260406000206000915090508060000154908060010154908060020154908060030160009054906101000a900460ff16905084565b600260009054906101000a900473ffffffffffffffffffffffffffffffffffffffff1673ffffffffffffffffffffffffffffffffffffffff1663a9059cbb600460009054906101000a900473ffffffffffffffffffffffffffffffffffffffff16600b546040518363ffffffff167c0100000000000000000000000000000000000000000000000000000000028152600401808373ffffffffffffffffffffffffffffffffffffffff1673ffffffffffffffffffffffffffffffffffffffff16815260200182815260200192505050602060405180830381600087803b15801561205157600080fd5b505af1158015612065573d6000803e3d6000fd5b505050506040513d602081101561207b57600080fd5b8101908080519060200190929190505050506000600b81905550565b60116020528060005260406000206000915090505481565b60126020528060005260406000206000915090505481565b6010602052816000526040600020602052806000526040600020600091509150505481565b600160009054906101000a900473ffffffffffffffffffffffffffffffffffffffff1681565b80601260003373ffffffffffffffffffffffffffffffffffffffff1673ffffffffffffffffffffffffffffffffffffffff168152602001908152602001600020541015151561216057600080fd5b80601260003373ffffffffffffffffffffffffffffffffffffffff1673ffffffffffffffffffffffffffffffffffffffff16815260200190815260200160002060008282540392505081905550600260009054906101000a900473ffffffffffffffffffffffffffffffffffffffff1673ffffffffffffffffffffffffffffffffffffffff1663a9059cbb33836040518363ffffffff167c0100000000000000000000000000000000000000000000000000000000028152600401808373ffffffffffffffffffffffffffffffffffffffff1673ffffffffffffffffffffffffffffffffffffffff16815260200182815260200192505050602060405180830381600087803b15801561227257600080fd5b505af1158015612286573d6000803e3d6000fd5b505050506040513d602081101561229c57600080fd5b81019080805190602001909291905050505050565b6122b9612a33565b15156122c457600080fd5b60008190508073ffffffffffffffffffffffffffffffffffffffff1663089b0aeb846040518263ffffffff167c01000000000000000000000000000000000000000000000000000000000281526004018080602001828103825283818151815260200191508051906020019080838360005b83811015612351578082015181840152602081019050612336565b50505050905090810190601f16801561237e5780820380516001836020036101000a031916815260200191505b5092505050602060405180830381600087803b15801561239d57600080fd5b505af11580156123b1573d6000803e3d6000fd5b505050506040513d60208110156123c757600080fd5b810190808051906020019092919050505050505050565b6000600f60008373ffffffffffffffffffffffffffffffffffffffff1673ffffffffffffffffffffffffffffffffffffffff168152602001908152602001600020549050919050565b61242f612a33565b151561243a57600080fd5b600073ffffffffffffffffffffffffffffffffffffffff166000809054906101000a900473ffffffffffffffffffffffffffffffffffffffff1673ffffffffffffffffffffffffffffffffffffffff167f8be0079c531659141344cd1fd0a4f28419497f9722a3daafe3b4186f6b6457e060405160405180910390a360008060006101000a81548173ffffffffffffffffffffffffffffffffffffffff021916908373ffffffffffffffffffffffffffffffffffffffff160217905550565b60095481565b6000821415151561250f57600080fd5b6000811415151561251f57600080fd5b60011515600e60003373ffffffffffffffffffffffffffffffffffffffff1673ffffffffffffffffffffffffffffffffffffffff16815260200190815260200160002060030160009054906101000a900460ff1615151415156125dc576001600e60003373ffffffffffffffffffffffffffffffffffffffff1673ffffffffffffffffffffffffffffffffffffffff16815260200190815260200160002060030160006101000a81548160ff02191690831515021790555061292b565b6000600e60003373ffffffffffffffffffffffffffffffffffffffff1673ffffffffffffffffffffffffffffffffffffffff16815260200190815260200160002060010154600e60003373ffffffffffffffffffffffffffffffffffffffff1673ffffffffffffffffffffffffffffffffffffffff16815260200190815260200160002060020154420381151561266f57fe5b049050600260009054906101000a900473ffffffffffffffffffffffffffffffffffffffff1673ffffffffffffffffffffffffffffffffffffffff1663a9059cbb600460009054906101000a900473ffffffffffffffffffffffffffffffffffffffff1683600e60003373ffffffffffffffffffffffffffffffffffffffff1673ffffffffffffffffffffffffffffffffffffffff1681526020019081526020016000206000015460095402026040518363ffffffff167c0100000000000000000000000000000000000000000000000000000000028152600401808373ffffffffffffffffffffffffffffffffffffffff1673ffffffffffffffffffffffffffffffffffffffff16815260200182815260200192505050602060405180830381600087803b1580156127a157600080fd5b505af11580156127b5573d6000803e3d6000fd5b505050506040513d60208110156127cb57600080fd5b810190808051906020019092919050505050600260009054906101000a900473ffffffffffffffffffffffffffffffffffffffff1673ffffffffffffffffffffffffffffffffffffffff1663a9059cbb3383600103600e60003373ffffffffffffffffffffffffffffffffffffffff1673ffffffffffffffffffffffffffffffffffffffff1681526020019081526020016000206000015460095402026040518363ffffffff167c0100000000000000000000000000000000000000000000000000000000028152600401808373ffffffffffffffffffffffffffffffffffffffff1673ffffffffffffffffffffffffffffffffffffffff16815260200182815260200192505050602060405180830381600087803b1580156128ed57600080fd5b505af1158015612901573d6000803e3d6000fd5b505050506040513d602081101561291757600080fd5b810190808051906020019092919050505050505b81600e60003373ffffffffffffffffffffffffffffffffffffffff1673ffffffffffffffffffffffffffffffffffffffff1681526020019081526020016000206000018190555080600e60003373ffffffffffffffffffffffffffffffffffffffff1673ffffffffffffffffffffffffffffffffffffffff1681526020019081526020016000206001018190555042600e60003373ffffffffffffffffffffffffffffffffffffffff1673ffffffffffffffffffffffffffffffffffffffff168152602001908152602001600020600201819055505050565b600a5481565b60008060009054906101000a900473ffffffffffffffffffffffffffffffffffffffff16905090565b60008060009054906101000a900473ffffffffffffffffffffffffffffffffffffffff1673ffffffffffffffffffffffffffffffffffffffff163373ffffffffffffffffffffffffffffffffffffffff1614905090565b600360009054906101000a900473ffffffffffffffffffffffffffffffffffffffff1673ffffffffffffffffffffffffffffffffffffffff163373ffffffffffffffffffffffffffffffffffffffff16141515612ae657600080fd5b84600160006101000a81548173ffffffffffffffffffffffffffffffffffffffff021916908373ffffffffffffffffffffffffffffffffffffffff16021790555084600260006101000a81548173ffffffffffffffffffffffffffffffffffffffff021916908373ffffffffffffffffffffffffffffffffffffffff16021790555083600460006101000a81548173ffffffffffffffffffffffffffffffffffffffff021916908373ffffffffffffffffffffffffffffffffffffffff16021790555082600a8190555081600981905550600860009054906101000a900460ff1660ff16600a820218600581905550600554600f60003073ffffffffffffffffffffffffffffffffffffffff1673ffffffffffffffffffffffffffffffffffffffff168152602001908152602001600020819055505050505050565b60078054600181600116156101000203166002900480601f016020809104026020016040519081016040528092919081815260200182805460018160011615610100020316600290048015612cb85780601f10612c8d57610100808354040283529160200191612cb8565b820191906000526020600020905b815481529060010190602001808311612c9b57829003601f168201915b505050505081565b6000600360009054906101000a900473ffffffffffffffffffffffffffffffffffffffff1673ffffffffffffffffffffffffffffffffffffffff163373ffffffffffffffffffffffffffffffffffffffff1614151515612d1f57600080fd5b600082111515612d97576040517f08c379a000000000000000000000000000000000000000000000000000000000815260040180806020018281038252601c8152602001807f76616c7565206d7573742062652067726561746572207468616e20300000000081525060200191505060405180910390fd5b60011515600e60008573ffffffffffffffffffffffffffffffffffffffff1673ffffffffffffffffffffffffffffffffffffffff16815260200190815260200160002060030160009054906101000a900460ff1615151480612e465750600360009054906101000a900473ffffffffffffffffffffffffffffffffffffffff1673ffffffffffffffffffffffffffffffffffffffff168373ffffffffffffffffffffffffffffffffffffffff16145b1515612e5157600080fd5b600a54612e9d600f60008673ffffffffffffffffffffffffffffffffffffffff1673ffffffffffffffffffffffffffffffffffffffff16815260200190815260200160002054846133a6565b10158015612f3a5750600a5482600f60003373ffffffffffffffffffffffffffffffffffffffff1673ffffffffffffffffffffffffffffffffffffffff1681526020019081526020016000205403101580612f395750600082600f60003373ffffffffffffffffffffffffffffffffffffffff1673ffffffffffffffffffffffffffffffffffffffff1681526020019081526020016000205403145b5b1515612f4557600080fd5b81600f60003373ffffffffffffffffffffffffffffffffffffffff1673ffffffffffffffffffffffffffffffffffffffff1681526020019081526020016000205410158015612f945750600082115b15612fad57612fa433848461316a565b60019050612fb2565b600090505b92915050565b600460009054906101000a900473ffffffffffffffffffffffffffffffffffffffff1681565b600c8060000160009054906101000a900473ffffffffffffffffffffffffffffffffffffffff16908060010154905082565b6000601060008473ffffffffffffffffffffffffffffffffffffffff1673ffffffffffffffffffffffffffffffffffffffff16815260200190815260200160002060008373ffffffffffffffffffffffffffffffffffffffff1673ffffffffffffffffffffffffffffffffffffffff16815260200190815260200160002054905092915050565b600360009054906101000a900473ffffffffffffffffffffffffffffffffffffffff1673ffffffffffffffffffffffffffffffffffffffff163373ffffffffffffffffffffffffffffffffffffffff161415156130f357600080fd5b848460069190613104929190613525565b50828260079190613116929190613525565b5060028160ff1611151561312957600080fd5b80600860006101000a81548160ff021916908360ff1602179055505050505050565b613153612a33565b151561315e57600080fd5b6131678161342b565b50565b600073ffffffffffffffffffffffffffffffffffffffff168273ffffffffffffffffffffffffffffffffffffffff16141580156131d357503073ffffffffffffffffffffffffffffffffffffffff168273ffffffffffffffffffffffffffffffffffffffff1614155b15156131de57600080fd5b600f60008473ffffffffffffffffffffffffffffffffffffffff1673ffffffffffffffffffffffffffffffffffffffff16815260200190815260200160002054811115151561322c57600080fd5b80600f60008573ffffffffffffffffffffffffffffffffffffffff1673ffffffffffffffffffffffffffffffffffffffff1681526020019081526020016000206000828254039250508190555080600f60008473ffffffffffffffffffffffffffffffffffffffff1673ffffffffffffffffffffffffffffffffffffffff168152602001908152602001600020600082825401925050819055508173ffffffffffffffffffffffffffffffffffffffff168373ffffffffffffffffffffffffffffffffffffffff167fddf252ad1be2c89b69c2b068fc378daa952ba7f163c4a11628f55a4df523b3ef836040518082815260200191505060405180910390a37f040821fcca34311ef45a94a9642814fbd0bc0ad233cba17286f086261a7e58f9600f60008473ffffffffffffffffffffffffffffffffffffffff1673ffffffffffffffffffffffffffffffffffffffff168152602001908152602001600020546040518082815260200191505060405180910390a1505050565b60008282840191508110151515613425576040517f08c379a00000000000000000000000000000000000000000000000000000000081526004018080602001828103825260148152602001807f64732d6d6174682d6164642d6f766572666c6f7700000000000000000000000081525060200191505060405180910390fd5b92915050565b600073ffffffffffffffffffffffffffffffffffffffff168173ffffffffffffffffffffffffffffffffffffffff161415151561346757600080fd5b8073ffffffffffffffffffffffffffffffffffffffff166000809054906101000a900473ffffffffffffffffffffffffffffffffffffffff1673ffffffffffffffffffffffffffffffffffffffff167f8be0079c531659141344cd1fd0a4f28419497f9722a3daafe3b4186f6b6457e060405160405180910390a3806000806101000a81548173ffffffffffffffffffffffffffffffffffffffff021916908373ffffffffffffffffffffffffffffffffffffffff16021790555050565b828054600181600116156101000203166002900490600052602060002090601f016020900481019282601f1061356657803560ff1916838001178555613594565b82800160010185558215613594579182015b82811115613593578235825591602001919060010190613578565b5b5090506135a191906135a5565b5090565b6135c791905b808211156135c35760008160009055506001016135ab565b5090565b9056fea165627a7a72305820f9fb0ab5daa31ec682543f0d02fdb057f30659857a9376d1ee3919f6a334033e0029",
  "source": "pragma solidity ^0.5.0;\n\nimport 'openzeppelin-solidity/contracts/token/ERC20/IERC20.sol';\nimport 'openzeppelin-solidity/contracts/ownership/Ownable.sol';\nimport \"./driver-core.sol\";\nimport \"./tokenize-core-interface.sol\";\nimport './DSMath.sol';\n\n\n\ncontract AssetTokenizationContract is Ownable, DSMath {\n\n    address public paymentAddress;\n    IERC20 paymentAddressInstance;\n    address public tokenizeCore;\n    address public taxAddress;\n    uint256 private _totalSupply;\n    string public name;\n    string public symbol;\n    uint8 public decimals;\n    uint256 public taxRate;\n    uint256 public minimumShares;\n\n    uint256 accruedTaxes;\n\n\n    UnderlyingToken public contractUnderlyingToken; \n    struct UnderlyingToken{\n        address underlyingTokenAddress;\n        uint256 underlyingTokenId;\n    }\n\n    mapping (address => HarbergerSet) public harbergerSetByUser; \n    struct HarbergerSet{\n        uint256 userValue; // denominated in paymentAddress - i.e. .5 = .5 shares per (Dai * 10^18)\n        uint256  userDuration; //duration in seconds\n        uint256  userStartTime;\n        bool initialized;\n    }\n\n    mapping (address => uint256) public balances;\n    mapping (address => mapping (address => uint256)) public allowed;\n\n    mapping (address => uint) public escrowedByUser;\n    mapping (address => uint) public accruedReimbursementByUser;\n\n    constructor (\n        address _underlyingTokenAddress, \n        uint _underlyingTokenId) public\n    {\n        tokenizeCore = msg.sender;\n        contractUnderlyingToken.underlyingTokenAddress = _underlyingTokenAddress;\n        contractUnderlyingToken.underlyingTokenId = _underlyingTokenId;\n    }\n\n    modifier tokenizeCoreOnly{\n        require(msg.sender == tokenizeCore);\n        _;\n    }\n\n    function totalSupply() external view returns (uint256){\n        return _totalSupply;\n    }\n\n    function setERC20(string calldata _erc20Name, string calldata _erc20Symbol, uint8 _erc20Decimals) external tokenizeCoreOnly {\n        name = _erc20Name;\n        symbol = _erc20Symbol;\n        require(_erc20Decimals > 2);\n        decimals = _erc20Decimals;\n    }\n\n    function setMainInfo(address _paymentAddress, address _taxAddress, uint256 _minimumShares, uint256 _taxRate, uint256 _erc20Supply) external tokenizeCoreOnly {\n        paymentAddress = _paymentAddress;\n        paymentAddressInstance = IERC20(_paymentAddress);\n        taxAddress = _taxAddress;\n        minimumShares = _minimumShares;\n        taxRate = _taxRate;\n        _totalSupply = _erc20Supply * 10^decimals;\n        balances[address(this)] = _totalSupply;\n    }\n\n   function setHarberger (uint _userValue, uint _userDuration) public {\n        require (_userValue != 0);\n        require (_userDuration != 0);\n\n        if(harbergerSetByUser[msg.sender].initialized != true){\n        harbergerSetByUser[msg.sender].initialized = true;\n        } else{\n        //close out existing position\n        uint256 taxedPortion = (now - harbergerSetByUser[msg.sender].userStartTime) / harbergerSetByUser[msg.sender].userDuration;\n        paymentAddressInstance.transfer(taxAddress, taxRate * harbergerSetByUser[msg.sender].userValue * taxedPortion);\n        paymentAddressInstance.transfer(msg.sender, taxRate * harbergerSetByUser[msg.sender].userValue * (1-taxedPortion));\n        }\n\n        harbergerSetByUser[msg.sender].userValue = _userValue;\n        harbergerSetByUser[msg.sender].userDuration = _userDuration;\n        harbergerSetByUser[msg.sender].userStartTime = now;\n    }\n\n    function transfer(address _to, uint256 _value) public returns (bool success) {\n        // makes sure that once the underlying asset is unlocked, the tokens are destroyed\n        require (msg.sender != tokenizeCore);\n        require (_value > 0, \"value must be greater than 0\");\n        require ((harbergerSetByUser[_to].initialized == true) || (_to == tokenizeCore));\n        \n        require (super.add(balances[_to], (_value)) >= minimumShares && ((balances[msg.sender] - _value >= minimumShares) || balances[msg.sender] - _value == 0));\n\n        if (balances[msg.sender] >= _value && _value > 0) {\n            doTransfer(msg.sender, _to, _value);\n            return true;\n        } else { return false; }\n    }\n\n    event worksChecker(uint256);\n\n    function transferFrom(address _from, address _to, uint256 _value) public returns (bool success) {\n        // todo offer a version of this function where recipient can change their duration/value within the function call\n        // will be overloaded function, same params + uint _userDuration, uint _userValue; these will be set before determining escrow price\n        \n\n        //make sure once the erc721 token is unlocked, tokens are destroyed\n        require (_from != tokenizeCore, \"error\");\n        require (_value > 0, \"value must be greater than 0\");\n        //make sure recipient has harberger tax value and duration set\n        require (harbergerSetByUser[_to].initialized == true || _to == tokenizeCore, \"recipient must have harberger tax set\");\n\n        // //if there's a minimumShares, make sure it's enforced by both sender and receiver after the tx\n        // require (super.add(balances[_to], _value) >= minimumShares && (super.sub(balances[_from], _value) >= minimumShares || super.sub(balances[_from], _value) == 0));\n        require (balances[_to] + _value >= minimumShares && (balances[_from] - _value >= minimumShares || balances[_from] - _value == 0));\n        \n        \n        // unless it's initial distribution, let's make sure we pay the _from when we're taking their shares\n        // _to should send _from (how much _from values each share) * (number of shares being taken)\n        //TODO: if you want this to be synchronous, call approveAndCall if implemented on the token contract, then call this function\n        if (_from != address(this)){\n            require (paymentAddressInstance.transferFrom(msg.sender, _from, (harbergerSetByUser[_from].userValue * _value)), \"Payment failed\");\n        }\n\n        // //but they've still gotta pay taxes on any previously held tokens!\n        if(_from != address(this) && escrowedByUser[_from] > 0){\n            accruedTaxes += (_value / balances[_from]) * escrowedByUser[_from] * (now - harbergerSetByUser[_from].userStartTime) / harbergerSetByUser[_from].userDuration;\n            paymentAddressInstance.transfer(_from, (_value / balances[_from]) * escrowedByUser[_from] * (1 - (now - harbergerSetByUser[_from].userStartTime) / harbergerSetByUser[_from].userDuration));\n            escrowedByUser[_from] -= (_value / balances[_from]) * escrowedByUser[_from];\n            harbergerSetByUser[_from].userStartTime = now;\n        }\n\n        // require((super.sub((super.add(harbergerSetByUser[_to].userStartTime, harbergerSetByUser[_to].userDuration)), now)) >= 0);\n        require( harbergerSetByUser[_to].userStartTime + harbergerSetByUser[_to].userDuration - now >= 0);\n        //TODO: whferever possible take this out of the reimbursement and avoid a transfer where possible for efficiency\n        paymentAddressInstance.transferFrom(_to, address(this), taxRate * _value * harbergerSetByUser[_to].userValue * ((harbergerSetByUser[_to].userStartTime + harbergerSetByUser[_to].userDuration - now) / (uint(10) ** decimals)));\n        emit worksChecker(1);\n        return true;\n        accruedTaxes += escrowedByUser[_to] * (now - harbergerSetByUser[_to].userStartTime) / harbergerSetByUser[_to].userDuration;\n        accruedReimbursementByUser[_to] += escrowedByUser[_to] * (1-(now - harbergerSetByUser[_to].userStartTime) / harbergerSetByUser[_to].userDuration);\n        // escrowedByUser[_to] = taxRate * _value * harbergerSetByUser[_to].userValue * ((harbergerSetByUser[_to].userStartTime + harbergerSetByUser[_to].userDuration) - now);\n        // harbergerSetByUser[_to].userDuration -= now - harbergerSetByUser[_to].userStartTime;\n        // harbergerSetByUser[_to].userStartTime = now;      \n            doTransfer(_from, _to, _value);\n            return true;\n    }\n\n    function doTransfer(address _from, address _to, uint256 _value) internal {\n        require((_to != address(0)) && (_to != address(this)));\n        require(_value <= balances[_from]);\n        balances[_from] -= _value;\n        balances [_to] += _value;\n        emit Transfer(_from, _to, _value);\n        emit testTransfer(balances[_to]);\n    }\n\n\n    function withdrawReimbursement(uint amount) public {\n        require(accruedReimbursementByUser[msg.sender] >= amount);\n        accruedReimbursementByUser[msg.sender] -= amount;\n        paymentAddressInstance.transfer(msg.sender, amount);\n    }\n\n    /*\n    * allows this contract to call an arbitrary function on a passed \"driver\" contract\n    * example implementation: \"onlyOwner\" is a smart contract address with a voting\n    * mechanism governed by owners of this contract's erc20 tokens\n    * they can vote on decisions affecting the underlying 721\n    */\n    function execute(bytes memory _logic, address _driver) public onlyOwner{\n        DriverCoreInterface instanceDriverCore = DriverCoreInterface(_driver);\n        instanceDriverCore.executeCall(_logic);\n    }\n\n    //function getDebtByUser(address _user) public view returns(uint){\n    //\treturn escrowedByUser[_user] - (harbergerSetByUser[_user].value * taxRate * balances[_user] * \n    //}\n\n    //TODO: can be used if paymentAddress has approveAndCall\n    //function allowAndTransferFrom(address _from, address _to, uint256 _value, bytes _extraData){\n\n    //}\n\n    function balanceOf(address _owner) view public returns (uint256 balance) {\n        return balances[_owner];\n    }\n\n    // required bc of erc20\n    function approve(address _spender, uint256 _amount) public returns (bool success) {\n        // To change the approve amount you first have to reduce the addresses`\n        //  allowance to zero by calling `approve(_spender,0)` if it is not\n        //  already 0 to mitigate the race condition described here:\n        //  https://github.com/ethereum/EIPs/issues/20#issuecomment-263524729\n        require((_amount == 0) || (allowed[msg.sender][_spender] == 0));\n\n        allowed[msg.sender][_spender] = _amount;\n        emit Approval(msg.sender, _spender, _amount);\n        return true;\n    }\n\n    function withdrawTaxes() public {\n        paymentAddressInstance.transfer(taxAddress, accruedTaxes);\n        accruedTaxes = 0;\n    }\n\n\n    function allowance(address _owner, address _spender) public view returns (uint256 remaining) {\n        return allowed[_owner][_spender];\n    }\n\n\n    function () external {\n    //if ether is sent to this address, send it back.\n    }\n\n    //TODO: function approveAndCall(address _spender, uint256 _value, bytes memory _extraData) public returns (bool success) {\n    //\tallowed[msg.sender][_spender] = _value;\n    //\tApproval(msg.sender, _spender, _value);\n//\n  //      //call the receiveApproval function on the contract you want to be notified. This crafts the function signature manually so one doesn't have to include a contract in here just for this.\n    //    //receiveApproval(address _from, uint256 _value, address _tokenContract, bytes _extraData)\n      //  //it is assumed that when does this that the call *should* succeed, otherwise one would use vanilla approve instead.\n        //if(!_spender.call(bytes4(bytes32(sha3(\"receiveApproval(address,uint256,address,bytes)\"))), msg.sender, _value, this, _extraData)) { revert; }\n        //return true;\n    //}\n\n\n    function unlockToken() public {\n        require (balances[msg.sender] == _totalSupply);\n        transferFrom(msg.sender, tokenizeCore, _totalSupply);\n        TokenizeCoreInterface instanceTokenizeCore = TokenizeCoreInterface(tokenizeCore);\n        instanceTokenizeCore.unlockToken(contractUnderlyingToken.underlyingTokenAddress, contractUnderlyingToken.underlyingTokenId, msg.sender);\n    }\n\n    event Transfer(\n        address indexed _from,\n        address indexed _to,\n        uint256 _amount\n    );\n\n    event Approval(\n    address indexed _owner,\n    address indexed _spender,\n    uint256 _amount\n    );\n\n    event testTransfer(uint256 num);\n\n}\n\n\n\n\n\n\n\n\n\n\n\n",
  "sourcePath": "/Users/anurag/Projects/Antidosis/contracts/asset-tokenization-contract.sol",
  "compiler": {
    "name": "solc",
    "version": "0.5.0+commit.1d4f565a.Emscripten.clang"
  },
  "schemaVersion": "3.0.0",
  "updatedAt": "2019-04-20T16:08:50.538Z",
  "devdoc": {
    "methods": {
      "isOwner()": {
        "return": "true if `msg.sender` is the owner of the contract."
      },
      "owner()": {
        "return": "the address of the owner."
      },
      "renounceOwnership()": {
        "details": "Allows the current owner to relinquish control of the contract."
      },
      "transferOwnership(address)": {
        "details": "Allows the current owner to transfer control of the contract to a newOwner.",
        "params": {
          "newOwner": "The address to transfer ownership to."
        }
      }
    }
  },
  "userdoc": {
    "methods": {
      "renounceOwnership()": {
        "notice": "Renouncing to ownership will leave the contract without an owner. It will not be possible to call the functions with the `onlyOwner` modifier anymore."
      }
    }
  }
}