{
  "contractName": "AssetTokenizationContract",
  "abi": [
    {
      "constant": true,
      "inputs": [],
      "name": "name",
      "outputs": [
        {
          "name": "",
          "type": "string"
        }
      ],
      "payable": false,
      "stateMutability": "view",
      "type": "function"
    },
    {
      "constant": true,
      "inputs": [],
      "name": "totalSupply",
      "outputs": [
        {
          "name": "",
          "type": "uint256"
        }
      ],
      "payable": false,
      "stateMutability": "view",
      "type": "function"
    },
    {
      "constant": true,
      "inputs": [],
      "name": "decimals",
      "outputs": [
        {
          "name": "",
          "type": "uint8"
        }
      ],
      "payable": false,
      "stateMutability": "view",
      "type": "function"
    },
    {
      "constant": false,
      "inputs": [],
      "name": "renounceOwnership",
      "outputs": [],
      "payable": false,
      "stateMutability": "nonpayable",
      "type": "function"
    },
    {
      "constant": true,
      "inputs": [],
      "name": "owner",
      "outputs": [
        {
          "name": "",
          "type": "address"
        }
      ],
      "payable": false,
      "stateMutability": "view",
      "type": "function"
    },
    {
      "constant": true,
      "inputs": [],
      "name": "isOwner",
      "outputs": [
        {
          "name": "",
          "type": "bool"
        }
      ],
      "payable": false,
      "stateMutability": "view",
      "type": "function"
    },
    {
      "constant": true,
      "inputs": [],
      "name": "symbol",
      "outputs": [
        {
          "name": "",
          "type": "string"
        }
      ],
      "payable": false,
      "stateMutability": "view",
      "type": "function"
    },
    {
      "constant": true,
      "inputs": [],
      "name": "contractUnderlyingToken",
      "outputs": [
        {
          "name": "underlyingTokenAddress",
          "type": "address"
        },
        {
          "name": "underlyingTokenId",
          "type": "uint256"
        }
      ],
      "payable": false,
      "stateMutability": "view",
      "type": "function"
    },
    {
      "constant": false,
      "inputs": [
        {
          "name": "newOwner",
          "type": "address"
        }
      ],
      "name": "transferOwnership",
      "outputs": [],
      "payable": false,
      "stateMutability": "nonpayable",
      "type": "function"
    },
    {
      "inputs": [
        {
          "name": "_underlyingTokenAddress",
          "type": "address"
        },
        {
          "name": "_underlyingTokenId",
          "type": "uint256"
        }
      ],
      "payable": false,
      "stateMutability": "nonpayable",
      "type": "constructor"
    },
    {
      "payable": false,
      "stateMutability": "nonpayable",
      "type": "fallback"
    },
    {
      "anonymous": false,
      "inputs": [
        {
          "indexed": true,
          "name": "previousOwner",
          "type": "address"
        },
        {
          "indexed": true,
          "name": "newOwner",
          "type": "address"
        }
      ],
      "name": "OwnershipTransferred",
      "type": "event"
    },
    {
      "constant": false,
      "inputs": [
        {
          "name": "_erc20Name",
          "type": "string"
        },
        {
          "name": "_erc20Symbol",
          "type": "string"
        },
        {
          "name": "_erc20Decimals",
          "type": "uint8"
        }
      ],
      "name": "setERC20",
      "outputs": [],
      "payable": false,
      "stateMutability": "nonpayable",
      "type": "function"
    },
    {
      "constant": false,
      "inputs": [
        {
          "name": "_paymentAddress",
          "type": "address"
        },
        {
          "name": "_taxAddress",
          "type": "address"
        },
        {
          "name": "_minimumShares",
          "type": "uint256"
        }
      ],
      "name": "setMainInfo",
      "outputs": [],
      "payable": false,
      "stateMutability": "nonpayable",
      "type": "function"
    },
    {
      "constant": false,
      "inputs": [
        {
          "name": "_distributionAddress",
          "type": "address"
        },
        {
          "name": "_erc20Supply",
          "type": "uint256"
        },
        {
          "name": "_deploymentData",
          "type": "bytes"
        }
      ],
      "name": "setDistributionInfo",
      "outputs": [],
      "payable": false,
      "stateMutability": "nonpayable",
      "type": "function"
    },
    {
      "constant": false,
      "inputs": [
        {
          "name": "_to",
          "type": "address"
        },
        {
          "name": "_value",
          "type": "uint256"
        }
      ],
      "name": "transfer",
      "outputs": [
        {
          "name": "success",
          "type": "bool"
        }
      ],
      "payable": false,
      "stateMutability": "nonpayable",
      "type": "function"
    },
    {
      "constant": false,
      "inputs": [
        {
          "name": "_from",
          "type": "address"
        },
        {
          "name": "_to",
          "type": "address"
        },
        {
          "name": "_value",
          "type": "uint256"
        }
      ],
      "name": "transferFrom",
      "outputs": [
        {
          "name": "success",
          "type": "bool"
        }
      ],
      "payable": false,
      "stateMutability": "nonpayable",
      "type": "function"
    },
    {
      "constant": true,
      "inputs": [
        {
          "name": "_owner",
          "type": "address"
        }
      ],
      "name": "balanceOf",
      "outputs": [
        {
          "name": "balance",
          "type": "uint256"
        }
      ],
      "payable": false,
      "stateMutability": "view",
      "type": "function"
    },
    {
      "constant": true,
      "inputs": [
        {
          "name": "_owner",
          "type": "address"
        },
        {
          "name": "_spender",
          "type": "address"
        }
      ],
      "name": "allowance",
      "outputs": [
        {
          "name": "remaining",
          "type": "uint256"
        }
      ],
      "payable": false,
      "stateMutability": "view",
      "type": "function"
    },
    {
      "constant": false,
      "inputs": [
        {
          "name": "_userValue",
          "type": "uint256"
        },
        {
          "name": "_userDuration",
          "type": "uint256"
        }
      ],
      "name": "setHarberger",
      "outputs": [],
      "payable": false,
      "stateMutability": "nonpayable",
      "type": "function"
    },
    {
      "constant": false,
      "inputs": [],
      "name": "unlockToken",
      "outputs": [],
      "payable": false,
      "stateMutability": "nonpayable",
      "type": "function"
    }
  ],
  "bytecode": "0x60806040526000600c556000600d556000600f5534801561001f57600080fd5b5060405160408061297a8339810180604052604081101561003f57600080fd5b810190808051906020019092919080519060200190929190505050336000806101000a81548173ffffffffffffffffffffffffffffffffffffffff021916908373ffffffffffffffffffffffffffffffffffffffff1602179055506000809054906101000a900473ffffffffffffffffffffffffffffffffffffffff1673ffffffffffffffffffffffffffffffffffffffff16600073ffffffffffffffffffffffffffffffffffffffff167f8be0079c531659141344cd1fd0a4f28419497f9722a3daafe3b4186f6b6457e060405160405180910390a333600560006101000a81548173ffffffffffffffffffffffffffffffffffffffff021916908373ffffffffffffffffffffffffffffffffffffffff16021790555081600160000160006101000a81548173ffffffffffffffffffffffffffffffffffffffff021916908373ffffffffffffffffffffffffffffffffffffffff16021790555080600180018190555050506127c5806101b56000396000f3fe6080604052600436106100fc576000357c0100000000000000000000000000000000000000000000000000000000900463ffffffff16806306fdde031461010b57806318160ddd1461019b57806318a24b5b146101c657806323b872dd146101dd578063313ce5671461027057806370a08231146102a1578063715018a6146103065780638b66b27e1461031d5780638da5cb5b146103625780638f32d59b146103b957806395d89b41146103e8578063a9059cbb14610478578063bcdea4f2146104eb578063d590eb3214610549578063dd62ed3e1461063b578063eaf68512146106c0578063f2fde38b1461082c578063ff21bba81461087d575b34801561010857600080fd5b50005b34801561011757600080fd5b506101206108f8565b6040518080602001828103825283818151815260200191508051906020019080838360005b83811015610160578082015181840152602081019050610145565b50505050905090810190601f16801561018d5780820380516001836020036101000a031916815260200191505b509250505060405180910390f35b3480156101a757600080fd5b506101b0610996565b6040518082815260200191505060405180910390f35b3480156101d257600080fd5b506101db61099c565b005b3480156101e957600080fd5b506102566004803603606081101561020057600080fd5b81019080803573ffffffffffffffffffffffffffffffffffffffff169060200190929190803573ffffffffffffffffffffffffffffffffffffffff16906020019092919080359060200190929190505050610b5d565b604051808215151515815260200191505060405180910390f35b34801561027c57600080fd5b50610285611b82565b604051808260ff1660ff16815260200191505060405180910390f35b3480156102ad57600080fd5b506102f0600480360360208110156102c457600080fd5b81019080803573ffffffffffffffffffffffffffffffffffffffff169060200190929190505050611b95565b6040518082815260200191505060405180910390f35b34801561031257600080fd5b5061031b611bde565b005b34801561032957600080fd5b506103606004803603604081101561034057600080fd5b810190808035906020019092919080359060200190929190505050611cb0565b005b34801561036e57600080fd5b50610377611e12565b604051808273ffffffffffffffffffffffffffffffffffffffff1673ffffffffffffffffffffffffffffffffffffffff16815260200191505060405180910390f35b3480156103c557600080fd5b506103ce611e3b565b604051808215151515815260200191505060405180910390f35b3480156103f457600080fd5b506103fd611e92565b6040518080602001828103825283818151815260200191508051906020019080838360005b8381101561043d578082015181840152602081019050610422565b50505050905090810190601f16801561046a5780820380516001836020036101000a031916815260200191505b509250505060405180910390f35b34801561048457600080fd5b506104d16004803603604081101561049b57600080fd5b81019080803573ffffffffffffffffffffffffffffffffffffffff16906020019092919080359060200190929190505050611f30565b604051808215151515815260200191505060405180910390f35b3480156104f757600080fd5b5061050061219f565b604051808373ffffffffffffffffffffffffffffffffffffffff1673ffffffffffffffffffffffffffffffffffffffff1681526020018281526020019250505060405180910390f35b34801561055557600080fd5b506106396004803603606081101561056c57600080fd5b81019080803573ffffffffffffffffffffffffffffffffffffffff16906020019092919080359060200190929190803590602001906401000000008111156105b357600080fd5b8201836020820111156105c557600080fd5b803590602001918460018302840111640100000000831117156105e757600080fd5b91908080601f016020809104026020016040519081016040528093929190818152602001838380828437600081840152601f19601f8201169050808301925050505050505091929192905050506121d1565b005b34801561064757600080fd5b506106aa6004803603604081101561065e57600080fd5b81019080803573ffffffffffffffffffffffffffffffffffffffff169060200190929190803573ffffffffffffffffffffffffffffffffffffffff1690602001909291905050506123d9565b6040518082815260200191505060405180910390f35b3480156106cc57600080fd5b5061082a600480360360608110156106e357600080fd5b810190808035906020019064010000000081111561070057600080fd5b82018360208201111561071257600080fd5b8035906020019184600183028401116401000000008311171561073457600080fd5b91908080601f016020809104026020016040519081016040528093929190818152602001838380828437600081840152601f19601f8201169050808301925050505050505091929192908035906020019064010000000081111561079757600080fd5b8201836020820111156107a957600080fd5b803590602001918460018302840111640100000000831117156107cb57600080fd5b91908080601f016020809104026020016040519081016040528093929190818152602001838380828437600081840152601f19601f820116905080830192505050505050509192919290803560ff169060200190929190505050612460565b005b34801561083857600080fd5b5061087b6004803603602081101561084f57600080fd5b81019080803573ffffffffffffffffffffffffffffffffffffffff1690602001909291905050506124ae565b005b34801561088957600080fd5b506108f6600480360360608110156108a057600080fd5b81019080803573ffffffffffffffffffffffffffffffffffffffff169060200190929190803573ffffffffffffffffffffffffffffffffffffffff169060200190929190803590602001909291905050506124cd565b005b60088054600181600116156101000203166002900480601f01602080910402602001604051908101604052809291908181526020018280546001816001161561010002031660029004801561098e5780601f106109635761010080835404028352916020019161098e565b820191906000526020600020905b81548152906001019060200180831161097157829003601f168201915b505050505081565b60075481565b600754601060003373ffffffffffffffffffffffffffffffffffffffff1673ffffffffffffffffffffffffffffffffffffffff168152602001908152602001600020541415156109eb57600080fd5b610a1a33600560009054906101000a900473ffffffffffffffffffffffffffffffffffffffff16600754610b5d565b506000600560009054906101000a900473ffffffffffffffffffffffffffffffffffffffff1690508073ffffffffffffffffffffffffffffffffffffffff16635a9c78ab600160000160009054906101000a900473ffffffffffffffffffffffffffffffffffffffff166001800154336040518463ffffffff167c0100000000000000000000000000000000000000000000000000000000028152600401808473ffffffffffffffffffffffffffffffffffffffff1673ffffffffffffffffffffffffffffffffffffffff1681526020018381526020018273ffffffffffffffffffffffffffffffffffffffff1673ffffffffffffffffffffffffffffffffffffffff1681526020019350505050600060405180830381600087803b158015610b4257600080fd5b505af1158015610b56573d6000803e3d6000fd5b5050505050565b6000600160000160009054906101000a900473ffffffffffffffffffffffffffffffffffffffff1673ffffffffffffffffffffffffffffffffffffffff168473ffffffffffffffffffffffffffffffffffffffff1614151515610bbf57600080fd5b600e5482601060008673ffffffffffffffffffffffffffffffffffffffff1673ffffffffffffffffffffffffffffffffffffffff168152602001908152602001600020540110158015610ca15750600e5482601060008773ffffffffffffffffffffffffffffffffffffffff1673ffffffffffffffffffffffffffffffffffffffff1681526020019081526020016000205403101580610ca05750600082601060008773ffffffffffffffffffffffffffffffffffffffff1673ffffffffffffffffffffffffffffffffffffffff1681526020019081526020016000205403145b5b1515610cac57600080fd5b60011515601260008573ffffffffffffffffffffffffffffffffffffffff1673ffffffffffffffffffffffffffffffffffffffff16815260200190815260200160002060030160009054906101000a900460ff1615151480610d5e5750600160000160009054906101000a900473ffffffffffffffffffffffffffffffffffffffff1673ffffffffffffffffffffffffffffffffffffffff168373ffffffffffffffffffffffffffffffffffffffff16145b1515610d6957600080fd5b6000600460009054906101000a900473ffffffffffffffffffffffffffffffffffffffff1690503073ffffffffffffffffffffffffffffffffffffffff163373ffffffffffffffffffffffffffffffffffffffff1614158015610e1a5750600360009054906101000a900473ffffffffffffffffffffffffffffffffffffffff1673ffffffffffffffffffffffffffffffffffffffff163373ffffffffffffffffffffffffffffffffffffffff1614155b15610f81578073ffffffffffffffffffffffffffffffffffffffff166323b872dd858786601260008b73ffffffffffffffffffffffffffffffffffffffff1673ffffffffffffffffffffffffffffffffffffffff16815260200190815260200160002060000154026040518463ffffffff167c0100000000000000000000000000000000000000000000000000000000028152600401808473ffffffffffffffffffffffffffffffffffffffff1673ffffffffffffffffffffffffffffffffffffffff1681526020018373ffffffffffffffffffffffffffffffffffffffff1673ffffffffffffffffffffffffffffffffffffffff1681526020018281526020019350505050602060405180830381600087803b158015610f3a57600080fd5b505af1158015610f4e573d6000803e3d6000fd5b505050506040513d6020811015610f6457600080fd5b81019080805190602001909291905050501515610f8057600080fd5b5b6000601060008773ffffffffffffffffffffffffffffffffffffffff1673ffffffffffffffffffffffffffffffffffffffff1681526020019081526020016000205484811515610fcd57fe5b04600b54601260008973ffffffffffffffffffffffffffffffffffffffff1673ffffffffffffffffffffffffffffffffffffffff16815260200190815260200160002060000154601260008a73ffffffffffffffffffffffffffffffffffffffff1673ffffffffffffffffffffffffffffffffffffffff16815260200190815260200160002060020154420302020290508173ffffffffffffffffffffffffffffffffffffffff166323b872dd30600660009054906101000a900473ffffffffffffffffffffffffffffffffffffffff16846040518463ffffffff167c0100000000000000000000000000000000000000000000000000000000028152600401808473ffffffffffffffffffffffffffffffffffffffff1673ffffffffffffffffffffffffffffffffffffffff1681526020018373ffffffffffffffffffffffffffffffffffffffff1673ffffffffffffffffffffffffffffffffffffffff1681526020018281526020019350505050602060405180830381600087803b15801561115757600080fd5b505af115801561116b573d6000803e3d6000fd5b505050506040513d602081101561118157600080fd5b8101908080519060200190929190505050506000601060008873ffffffffffffffffffffffffffffffffffffffff1673ffffffffffffffffffffffffffffffffffffffff16815260200190815260200160002054858115156111df57fe5b04600b54601260008a73ffffffffffffffffffffffffffffffffffffffff1673ffffffffffffffffffffffffffffffffffffffff1681526020019081526020016000206000015442601260008c73ffffffffffffffffffffffffffffffffffffffff1673ffffffffffffffffffffffffffffffffffffffff16815260200190815260200160002060010154601260008d73ffffffffffffffffffffffffffffffffffffffff1673ffffffffffffffffffffffffffffffffffffffff16815260200190815260200160002060020154010302020290508273ffffffffffffffffffffffffffffffffffffffff166323b872dd3089846040518463ffffffff167c0100000000000000000000000000000000000000000000000000000000028152600401808473ffffffffffffffffffffffffffffffffffffffff1673ffffffffffffffffffffffffffffffffffffffff1681526020018373ffffffffffffffffffffffffffffffffffffffff1673ffffffffffffffffffffffffffffffffffffffff1681526020018281526020019350505050602060405180830381600087803b15801561138b57600080fd5b505af115801561139f573d6000803e3d6000fd5b505050506040513d60208110156113b557600080fd5b8101908080519060200190929190505050506000601360008873ffffffffffffffffffffffffffffffffffffffff1673ffffffffffffffffffffffffffffffffffffffff1681526020019081526020016000205411156117c0576000600b54601260008973ffffffffffffffffffffffffffffffffffffffff1673ffffffffffffffffffffffffffffffffffffffff16815260200190815260200160002060000154601260008a73ffffffffffffffffffffffffffffffffffffffff1673ffffffffffffffffffffffffffffffffffffffff168152602001908152602001600020600201544203020290508373ffffffffffffffffffffffffffffffffffffffff166323b872dd30600660009054906101000a900473ffffffffffffffffffffffffffffffffffffffff16846040518463ffffffff167c0100000000000000000000000000000000000000000000000000000000028152600401808473ffffffffffffffffffffffffffffffffffffffff1673ffffffffffffffffffffffffffffffffffffffff1681526020018373ffffffffffffffffffffffffffffffffffffffff1673ffffffffffffffffffffffffffffffffffffffff1681526020018281526020019350505050602060405180830381600087803b15801561159957600080fd5b505af11580156115ad573d6000803e3d6000fd5b505050506040513d60208110156115c357600080fd5b8101908080519060200190929190505050506000600b54601260008a73ffffffffffffffffffffffffffffffffffffffff1673ffffffffffffffffffffffffffffffffffffffff1681526020019081526020016000206000015442601260008c73ffffffffffffffffffffffffffffffffffffffff1673ffffffffffffffffffffffffffffffffffffffff16815260200190815260200160002060010154601260008d73ffffffffffffffffffffffffffffffffffffffff1673ffffffffffffffffffffffffffffffffffffffff168152602001908152602001600020600201540103020290508473ffffffffffffffffffffffffffffffffffffffff166323b872dd308a846040518463ffffffff167c0100000000000000000000000000000000000000000000000000000000028152600401808473ffffffffffffffffffffffffffffffffffffffff1673ffffffffffffffffffffffffffffffffffffffff1681526020018373ffffffffffffffffffffffffffffffffffffffff1673ffffffffffffffffffffffffffffffffffffffff1681526020018281526020019350505050602060405180830381600087803b15801561178157600080fd5b505af1158015611795573d6000803e3d6000fd5b505050506040513d60208110156117ab57600080fd5b81019080805190602001909291905050505050505b8273ffffffffffffffffffffffffffffffffffffffff166323b872dd873088601260008c73ffffffffffffffffffffffffffffffffffffffff1673ffffffffffffffffffffffffffffffffffffffff16815260200190815260200160002060010154601260008d73ffffffffffffffffffffffffffffffffffffffff1673ffffffffffffffffffffffffffffffffffffffff1681526020019081526020016000206000015402026040518463ffffffff167c0100000000000000000000000000000000000000000000000000000000028152600401808473ffffffffffffffffffffffffffffffffffffffff1673ffffffffffffffffffffffffffffffffffffffff1681526020018373ffffffffffffffffffffffffffffffffffffffff1673ffffffffffffffffffffffffffffffffffffffff1681526020018281526020019350505050602060405180830381600087803b15801561191f57600080fd5b505af1158015611933573d6000803e3d6000fd5b505050506040513d602081101561194957600080fd5b81019080805190602001909291905050505084601260008873ffffffffffffffffffffffffffffffffffffffff1673ffffffffffffffffffffffffffffffffffffffff16815260200190815260200160002060010154601260008973ffffffffffffffffffffffffffffffffffffffff1673ffffffffffffffffffffffffffffffffffffffff168152602001908152602001600020600001540202601360008873ffffffffffffffffffffffffffffffffffffffff1673ffffffffffffffffffffffffffffffffffffffff1681526020019081526020016000208190555042601260008873ffffffffffffffffffffffffffffffffffffffff1673ffffffffffffffffffffffffffffffffffffffff1681526020019081526020016000206002018190555084601060008973ffffffffffffffffffffffffffffffffffffffff1673ffffffffffffffffffffffffffffffffffffffff1681526020019081526020016000205410158015611abd5750600085115b15611b735784601060008873ffffffffffffffffffffffffffffffffffffffff1673ffffffffffffffffffffffffffffffffffffffff1681526020019081526020016000206000828254019250508190555084601060008973ffffffffffffffffffffffffffffffffffffffff1673ffffffffffffffffffffffffffffffffffffffff16815260200190815260200160002060008282540392505081905550611b6787878761255b565b60019350505050611b7b565b600093505050505b9392505050565b600a60009054906101000a900460ff1681565b6000601060008373ffffffffffffffffffffffffffffffffffffffff1673ffffffffffffffffffffffffffffffffffffffff168152602001908152602001600020549050919050565b611be6611e3b565b1515611bf157600080fd5b600073ffffffffffffffffffffffffffffffffffffffff166000809054906101000a900473ffffffffffffffffffffffffffffffffffffffff1673ffffffffffffffffffffffffffffffffffffffff167f8be0079c531659141344cd1fd0a4f28419497f9722a3daafe3b4186f6b6457e060405160405180910390a360008060006101000a81548173ffffffffffffffffffffffffffffffffffffffff021916908373ffffffffffffffffffffffffffffffffffffffff160217905550565b60008214151515611cc057600080fd5b60008114151515611cd057600080fd5b60001515601260003373ffffffffffffffffffffffffffffffffffffffff1673ffffffffffffffffffffffffffffffffffffffff16815260200190815260200160002060030160009054906101000a900460ff1615151415611d805760011515601260003373ffffffffffffffffffffffffffffffffffffffff1673ffffffffffffffffffffffffffffffffffffffff16815260200190815260200160002060030160009054906101000a905050505b81601260003373ffffffffffffffffffffffffffffffffffffffff1673ffffffffffffffffffffffffffffffffffffffff1681526020019081526020016000206000018190555080601260003373ffffffffffffffffffffffffffffffffffffffff1673ffffffffffffffffffffffffffffffffffffffff168152602001908152602001600020600101819055505050565b60008060009054906101000a900473ffffffffffffffffffffffffffffffffffffffff16905090565b60008060009054906101000a900473ffffffffffffffffffffffffffffffffffffffff1673ffffffffffffffffffffffffffffffffffffffff163373ffffffffffffffffffffffffffffffffffffffff1614905090565b60098054600181600116156101000203166002900480601f016020809104026020016040519081016040528092919081815260200182805460018160011615610100020316600290048015611f285780601f10611efd57610100808354040283529160200191611f28565b820191906000526020600020905b815481529060010190602001808311611f0b57829003601f168201915b505050505081565b6000600560009054906101000a900473ffffffffffffffffffffffffffffffffffffffff1673ffffffffffffffffffffffffffffffffffffffff163373ffffffffffffffffffffffffffffffffffffffff1614151515611f8f57600080fd5b600e5482601060008673ffffffffffffffffffffffffffffffffffffffff1673ffffffffffffffffffffffffffffffffffffffff1681526020019081526020016000205401101580156120255750600e5482601060003373ffffffffffffffffffffffffffffffffffffffff1673ffffffffffffffffffffffffffffffffffffffff168152602001908152602001600020540310155b151561203057600080fd5b60011515601260008573ffffffffffffffffffffffffffffffffffffffff1673ffffffffffffffffffffffffffffffffffffffff16815260200190815260200160002060030160009054906101000a900460ff16151514151561209257600080fd5b81601060003373ffffffffffffffffffffffffffffffffffffffff1673ffffffffffffffffffffffffffffffffffffffff16815260200190815260200160002054101580156120e15750600082115b156121945781601060003373ffffffffffffffffffffffffffffffffffffffff1673ffffffffffffffffffffffffffffffffffffffff1681526020019081526020016000206000828254039250508190555081601060008573ffffffffffffffffffffffffffffffffffffffff1673ffffffffffffffffffffffffffffffffffffffff1681526020019081526020016000206000828254019250508190555061218b33848461255b565b60019050612199565b600090505b92915050565b60018060000160009054906101000a900473ffffffffffffffffffffffffffffffffffffffff16908060010154905082565b6000600f541415156121e257600080fd5b8160078190555081601060008573ffffffffffffffffffffffffffffffffffffffff1673ffffffffffffffffffffffffffffffffffffffff1681526020019081526020016000208190555082600360006101000a81548173ffffffffffffffffffffffffffffffffffffffff021916908373ffffffffffffffffffffffffffffffffffffffff16021790555060008390508073ffffffffffffffffffffffffffffffffffffffff16639026068230600754856040518463ffffffff167c0100000000000000000000000000000000000000000000000000000000028152600401808473ffffffffffffffffffffffffffffffffffffffff1673ffffffffffffffffffffffffffffffffffffffff16815260200183815260200180602001828103825283818151815260200191508051906020019080838360005b8381101561233757808201518184015260208101905061231c565b50505050905090810190601f1680156123645780820380516001836020036101000a031916815260200191505b50945050505050602060405180830381600087803b15801561238557600080fd5b505af1158015612399573d6000803e3d6000fd5b505050506040513d60208110156123af57600080fd5b810190808051906020019092919050505050600f6000815480929190600101919050555050505050565b6000601160008473ffffffffffffffffffffffffffffffffffffffff1673ffffffffffffffffffffffffffffffffffffffff16815260200190815260200160002060008373ffffffffffffffffffffffffffffffffffffffff1673ffffffffffffffffffffffffffffffffffffffff16815260200190815260200160002054905092915050565b82600890805190602001906124769291906126f4565b50816009908051906020019061248d9291906126f4565b5080600a60006101000a81548160ff021916908360ff160217905550505050565b6124b6611e3b565b15156124c157600080fd5b6124ca816125fa565b50565b82600460006101000a81548173ffffffffffffffffffffffffffffffffffffffff021916908373ffffffffffffffffffffffffffffffffffffffff16021790555081600660006101000a81548173ffffffffffffffffffffffffffffffffffffffff021916908373ffffffffffffffffffffffffffffffffffffffff16021790555080600e81905550505050565b80601060008573ffffffffffffffffffffffffffffffffffffffff1673ffffffffffffffffffffffffffffffffffffffff1681526020019081526020016000206000828254039250508190555080601060008473ffffffffffffffffffffffffffffffffffffffff1673ffffffffffffffffffffffffffffffffffffffff16815260200190815260200160002060008282540192505081905550505050565b600073ffffffffffffffffffffffffffffffffffffffff168173ffffffffffffffffffffffffffffffffffffffff161415151561263657600080fd5b8073ffffffffffffffffffffffffffffffffffffffff166000809054906101000a900473ffffffffffffffffffffffffffffffffffffffff1673ffffffffffffffffffffffffffffffffffffffff167f8be0079c531659141344cd1fd0a4f28419497f9722a3daafe3b4186f6b6457e060405160405180910390a3806000806101000a81548173ffffffffffffffffffffffffffffffffffffffff021916908373ffffffffffffffffffffffffffffffffffffffff16021790555050565b828054600181600116156101000203166002900490600052602060002090601f016020900481019282601f1061273557805160ff1916838001178555612763565b82800160010185558215612763579182015b82811115612762578251825591602001919060010190612747565b5b5090506127709190612774565b5090565b61279691905b8082111561279257600081600090555060010161277a565b5090565b9056fea165627a7a72305820c6ed778a4928529b21bfcaec19d582455a141a052c08299cbd41620b6a6ccc9f0029",
  "source": "pragma solidity ^0.5.0;\nimport 'openzeppelin-solidity/contracts/token/ERC20/ERC20.sol';\nimport 'openzeppelin-solidity/contracts/ownership/Ownable.sol';\nimport \"./deployment-core.sol\";\nimport \"./tokenize-core.sol\";\n\n//todo:\n//add eip 161 support\n//check consistency of requiring payment denominated in payment address\n// set up distribution scheme\n// set up all necessary interfaces and stuff\n// set up duration logic\n//set up taxing logic/requirements/penalties\n//enforce appropriate permissioning for everything\n//add taxAddress all the way through\n\n\n//long term todo (nice-to-haves):\n//allow the option of using eth instead of wrapped eth for underlying value\n\ncontract AssetTokenizationContract is Ownable {\n\n\t//contract variables\n\t//the ERC721 token locked to create the shares denominated in this ERC20 token\n\tUnderlyingToken public contractUnderlyingToken;\n\t// the address that contains deployment logic for the initial distribution of tokens\n\taddress distributionAddress;\n\t// the token in which payments for shares are to be made\n\taddress paymentAddress;\n\taddress tokenizeCore;\n\taddress taxAddress;\n\n\n\tuint256 public totalSupply;\n\tstring public name;\n\tstring public symbol;\n\tuint8 public decimals;\n\tuint taxRate;\n\tuint defaultValue = 0;\n\tuint defaultDuration = 0;\n\tuint minimumShares;\n\tuint distributionFlag = 0;\n\n\t//structs\n\tstruct UnderlyingToken{\n\t\taddress underlyingTokenAddress;\n\t\tuint underlyingTokenId;\n\t}\n\n\n\tstruct HarbergerSet{\n\t\t// denominated in paymentAddress - i.e. .5 = .5 shares per Dai\n\t\tuint userValue;\n\t\t//duration in seconds\n\t\tuint userDuration;\n\t\tuint userStartTime;\n\t\tbool initialized;\n\t}\n\n\n\t//mappings\n\tmapping (address => uint256) balances;\n    mapping (address => mapping (address => uint256)) allowed;\n    mapping (address => HarbergerSet) harbergerSetByUser;\n    mapping (address => uint) escrowedByUser;\n\n\tconstructor (\n\t\taddress _underlyingTokenAddress, \n\t\tuint _underlyingTokenId) public\n\t{\n\t\ttokenizeCore = msg.sender;\n\t\tcontractUnderlyingToken.underlyingTokenAddress = _underlyingTokenAddress;\n\t\tcontractUnderlyingToken.underlyingTokenId = _underlyingTokenId;\n\n\t}\n\n\tfunction setERC20(string memory _erc20Name, string memory _erc20Symbol, uint8 _erc20Decimals) public {\n\t\tname = _erc20Name;\n\t\tsymbol = _erc20Symbol;\n\t\tdecimals = _erc20Decimals;\n\t}\n\n\tfunction setMainInfo(address _paymentAddress, address _taxAddress, uint _minimumShares) public {\n\n\t\tpaymentAddress = _paymentAddress;\n\t\ttaxAddress = _taxAddress;\n\t\tminimumShares = _minimumShares;\n\t}\n\n\tfunction setDistributionInfo(address _distributionAddress, uint256 _erc20Supply, bytes memory _deploymentData) public {\n\t\trequire(distributionFlag == 0);\n\t\ttotalSupply = _erc20Supply;\n\t\tbalances[_distributionAddress] = _erc20Supply;\n\t\t// set distribution address\n\t\tdistributionAddress = _distributionAddress;\n\t\t//distribute initially\n\t\tDeploymentCore instanceDeploymentCore = DeploymentCore(_distributionAddress);\n\t\tinstanceDeploymentCore.onReceipt(address(this), totalSupply, _deploymentData);\n\t\tdistributionFlag++;\n\t}\n\n\t//function setUnderlying()\n\n\n\n\tfunction transfer(address _to, uint256 _value) public returns (bool success) {\n        // makes sure that once the underlying asset is unlocked, the tokens are destroyed\n        require (msg.sender != tokenizeCore);\n        require (balances[_to] + _value >= minimumShares && balances[msg.sender] - _value >= minimumShares);\n        require (harbergerSetByUser[_to].initialized == true);\n        if (balances[msg.sender] >= _value && _value > 0) {\n            balances[msg.sender] -= _value;\n            balances[_to] += _value;\n            Transfer(msg.sender, _to, _value);\n            return true;\n        } else { return false; }\n    }\n\n    function Transfer(address _from, address _to, uint256 _value) internal {\n    \tbalances[_from] -= _value;\n    \tbalances [_to] += _value;\n    }\n\n    function transferFrom(address _from, address _to, uint256 _value) public returns (bool success) {\n    \t//todo offer a version of this function where recipient can change their duration/value within the function call\n    \t// will be same params + uint _userDuration, uint _userValue; these will be set before determining escrow price\n    \t//make sure once the erc721 token is unlocked, tokens are destroyed\n    \trequire (_from != contractUnderlyingToken.underlyingTokenAddress);\n    \t//if there's a minimumShares, make sure it's enforced by both sender and receiver after the tx\n    \trequire (balances[_to] + _value >= minimumShares && (balances[_from] - _value >= minimumShares || balances[_from] - _value == 0));\n        //make sure recipient has harbernger tax value and duration set\n        require (harbergerSetByUser[_to].initialized == true || _to == contractUnderlyingToken.underlyingTokenAddress);\n        ERC20 paymentAddressInstance = ERC20(paymentAddress);\n        \n        // unless it's initial distribution, let's make sure we pay the _from when we're taking their shares\n        // _to should send _from (how much _from values each share) * (number of shares being taken)\n        if (msg.sender != address(this) && msg.sender != distributionAddress){\n        \trequire (paymentAddressInstance.transferFrom(_to, _from, (harbergerSetByUser[_from].userValue * _value)));\n        }\n\n        //but they've still gotta pay taxes on any previously held tokens!\n        uint _senderDebt;\n        _senderDebt = (now - harbergerSetByUser[_from].userStartTime) * harbergerSetByUser[_from].userValue * taxRate * (_value/balances[_from]); \n        //toconsider - instead of paying out the taxes, consider adding them to a state variable and paying it all out at once; \n        //changes the economics of it though, so need to think through this\n        paymentAddressInstance.transferFrom(address(this), taxAddress, _senderDebt);\n\n        //now, whoever is having shares taken from them needs to be reimbursed whatever's untaxed from their original escrow\n        uint _senderReimbursement;\n        _senderReimbursement = (harbergerSetByUser[_from].userStartTime + harbergerSetByUser[_from].userDuration - now) * harbergerSetByUser[_from].userValue * taxRate * (_value/balances[_from]);\n        paymentAddressInstance.transferFrom(address(this), _from, _senderReimbursement);\n\n        //let's clear out the recipient's escrow as well, so we can reset their userStartTime and make them a new escrow\n        if (escrowedByUser[_to] > 0){\n\n        \tuint _recipientDebt;\n        \t_recipientDebt = (now - harbergerSetByUser[_to].userStartTime) * harbergerSetByUser[_to].userValue * taxRate; \n        \t//toconsider - instead of paying out the taxes, consider adding them to a state variable and paying it all out at once; \n        \t//changes the economics of it though, so need to think through this\n        \tpaymentAddressInstance.transferFrom(address(this), taxAddress, _recipientDebt);\n\n\n        \tuint _recipientReimbursement;\n        \t_recipientReimbursement = (harbergerSetByUser[_to].userStartTime + harbergerSetByUser[_to].userDuration - now) * harbergerSetByUser[_to].userValue * taxRate;\n        \tpaymentAddressInstance.transferFrom(address(this), _to, _recipientReimbursement);\n    \t}\n\n        //recipient now needs to escrow, so one day they can pay taxes and get reimbursed and all that fun stuff\n        paymentAddressInstance.transferFrom(_to, address(this), harbergerSetByUser[_to].userValue * harbergerSetByUser[_to].userDuration * _value);\n        escrowedByUser[_to] = harbergerSetByUser[_to].userValue * harbergerSetByUser[_to].userDuration * _value;\n\t\tharbergerSetByUser[_to].userStartTime = now;\n        \n        if (balances[_from] >= _value && _value > 0) {\n            balances[_to] += _value;\n            balances[_from] -= _value;\n            Transfer(_from, _to, _value);\n            return true;\n        } else { return false; }\n    }\n\n    //function getDebtByUser(address _user) public view returns(uint){\n    //\treturn escrowedByUser[_user] - (harbergerSetByUser[_user].value * taxRate * balances[_user] * \n    //}\n\n    //can be used if paymentAddress has approveAndCall\n    //function allowAndTransferFrom(address _from, address _to, uint256 _value, bytes _extraData){\n\n    //}\n\n    function balanceOf(address _owner) view public returns (uint256 balance) {\n        return balances[_owner];\n    }\n\n    // function approve(address _spender, uint256 _value) public returns (bool success) {\n       // allowed[msg.sender][_spender] = _value;\n       // Approval(msg.sender, _spender, _value);\n       // return true;\n    //}\n\n\n\n    function allowance(address _owner, address _spender) view public returns (uint256 remaining) {\n      \treturn allowed[_owner][_spender];\n    }\n\n\n    function () external {\n    //if ether is sent to this address, send it back.\n  \n    }\n\n    //function approveAndCall(address _spender, uint256 _value, bytes memory _extraData) public returns (bool success) {\n    //\tallowed[msg.sender][_spender] = _value;\n    //\tApproval(msg.sender, _spender, _value);\n//\n  //      //call the receiveApproval function on the contract you want to be notified. This crafts the function signature manually so one doesn't have to include a contract in here just for this.\n    //    //receiveApproval(address _from, uint256 _value, address _tokenContract, bytes _extraData)\n      //  //it is assumed that when does this that the call *should* succeed, otherwise one would use vanilla approve instead.\n        //if(!_spender.call(bytes4(bytes32(sha3(\"receiveApproval(address,uint256,address,bytes)\"))), msg.sender, _value, this, _extraData)) { revert; }\n        //return true;\n    //}\n\n   \tfunction setHarberger (uint _userValue, uint _userDuration) public {\n\t\trequire (_userValue != 0);\n\t\trequire (_userDuration != 0);\n\n\t\tif(harbergerSetByUser[msg.sender].initialized == false){\n\t\t\tharbergerSetByUser[msg.sender].initialized == true;\n\t\t}\n\t\tharbergerSetByUser[msg.sender].userValue = _userValue;\n\t\tharbergerSetByUser[msg.sender].userDuration = _userDuration;\n\t\t// set user start time\n\t}\n\n\tfunction unlockToken() public {\n\t\trequire (balances[msg.sender] == totalSupply);\n\t\ttransferFrom(msg.sender, tokenizeCore, totalSupply);\n\t\tTokenizeCore instanceTokenizeCore = TokenizeCore(tokenizeCore);\n\t\tinstanceTokenizeCore.unlockToken(contractUnderlyingToken.underlyingTokenAddress, contractUnderlyingToken.underlyingTokenId, msg.sender);\n\t}\n\n}\n\n\n\n\n\n\n\n\n\n\n\n",
  "sourcePath": "/Users/anurag/Projects/tokenize-that/contracts/asset-tokenization-contract.sol",
  "compiler": {
    "name": "solc",
    "version": "0.5.0+commit.1d4f565a.Emscripten.clang"
  },
  "schemaVersion": "3.0.0",
  "updatedAt": "2019-01-28T05:31:03.160Z",
  "devdoc": {
    "methods": {
      "isOwner()": {
        "return": "true if `msg.sender` is the owner of the contract."
      },
      "owner()": {
        "return": "the address of the owner."
      },
      "renounceOwnership()": {
        "details": "Allows the current owner to relinquish control of the contract."
      },
      "transferOwnership(address)": {
        "details": "Allows the current owner to transfer control of the contract to a newOwner.",
        "params": {
          "newOwner": "The address to transfer ownership to."
        }
      }
    }
  },
  "userdoc": {
    "methods": {
      "renounceOwnership()": {
        "notice": "Renouncing to ownership will leave the contract without an owner. It will not be possible to call the functions with the `onlyOwner` modifier anymore."
      }
    }
  }
}