{
  "contractName": "AssetTokenizationContract",
  "abi": [
    {
      "constant": true,
      "inputs": [],
      "name": "name",
      "outputs": [
        {
          "name": "",
          "type": "string"
        }
      ],
      "payable": false,
      "stateMutability": "view",
      "type": "function"
    },
    {
      "constant": true,
      "inputs": [],
      "name": "totalSupply",
      "outputs": [
        {
          "name": "",
          "type": "uint256"
        }
      ],
      "payable": false,
      "stateMutability": "view",
      "type": "function"
    },
    {
      "constant": true,
      "inputs": [],
      "name": "decimals",
      "outputs": [
        {
          "name": "",
          "type": "uint8"
        }
      ],
      "payable": false,
      "stateMutability": "view",
      "type": "function"
    },
    {
      "constant": false,
      "inputs": [],
      "name": "renounceOwnership",
      "outputs": [],
      "payable": false,
      "stateMutability": "nonpayable",
      "type": "function"
    },
    {
      "constant": true,
      "inputs": [],
      "name": "owner",
      "outputs": [
        {
          "name": "",
          "type": "address"
        }
      ],
      "payable": false,
      "stateMutability": "view",
      "type": "function"
    },
    {
      "constant": true,
      "inputs": [],
      "name": "isOwner",
      "outputs": [
        {
          "name": "",
          "type": "bool"
        }
      ],
      "payable": false,
      "stateMutability": "view",
      "type": "function"
    },
    {
      "constant": true,
      "inputs": [],
      "name": "symbol",
      "outputs": [
        {
          "name": "",
          "type": "string"
        }
      ],
      "payable": false,
      "stateMutability": "view",
      "type": "function"
    },
    {
      "constant": true,
      "inputs": [],
      "name": "contractUnderlyingToken",
      "outputs": [
        {
          "name": "underlyingTokenAddress",
          "type": "address"
        },
        {
          "name": "underlyingTokenId",
          "type": "uint256"
        }
      ],
      "payable": false,
      "stateMutability": "view",
      "type": "function"
    },
    {
      "constant": false,
      "inputs": [
        {
          "name": "newOwner",
          "type": "address"
        }
      ],
      "name": "transferOwnership",
      "outputs": [],
      "payable": false,
      "stateMutability": "nonpayable",
      "type": "function"
    },
    {
      "inputs": [
        {
          "name": "_underlyingTokenAddress",
          "type": "address"
        },
        {
          "name": "_underlyingTokenId",
          "type": "uint256"
        }
      ],
      "payable": false,
      "stateMutability": "nonpayable",
      "type": "constructor"
    },
    {
      "payable": false,
      "stateMutability": "nonpayable",
      "type": "fallback"
    },
    {
      "anonymous": false,
      "inputs": [
        {
          "indexed": true,
          "name": "_from",
          "type": "address"
        },
        {
          "indexed": true,
          "name": "_to",
          "type": "address"
        },
        {
          "indexed": false,
          "name": "_amount",
          "type": "uint256"
        }
      ],
      "name": "Transfer",
      "type": "event"
    },
    {
      "anonymous": false,
      "inputs": [
        {
          "indexed": true,
          "name": "_owner",
          "type": "address"
        },
        {
          "indexed": true,
          "name": "_spender",
          "type": "address"
        },
        {
          "indexed": false,
          "name": "_amount",
          "type": "uint256"
        }
      ],
      "name": "Approval",
      "type": "event"
    },
    {
      "anonymous": false,
      "inputs": [
        {
          "indexed": true,
          "name": "previousOwner",
          "type": "address"
        },
        {
          "indexed": true,
          "name": "newOwner",
          "type": "address"
        }
      ],
      "name": "OwnershipTransferred",
      "type": "event"
    },
    {
      "constant": false,
      "inputs": [
        {
          "name": "_erc20Name",
          "type": "string"
        },
        {
          "name": "_erc20Symbol",
          "type": "string"
        },
        {
          "name": "_erc20Decimals",
          "type": "uint8"
        }
      ],
      "name": "setERC20",
      "outputs": [],
      "payable": false,
      "stateMutability": "nonpayable",
      "type": "function"
    },
    {
      "constant": false,
      "inputs": [
        {
          "name": "_paymentAddress",
          "type": "address"
        },
        {
          "name": "_taxAddress",
          "type": "address"
        },
        {
          "name": "_minimumShares",
          "type": "uint256"
        },
        {
          "name": "_taxRate",
          "type": "uint256"
        }
      ],
      "name": "setMainInfo",
      "outputs": [],
      "payable": false,
      "stateMutability": "nonpayable",
      "type": "function"
    },
    {
      "constant": false,
      "inputs": [
        {
          "name": "_distributionAddress",
          "type": "address"
        },
        {
          "name": "_erc20Supply",
          "type": "uint256"
        },
        {
          "name": "_deploymentData",
          "type": "bytes"
        }
      ],
      "name": "setDistributionInfo",
      "outputs": [],
      "payable": false,
      "stateMutability": "nonpayable",
      "type": "function"
    },
    {
      "constant": false,
      "inputs": [
        {
          "name": "_to",
          "type": "address"
        },
        {
          "name": "_value",
          "type": "uint256"
        }
      ],
      "name": "transfer",
      "outputs": [
        {
          "name": "success",
          "type": "bool"
        }
      ],
      "payable": false,
      "stateMutability": "nonpayable",
      "type": "function"
    },
    {
      "constant": false,
      "inputs": [
        {
          "name": "_from",
          "type": "address"
        },
        {
          "name": "_to",
          "type": "address"
        },
        {
          "name": "_value",
          "type": "uint256"
        }
      ],
      "name": "transferFrom",
      "outputs": [
        {
          "name": "success",
          "type": "bool"
        }
      ],
      "payable": false,
      "stateMutability": "nonpayable",
      "type": "function"
    },
    {
      "constant": false,
      "inputs": [
        {
          "name": "amount",
          "type": "uint256"
        }
      ],
      "name": "withdrawReimbursement",
      "outputs": [],
      "payable": false,
      "stateMutability": "nonpayable",
      "type": "function"
    },
    {
      "constant": false,
      "inputs": [
        {
          "name": "_logic",
          "type": "bytes"
        },
        {
          "name": "_driver",
          "type": "address"
        }
      ],
      "name": "execute",
      "outputs": [],
      "payable": false,
      "stateMutability": "nonpayable",
      "type": "function"
    },
    {
      "constant": true,
      "inputs": [
        {
          "name": "_owner",
          "type": "address"
        }
      ],
      "name": "balanceOf",
      "outputs": [
        {
          "name": "balance",
          "type": "uint256"
        }
      ],
      "payable": false,
      "stateMutability": "view",
      "type": "function"
    },
    {
      "constant": false,
      "inputs": [
        {
          "name": "_spender",
          "type": "address"
        },
        {
          "name": "_amount",
          "type": "uint256"
        }
      ],
      "name": "approve",
      "outputs": [
        {
          "name": "success",
          "type": "bool"
        }
      ],
      "payable": false,
      "stateMutability": "nonpayable",
      "type": "function"
    },
    {
      "constant": true,
      "inputs": [
        {
          "name": "_owner",
          "type": "address"
        },
        {
          "name": "_spender",
          "type": "address"
        }
      ],
      "name": "allowance",
      "outputs": [
        {
          "name": "remaining",
          "type": "uint256"
        }
      ],
      "payable": false,
      "stateMutability": "view",
      "type": "function"
    },
    {
      "constant": false,
      "inputs": [
        {
          "name": "_userValue",
          "type": "uint256"
        },
        {
          "name": "_userDuration",
          "type": "uint256"
        }
      ],
      "name": "setHarberger",
      "outputs": [],
      "payable": false,
      "stateMutability": "nonpayable",
      "type": "function"
    },
    {
      "constant": false,
      "inputs": [],
      "name": "unlockToken",
      "outputs": [],
      "payable": false,
      "stateMutability": "nonpayable",
      "type": "function"
    }
  ],
  "bytecode": "0x60806040526000600c556000600d556000600f55600460009054906101000a900473ffffffffffffffffffffffffffffffffffffffff16601060006101000a81548173ffffffffffffffffffffffffffffffffffffffff021916908373ffffffffffffffffffffffffffffffffffffffff16021790555034801561008257600080fd5b50604051604080613322833981018060405260408110156100a257600080fd5b810190808051906020019092919080519060200190929190505050336000806101000a81548173ffffffffffffffffffffffffffffffffffffffff021916908373ffffffffffffffffffffffffffffffffffffffff1602179055506000809054906101000a900473ffffffffffffffffffffffffffffffffffffffff1673ffffffffffffffffffffffffffffffffffffffff16600073ffffffffffffffffffffffffffffffffffffffff167f8be0079c531659141344cd1fd0a4f28419497f9722a3daafe3b4186f6b6457e060405160405180910390a333600560006101000a81548173ffffffffffffffffffffffffffffffffffffffff021916908373ffffffffffffffffffffffffffffffffffffffff16021790555081600160000160006101000a81548173ffffffffffffffffffffffffffffffffffffffff021916908373ffffffffffffffffffffffffffffffffffffffff160217905550806001800181905550505061310a806102186000396000f3fe60806040526004361061011d576000357c0100000000000000000000000000000000000000000000000000000000900463ffffffff16806306fdde031461012c578063095ea7b3146101bc57806318160ddd1461022f57806318a24b5b1461025a57806323b872dd14610271578063313ce567146103045780634dfe7cd51461033557806367eaf072146103ba5780636accdc13146103f557806370a08231146104dd578063715018a6146105425780638b66b27e146105595780638da5cb5b1461059e5780638f32d59b146105f557806395d89b4114610624578063a9059cbb146106b4578063bcdea4f214610727578063d590eb3214610785578063dd62ed3e14610877578063eaf68512146108fc578063f2fde38b14610a68575b34801561012957600080fd5b50005b34801561013857600080fd5b50610141610ab9565b6040518080602001828103825283818151815260200191508051906020019080838360005b83811015610181578082015181840152602081019050610166565b50505050905090810190601f1680156101ae5780820380516001836020036101000a031916815260200191505b509250505060405180910390f35b3480156101c857600080fd5b50610215600480360360408110156101df57600080fd5b81019080803573ffffffffffffffffffffffffffffffffffffffff16906020019092919080359060200190929190505050610b57565b604051808215151515815260200191505060405180910390f35b34801561023b57600080fd5b50610244610cde565b6040518082815260200191505060405180910390f35b34801561026657600080fd5b5061026f610ce4565b005b34801561027d57600080fd5b506102ea6004803603606081101561029457600080fd5b81019080803573ffffffffffffffffffffffffffffffffffffffff169060200190929190803573ffffffffffffffffffffffffffffffffffffffff16906020019092919080359060200190929190505050610ea5565b604051808215151515815260200191505060405180910390f35b34801561031057600080fd5b50610319611f9f565b604051808260ff1660ff16815260200191505060405180910390f35b34801561034157600080fd5b506103b86004803603608081101561035857600080fd5b81019080803573ffffffffffffffffffffffffffffffffffffffff169060200190929190803573ffffffffffffffffffffffffffffffffffffffff1690602001909291908035906020019092919080359060200190929190505050611fb2565b005b3480156103c657600080fd5b506103f3600480360360208110156103dd57600080fd5b81019080803590602001909291905050506120a4565b005b34801561040157600080fd5b506104db6004803603604081101561041857600080fd5b810190808035906020019064010000000081111561043557600080fd5b82018360208201111561044757600080fd5b8035906020019184600183028401116401000000008311171561046957600080fd5b91908080601f016020809104026020016040519081016040528093929190818152602001838380828437600081840152601f19601f820116905080830192505050505050509192919290803573ffffffffffffffffffffffffffffffffffffffff169060200190929190505050612243565b005b3480156104e957600080fd5b5061052c6004803603602081101561050057600080fd5b81019080803573ffffffffffffffffffffffffffffffffffffffff169060200190929190505050612370565b6040518082815260200191505060405180910390f35b34801561054e57600080fd5b506105576123b9565b005b34801561056557600080fd5b5061059c6004803603604081101561057c57600080fd5b81019080803590602001909291908035906020019092919050505061248b565b005b3480156105aa57600080fd5b506105b36125ed565b604051808273ffffffffffffffffffffffffffffffffffffffff1673ffffffffffffffffffffffffffffffffffffffff16815260200191505060405180910390f35b34801561060157600080fd5b5061060a612616565b604051808215151515815260200191505060405180910390f35b34801561063057600080fd5b5061063961266d565b6040518080602001828103825283818151815260200191508051906020019080838360005b8381101561067957808201518184015260208101905061065e565b50505050905090810190601f1680156106a65780820380516001836020036101000a031916815260200191505b509250505060405180910390f35b3480156106c057600080fd5b5061070d600480360360408110156106d757600080fd5b81019080803573ffffffffffffffffffffffffffffffffffffffff1690602001909291908035906020019092919050505061270b565b604051808215151515815260200191505060405180910390f35b34801561073357600080fd5b5061073c612993565b604051808373ffffffffffffffffffffffffffffffffffffffff1673ffffffffffffffffffffffffffffffffffffffff1681526020018281526020019250505060405180910390f35b34801561079157600080fd5b50610875600480360360608110156107a857600080fd5b81019080803573ffffffffffffffffffffffffffffffffffffffff16906020019092919080359060200190929190803590602001906401000000008111156107ef57600080fd5b82018360208201111561080157600080fd5b8035906020019184600183028401116401000000008311171561082357600080fd5b91908080601f016020809104026020016040519081016040528093929190818152602001838380828437600081840152601f19601f8201169050808301925050505050505091929192905050506129c5565b005b34801561088357600080fd5b506108e66004803603604081101561089a57600080fd5b81019080803573ffffffffffffffffffffffffffffffffffffffff169060200190929190803573ffffffffffffffffffffffffffffffffffffffff169060200190929190505050612c29565b6040518082815260200191505060405180910390f35b34801561090857600080fd5b50610a666004803603606081101561091f57600080fd5b810190808035906020019064010000000081111561093c57600080fd5b82018360208201111561094e57600080fd5b8035906020019184600183028401116401000000008311171561097057600080fd5b91908080601f016020809104026020016040519081016040528093929190818152602001838380828437600081840152601f19601f820116905080830192505050505050509192919290803590602001906401000000008111156109d357600080fd5b8201836020820111156109e557600080fd5b80359060200191846001830284011164010000000083111715610a0757600080fd5b91908080601f016020809104026020016040519081016040528093929190818152602001838380828437600081840152601f19601f820116905080830192505050505050509192919290803560ff169060200190929190505050612cb0565b005b348015610a7457600080fd5b50610ab760048036036020811015610a8b57600080fd5b81019080803573ffffffffffffffffffffffffffffffffffffffff169060200190929190505050612d5a565b005b60088054600181600116156101000203166002900480601f016020809104026020016040519081016040528092919081815260200182805460018160011615610100020316600290048015610b4f5780601f10610b2457610100808354040283529160200191610b4f565b820191906000526020600020905b815481529060010190602001808311610b3257829003601f168201915b505050505081565b600080821480610be357506000601260003373ffffffffffffffffffffffffffffffffffffffff1673ffffffffffffffffffffffffffffffffffffffff16815260200190815260200160002060008573ffffffffffffffffffffffffffffffffffffffff1673ffffffffffffffffffffffffffffffffffffffff16815260200190815260200160002054145b1515610bee57600080fd5b81601260003373ffffffffffffffffffffffffffffffffffffffff1673ffffffffffffffffffffffffffffffffffffffff16815260200190815260200160002060008573ffffffffffffffffffffffffffffffffffffffff1673ffffffffffffffffffffffffffffffffffffffff168152602001908152602001600020819055508273ffffffffffffffffffffffffffffffffffffffff163373ffffffffffffffffffffffffffffffffffffffff167f8c5be1e5ebec7d5bd14f71427d1e84f3dd0314c0f7b2291e5b200ac8c7c3b925846040518082815260200191505060405180910390a36001905092915050565b60075481565b600754601160003373ffffffffffffffffffffffffffffffffffffffff1673ffffffffffffffffffffffffffffffffffffffff16815260200190815260200160002054141515610d3357600080fd5b610d6233600560009054906101000a900473ffffffffffffffffffffffffffffffffffffffff16600754610ea5565b506000600560009054906101000a900473ffffffffffffffffffffffffffffffffffffffff1690508073ffffffffffffffffffffffffffffffffffffffff16635a9c78ab600160000160009054906101000a900473ffffffffffffffffffffffffffffffffffffffff166001800154336040518463ffffffff167c0100000000000000000000000000000000000000000000000000000000028152600401808473ffffffffffffffffffffffffffffffffffffffff1673ffffffffffffffffffffffffffffffffffffffff1681526020018381526020018273ffffffffffffffffffffffffffffffffffffffff1673ffffffffffffffffffffffffffffffffffffffff1681526020019350505050600060405180830381600087803b158015610e8a57600080fd5b505af1158015610e9e573d6000803e3d6000fd5b5050505050565b6000600560009054906101000a900473ffffffffffffffffffffffffffffffffffffffff1673ffffffffffffffffffffffffffffffffffffffff168473ffffffffffffffffffffffffffffffffffffffff1614151515610f48576040517f08c379a0000000000000000000000000000000000000000000000000000000008152600401808060200182810382526000815260200160200191505060405180910390fd5b600082111515610fc0576040517f08c379a000000000000000000000000000000000000000000000000000000000815260040180806020018281038252601c8152602001807f76616c7565206d7573742062652067726561746572207468616e20300000000081525060200191505060405180910390fd5b60011515601360008573ffffffffffffffffffffffffffffffffffffffff1673ffffffffffffffffffffffffffffffffffffffff16815260200190815260200160002060030160009054906101000a900460ff161515148061106f5750600560009054906101000a900473ffffffffffffffffffffffffffffffffffffffff1673ffffffffffffffffffffffffffffffffffffffff168373ffffffffffffffffffffffffffffffffffffffff16145b1515611109576040517f08c379a00000000000000000000000000000000000000000000000000000000081526004018080602001828103825260258152602001807f726563697069656e74206d75737420686176652068617262657267657220746181526020017f782073657400000000000000000000000000000000000000000000000000000081525060400191505060405180910390fd5b600e5482601160008673ffffffffffffffffffffffffffffffffffffffff1673ffffffffffffffffffffffffffffffffffffffff1681526020019081526020016000205401101580156111eb5750600e5482601160008773ffffffffffffffffffffffffffffffffffffffff1673ffffffffffffffffffffffffffffffffffffffff16815260200190815260200160002054031015806111ea5750600082601160008773ffffffffffffffffffffffffffffffffffffffff1673ffffffffffffffffffffffffffffffffffffffff1681526020019081526020016000205403145b5b15156111f657600080fd5b3073ffffffffffffffffffffffffffffffffffffffff163373ffffffffffffffffffffffffffffffffffffffff16141580156112805750600360009054906101000a900473ffffffffffffffffffffffffffffffffffffffff1673ffffffffffffffffffffffffffffffffffffffff163373ffffffffffffffffffffffffffffffffffffffff1614155b1561147257601060009054906101000a900473ffffffffffffffffffffffffffffffffffffffff1673ffffffffffffffffffffffffffffffffffffffff166323b872dd848685601360008a73ffffffffffffffffffffffffffffffffffffffff1673ffffffffffffffffffffffffffffffffffffffff16815260200190815260200160002060000154026040518463ffffffff167c0100000000000000000000000000000000000000000000000000000000028152600401808473ffffffffffffffffffffffffffffffffffffffff1673ffffffffffffffffffffffffffffffffffffffff1681526020018373ffffffffffffffffffffffffffffffffffffffff1673ffffffffffffffffffffffffffffffffffffffff1681526020018281526020019350505050602060405180830381600087803b1580156113c257600080fd5b505af11580156113d6573d6000803e3d6000fd5b505050506040513d60208110156113ec57600080fd5b81019080805190602001909291905050501515611471576040517f08c379a000000000000000000000000000000000000000000000000000000000815260040180806020018281038252601d8152602001807f5061796d656e7420746f20746f6b656e206f776e6572206661696c656400000081525060200191505060405180910390fd5b5b6000601160008673ffffffffffffffffffffffffffffffffffffffff1673ffffffffffffffffffffffffffffffffffffffff16815260200190815260200160002054838115156114be57fe5b04601460008773ffffffffffffffffffffffffffffffffffffffff1673ffffffffffffffffffffffffffffffffffffffff16815260200190815260200160002054600b54601360008973ffffffffffffffffffffffffffffffffffffffff1673ffffffffffffffffffffffffffffffffffffffff16815260200190815260200160002060000154601360008a73ffffffffffffffffffffffffffffffffffffffff1673ffffffffffffffffffffffffffffffffffffffff168152602001908152602001600020600201544203020202029050601060009054906101000a900473ffffffffffffffffffffffffffffffffffffffff1673ffffffffffffffffffffffffffffffffffffffff1663a9059cbb600660009054906101000a900473ffffffffffffffffffffffffffffffffffffffff16836040518363ffffffff167c0100000000000000000000000000000000000000000000000000000000028152600401808373ffffffffffffffffffffffffffffffffffffffff1673ffffffffffffffffffffffffffffffffffffffff16815260200182815260200192505050602060405180830381600087803b15801561167757600080fd5b505af115801561168b573d6000803e3d6000fd5b505050506040513d60208110156116a157600080fd5b81019080805190602001909291905050505080601460008773ffffffffffffffffffffffffffffffffffffffff1673ffffffffffffffffffffffffffffffffffffffff168152602001908152602001600020600082825403925050819055506000601160008773ffffffffffffffffffffffffffffffffffffffff1673ffffffffffffffffffffffffffffffffffffffff168152602001908152602001600020548481151561174c57fe5b04601460008873ffffffffffffffffffffffffffffffffffffffff1673ffffffffffffffffffffffffffffffffffffffff16815260200190815260200160002054600b54601360008a73ffffffffffffffffffffffffffffffffffffffff1673ffffffffffffffffffffffffffffffffffffffff1681526020019081526020016000206000015442601360008c73ffffffffffffffffffffffffffffffffffffffff1673ffffffffffffffffffffffffffffffffffffffff16815260200190815260200160002060010154601360008d73ffffffffffffffffffffffffffffffffffffffff1673ffffffffffffffffffffffffffffffffffffffff16815260200190815260200160002060020154010302020202905080601460008873ffffffffffffffffffffffffffffffffffffffff1673ffffffffffffffffffffffffffffffffffffffff1681526020019081526020016000206000828254039250508190555080601560008873ffffffffffffffffffffffffffffffffffffffff1673ffffffffffffffffffffffffffffffffffffffff168152602001908152602001600020600082825401925050819055506000600b54601360008873ffffffffffffffffffffffffffffffffffffffff1673ffffffffffffffffffffffffffffffffffffffff16815260200190815260200160002060000154601360008973ffffffffffffffffffffffffffffffffffffffff1673ffffffffffffffffffffffffffffffffffffffff16815260200190815260200160002060020154420302029050601060009054906101000a900473ffffffffffffffffffffffffffffffffffffffff1673ffffffffffffffffffffffffffffffffffffffff166323b872dd30600660009054906101000a900473ffffffffffffffffffffffffffffffffffffffff16846040518463ffffffff167c0100000000000000000000000000000000000000000000000000000000028152600401808473ffffffffffffffffffffffffffffffffffffffff1673ffffffffffffffffffffffffffffffffffffffff1681526020018373ffffffffffffffffffffffffffffffffffffffff1673ffffffffffffffffffffffffffffffffffffffff1681526020018281526020019350505050602060405180830381600087803b158015611aa857600080fd5b505af1158015611abc573d6000803e3d6000fd5b505050506040513d6020811015611ad257600080fd5b8101908080519060200190929190505050506000600b54601360008973ffffffffffffffffffffffffffffffffffffffff1673ffffffffffffffffffffffffffffffffffffffff1681526020019081526020016000206000015442601360008b73ffffffffffffffffffffffffffffffffffffffff1673ffffffffffffffffffffffffffffffffffffffff16815260200190815260200160002060010154601360008c73ffffffffffffffffffffffffffffffffffffffff1673ffffffffffffffffffffffffffffffffffffffff1681526020019081526020016000206002015401030202905080601460008973ffffffffffffffffffffffffffffffffffffffff1673ffffffffffffffffffffffffffffffffffffffff1681526020019081526020016000206000828254039250508190555080601560008973ffffffffffffffffffffffffffffffffffffffff1673ffffffffffffffffffffffffffffffffffffffff16815260200190815260200160002060008282540192505081905550601060009054906101000a900473ffffffffffffffffffffffffffffffffffffffff1673ffffffffffffffffffffffffffffffffffffffff166323b872dd883089601360008d73ffffffffffffffffffffffffffffffffffffffff1673ffffffffffffffffffffffffffffffffffffffff16815260200190815260200160002060010154601360008e73ffffffffffffffffffffffffffffffffffffffff1673ffffffffffffffffffffffffffffffffffffffff1681526020019081526020016000206000015402026040518463ffffffff167c0100000000000000000000000000000000000000000000000000000000028152600401808473ffffffffffffffffffffffffffffffffffffffff1673ffffffffffffffffffffffffffffffffffffffff1681526020018373ffffffffffffffffffffffffffffffffffffffff1673ffffffffffffffffffffffffffffffffffffffff1681526020018281526020019350505050602060405180830381600087803b158015611dd457600080fd5b505af1158015611de8573d6000803e3d6000fd5b505050506040513d6020811015611dfe57600080fd5b81019080805190602001909291905050505085601360008973ffffffffffffffffffffffffffffffffffffffff1673ffffffffffffffffffffffffffffffffffffffff16815260200190815260200160002060010154601360008a73ffffffffffffffffffffffffffffffffffffffff1673ffffffffffffffffffffffffffffffffffffffff168152602001908152602001600020600001540202601460008973ffffffffffffffffffffffffffffffffffffffff1673ffffffffffffffffffffffffffffffffffffffff1681526020019081526020016000208190555042601360008973ffffffffffffffffffffffffffffffffffffffff1673ffffffffffffffffffffffffffffffffffffffff1681526020019081526020016000206002018190555085601160008a73ffffffffffffffffffffffffffffffffffffffff1673ffffffffffffffffffffffffffffffffffffffff1681526020019081526020016000205410158015611f725750600086115b15611f8f57611f82888888612d79565b6001945050505050611f98565b60009450505050505b9392505050565b600a60009054906101000a900460ff1681565b600560009054906101000a900473ffffffffffffffffffffffffffffffffffffffff1673ffffffffffffffffffffffffffffffffffffffff163373ffffffffffffffffffffffffffffffffffffffff1614151561200e57600080fd5b83600460006101000a81548173ffffffffffffffffffffffffffffffffffffffff021916908373ffffffffffffffffffffffffffffffffffffffff16021790555082600660006101000a81548173ffffffffffffffffffffffffffffffffffffffff021916908373ffffffffffffffffffffffffffffffffffffffff16021790555081600e8190555080600b8190555050505050565b80601560003373ffffffffffffffffffffffffffffffffffffffff1673ffffffffffffffffffffffffffffffffffffffff16815260200190815260200160002054101515156120f257600080fd5b80601560003373ffffffffffffffffffffffffffffffffffffffff1673ffffffffffffffffffffffffffffffffffffffff16815260200190815260200160002060008282540392505081905550601060009054906101000a900473ffffffffffffffffffffffffffffffffffffffff1673ffffffffffffffffffffffffffffffffffffffff1663a9059cbb33836040518363ffffffff167c0100000000000000000000000000000000000000000000000000000000028152600401808373ffffffffffffffffffffffffffffffffffffffff1673ffffffffffffffffffffffffffffffffffffffff16815260200182815260200192505050602060405180830381600087803b15801561220457600080fd5b505af1158015612218573d6000803e3d6000fd5b505050506040513d602081101561222e57600080fd5b81019080805190602001909291905050505050565b61224b612616565b151561225657600080fd5b60008190508073ffffffffffffffffffffffffffffffffffffffff1663089b0aeb846040518263ffffffff167c01000000000000000000000000000000000000000000000000000000000281526004018080602001828103825283818151815260200191508051906020019080838360005b838110156122e35780820151818401526020810190506122c8565b50505050905090810190601f1680156123105780820380516001836020036101000a031916815260200191505b5092505050602060405180830381600087803b15801561232f57600080fd5b505af1158015612343573d6000803e3d6000fd5b505050506040513d602081101561235957600080fd5b810190808051906020019092919050505050505050565b6000601160008373ffffffffffffffffffffffffffffffffffffffff1673ffffffffffffffffffffffffffffffffffffffff168152602001908152602001600020549050919050565b6123c1612616565b15156123cc57600080fd5b600073ffffffffffffffffffffffffffffffffffffffff166000809054906101000a900473ffffffffffffffffffffffffffffffffffffffff1673ffffffffffffffffffffffffffffffffffffffff167f8be0079c531659141344cd1fd0a4f28419497f9722a3daafe3b4186f6b6457e060405160405180910390a360008060006101000a81548173ffffffffffffffffffffffffffffffffffffffff021916908373ffffffffffffffffffffffffffffffffffffffff160217905550565b6000821415151561249b57600080fd5b600081141515156124ab57600080fd5b60001515601360003373ffffffffffffffffffffffffffffffffffffffff1673ffffffffffffffffffffffffffffffffffffffff16815260200190815260200160002060030160009054906101000a900460ff161515141561255b5760011515601360003373ffffffffffffffffffffffffffffffffffffffff1673ffffffffffffffffffffffffffffffffffffffff16815260200190815260200160002060030160009054906101000a905050505b81601360003373ffffffffffffffffffffffffffffffffffffffff1673ffffffffffffffffffffffffffffffffffffffff1681526020019081526020016000206000018190555080601360003373ffffffffffffffffffffffffffffffffffffffff1673ffffffffffffffffffffffffffffffffffffffff168152602001908152602001600020600101819055505050565b60008060009054906101000a900473ffffffffffffffffffffffffffffffffffffffff16905090565b60008060009054906101000a900473ffffffffffffffffffffffffffffffffffffffff1673ffffffffffffffffffffffffffffffffffffffff163373ffffffffffffffffffffffffffffffffffffffff1614905090565b60098054600181600116156101000203166002900480601f0160208091040260200160405190810160405280929190818152602001828054600181600116156101000203166002900480156127035780601f106126d857610100808354040283529160200191612703565b820191906000526020600020905b8154815290600101906020018083116126e657829003601f168201915b505050505081565b6000600560009054906101000a900473ffffffffffffffffffffffffffffffffffffffff1673ffffffffffffffffffffffffffffffffffffffff163373ffffffffffffffffffffffffffffffffffffffff161415151561276a57600080fd5b60008211151561277957600080fd5b60011515601360008573ffffffffffffffffffffffffffffffffffffffff1673ffffffffffffffffffffffffffffffffffffffff16815260200190815260200160002060030160009054906101000a900460ff16151514806128285750600560009054906101000a900473ffffffffffffffffffffffffffffffffffffffff1673ffffffffffffffffffffffffffffffffffffffff168373ffffffffffffffffffffffffffffffffffffffff16145b151561283357600080fd5b600e5482601160008673ffffffffffffffffffffffffffffffffffffffff1673ffffffffffffffffffffffffffffffffffffffff1681526020019081526020016000205401101580156129155750600e5482601160003373ffffffffffffffffffffffffffffffffffffffff1673ffffffffffffffffffffffffffffffffffffffff16815260200190815260200160002054031015806129145750600082601160003373ffffffffffffffffffffffffffffffffffffffff1673ffffffffffffffffffffffffffffffffffffffff1681526020019081526020016000205403145b5b151561292057600080fd5b81601160003373ffffffffffffffffffffffffffffffffffffffff1673ffffffffffffffffffffffffffffffffffffffff168152602001908152602001600020541015801561296f5750600082115b156129885761297f338484612d79565b6001905061298d565b600090505b92915050565b60018060000160009054906101000a900473ffffffffffffffffffffffffffffffffffffffff16908060010154905082565b600560009054906101000a900473ffffffffffffffffffffffffffffffffffffffff1673ffffffffffffffffffffffffffffffffffffffff163373ffffffffffffffffffffffffffffffffffffffff16141515612a2157600080fd5b6000600f54141515612a3257600080fd5b8160078190555081601160008573ffffffffffffffffffffffffffffffffffffffff1673ffffffffffffffffffffffffffffffffffffffff1681526020019081526020016000208190555082600360006101000a81548173ffffffffffffffffffffffffffffffffffffffff021916908373ffffffffffffffffffffffffffffffffffffffff16021790555060008390508073ffffffffffffffffffffffffffffffffffffffff16639026068230600754856040518463ffffffff167c0100000000000000000000000000000000000000000000000000000000028152600401808473ffffffffffffffffffffffffffffffffffffffff1673ffffffffffffffffffffffffffffffffffffffff16815260200183815260200180602001828103825283818151815260200191508051906020019080838360005b83811015612b87578082015181840152602081019050612b6c565b50505050905090810190601f168015612bb45780820380516001836020036101000a031916815260200191505b50945050505050602060405180830381600087803b158015612bd557600080fd5b505af1158015612be9573d6000803e3d6000fd5b505050506040513d6020811015612bff57600080fd5b810190808051906020019092919050505050600f6000815480929190600101919050555050505050565b6000601260008473ffffffffffffffffffffffffffffffffffffffff1673ffffffffffffffffffffffffffffffffffffffff16815260200190815260200160002060008373ffffffffffffffffffffffffffffffffffffffff1673ffffffffffffffffffffffffffffffffffffffff16815260200190815260200160002054905092915050565b600560009054906101000a900473ffffffffffffffffffffffffffffffffffffffff1673ffffffffffffffffffffffffffffffffffffffff163373ffffffffffffffffffffffffffffffffffffffff16141515612d0c57600080fd5b8260089080519060200190612d22929190613039565b508160099080519060200190612d39929190613039565b5080600a60006101000a81548160ff021916908360ff160217905550505050565b612d62612616565b1515612d6d57600080fd5b612d7681612f3f565b50565b600073ffffffffffffffffffffffffffffffffffffffff168273ffffffffffffffffffffffffffffffffffffffff1614158015612de257503073ffffffffffffffffffffffffffffffffffffffff168273ffffffffffffffffffffffffffffffffffffffff1614155b1515612ded57600080fd5b601160008473ffffffffffffffffffffffffffffffffffffffff1673ffffffffffffffffffffffffffffffffffffffff168152602001908152602001600020548111151515612e3b57600080fd5b80601160008573ffffffffffffffffffffffffffffffffffffffff1673ffffffffffffffffffffffffffffffffffffffff1681526020019081526020016000206000828254039250508190555080601160008473ffffffffffffffffffffffffffffffffffffffff1673ffffffffffffffffffffffffffffffffffffffff168152602001908152602001600020600082825401925050819055508173ffffffffffffffffffffffffffffffffffffffff168373ffffffffffffffffffffffffffffffffffffffff167fddf252ad1be2c89b69c2b068fc378daa952ba7f163c4a11628f55a4df523b3ef836040518082815260200191505060405180910390a3505050565b600073ffffffffffffffffffffffffffffffffffffffff168173ffffffffffffffffffffffffffffffffffffffff1614151515612f7b57600080fd5b8073ffffffffffffffffffffffffffffffffffffffff166000809054906101000a900473ffffffffffffffffffffffffffffffffffffffff1673ffffffffffffffffffffffffffffffffffffffff167f8be0079c531659141344cd1fd0a4f28419497f9722a3daafe3b4186f6b6457e060405160405180910390a3806000806101000a81548173ffffffffffffffffffffffffffffffffffffffff021916908373ffffffffffffffffffffffffffffffffffffffff16021790555050565b828054600181600116156101000203166002900490600052602060002090601f016020900481019282601f1061307a57805160ff19168380011785556130a8565b828001600101855582156130a8579182015b828111156130a757825182559160200191906001019061308c565b5b5090506130b591906130b9565b5090565b6130db91905b808211156130d75760008160009055506001016130bf565b5090565b9056fea165627a7a7230582071392f10e1205a35aeefc9db1a0727386c48b206e4932cd5881fd6a24fc7870e0029",
  "source": "pragma solidity ^0.5.0;\nimport 'openzeppelin-solidity/contracts/token/ERC20/ERC20.sol';\nimport 'openzeppelin-solidity/contracts/ownership/Ownable.sol';\nimport \"./deployment-core.sol\";\nimport \"./tokenize-core.sol\";\nimport \"./driver-core.sol\";\n\n//todo:\n//add eip 161 support\n//check consistency of requiring payment denominated in payment address\n// set up distribution scheme\n// set up all necessary interfaces and stuff\n// set up duration logic\n//set up taxing logic/requirements/penalties\n//enforce appropriate permissioning for everything\n//add taxAddress all the way through\n\n\n//long term todo (nice-to-haves):\n//allow the option of using eth instead of wrapped eth for underlying value\n\ncontract AssetTokenizationContract is Ownable {\n\n    //contract variables\n    //the ERC721 token locked to create the shares denominated in this ERC20 token\n    UnderlyingToken public contractUnderlyingToken;\n    // the address that contains deployment logic for the initial distribution of tokens\n    address distributionAddress;\n    // the token in which payments for shares are to be made\n    address paymentAddress;\n    address tokenizeCore;\n    address taxAddress;\n\n\n    uint256 public totalSupply;\n    string public name;\n    string public symbol;\n    uint8 public decimals;\n    uint taxRate;\n    uint defaultValue = 0;\n    uint defaultDuration = 0;\n    uint minimumShares;\n    uint distributionFlag = 0;\n\n    ERC20 paymentAddressInstance = ERC20(paymentAddress);\n    \n\n    //structs\n    struct UnderlyingToken{\n        address underlyingTokenAddress;\n        uint underlyingTokenId;\n    }\n\n\n    struct HarbergerSet{\n        // denominated in paymentAddress - i.e. .5 = .5 shares per Dai\n        uint userValue;\n        //duration in seconds\n        uint userDuration;\n        uint userStartTime;\n        bool initialized;\n    }\n\n\n    //mappings\n    mapping (address => uint256) balances;\n    mapping (address => mapping (address => uint256)) allowed;\n    mapping (address => HarbergerSet) harbergerSetByUser;\n    mapping (address => uint) escrowedByUser;\n    mapping (address => uint) accruedReimbursementByUser;\n\n    constructor (\n        address _underlyingTokenAddress, \n        uint _underlyingTokenId) public\n    {\n        tokenizeCore = msg.sender;\n        contractUnderlyingToken.underlyingTokenAddress = _underlyingTokenAddress;\n        contractUnderlyingToken.underlyingTokenId = _underlyingTokenId;\n\n    }\n\n    modifier tokenizeCoreOnly{\n        require(msg.sender == tokenizeCore);\n        _;\n    }\n\n    function setERC20(string memory _erc20Name, string memory _erc20Symbol, uint8 _erc20Decimals) public tokenizeCoreOnly {\n        name = _erc20Name;\n        symbol = _erc20Symbol;\n        decimals = _erc20Decimals;\n    }\n\n    function setMainInfo(address _paymentAddress, address _taxAddress, uint256 _minimumShares, uint256 _taxRate) public tokenizeCoreOnly {\n\n        paymentAddress = _paymentAddress;\n        taxAddress = _taxAddress;\n        minimumShares = _minimumShares;\n        taxRate = _taxRate;\n    }\n\n    function setDistributionInfo(address _distributionAddress, uint256 _erc20Supply, bytes memory _deploymentData) public tokenizeCoreOnly {\n        require(distributionFlag == 0);\n        totalSupply = _erc20Supply;\n        balances[_distributionAddress] = _erc20Supply;\n        // set distribution address\n        distributionAddress = _distributionAddress;\n        //distribute initially\n        DeploymentCoreInterface instanceDeploymentCore = DeploymentCoreInterface(_distributionAddress);\n        instanceDeploymentCore.onReceipt(address(this), totalSupply, _deploymentData);\n        distributionFlag++;\n    }\n\n    function transfer(address _to, uint256 _value) public returns (bool success) {\n        // makes sure that once the underlying asset is unlocked, the tokens are destroyed\n        require (msg.sender != tokenizeCore);\n        require (_value > 0);\n        require ((harbergerSetByUser[_to].initialized == true) || (_to == tokenizeCore));\n        require (balances[_to] + _value >= minimumShares && ((balances[msg.sender] - _value >= minimumShares) || balances[msg.sender] - _value == 0));\n        //TODO - need to add something that enforces that _to escrows their value*duration\n\n        if (balances[msg.sender] >= _value && _value > 0) {\n            doTransfer(msg.sender, _to, _value);\n            return true;\n        } else { return false; }\n    }\n\n\n    function transferFrom(address _from, address _to, uint256 _value) public returns (bool success) {\n        /*todo offer a version of this function where recipient can change their duration/value within the function call\n        will be same params + uint _userDuration, uint _userValue; these will be set before determining escrow price\n        */\n\n        //make sure once the erc721 token is unlocked, tokens are destroyed\n        require (_from != tokenizeCore, \"\");\n        require (_value > 0, \"value must be greater than 0\");\n\n        //make sure recipient has harberger tax value and duration set\n        require (harbergerSetByUser[_to].initialized == true || _to == tokenizeCore, \"recipient must have harberger tax set\");\n\n        //if there's a minimumShares, make sure it's enforced by both sender and receiver after the tx\n        require (balances[_to] + _value >= minimumShares && (balances[_from] - _value >= minimumShares || balances[_from] - _value == 0));\n\n        \n        \n        // unless it's initial distribution, let's make sure we pay the _from when we're taking their shares\n        // _to should send _from (how much _from values each share) * (number of shares being taken)\n        //if you want this to be synchronous, call approveAndCall if implemented on the token contract, then call this function\n        if (msg.sender != address(this) && msg.sender != distributionAddress){\n            require (paymentAddressInstance.transferFrom(_to, _from, (harbergerSetByUser[_from].userValue * _value)), \"Payment to token owner failed\");\n        }\n\n        //but they've still gotta pay taxes on any previously held tokens!\n        uint _senderDebt;\n        _senderDebt = (now - harbergerSetByUser[_from].userStartTime) * harbergerSetByUser[_from].userValue * taxRate * escrowedByUser[_from]*(_value/balances[_from]); \n        //toconsider - instead of paying out the taxes, consider adding them to a state variable and paying it all out at once; \n        //changes the economics of it though, so need to think through this\n        paymentAddressInstance.transfer(taxAddress, _senderDebt);\n        escrowedByUser[_from] -= _senderDebt;\n\n        //now, whoever is having shares taken from them needs to be reimbursed whatever's untaxed from their original escrow\n        uint _senderReimbursement;\n        _senderReimbursement = (harbergerSetByUser[_from].userStartTime + harbergerSetByUser[_from].userDuration - now) * harbergerSetByUser[_from].userValue * taxRate * escrowedByUser[_from] * (_value/balances[_from]);\n        escrowedByUser[_from] -= _senderReimbursement;\n        accruedReimbursementByUser[_from] += _senderReimbursement;\n\n        //let's clear out the recipient's escrow as well, so we can reset their userStartTime and make them a new escrow\n        uint _recipientDebt;\n        _recipientDebt = (now - harbergerSetByUser[_to].userStartTime) * harbergerSetByUser[_to].userValue * taxRate; \n        //toconsider - instead of paying out the taxes, consider adding them to a state variable and paying it all out at once; \n        //changes the economics of it though, so need to think through this\n        paymentAddressInstance.transferFrom(address(this), taxAddress, _recipientDebt);\n\n\n        uint _recipientReimbursement;\n        _recipientReimbursement = (harbergerSetByUser[_to].userStartTime + harbergerSetByUser[_to].userDuration - now) * harbergerSetByUser[_to].userValue * taxRate;\n        escrowedByUser[_to] -= _recipientReimbursement;\n        accruedReimbursementByUser[_to] += _recipientReimbursement;\n            \n        \n\n        //recipient now needs to escrow, so one day they can pay taxes and get reimbursed and all that fun stuff\n        paymentAddressInstance.transferFrom(_to, address(this), (harbergerSetByUser[_to].userValue * harbergerSetByUser[_to].userDuration * _value));\n        escrowedByUser[_to] = harbergerSetByUser[_to].userValue * harbergerSetByUser[_to].userDuration * _value;\n        harbergerSetByUser[_to].userStartTime = now;\n        \n        if (balances[_from] >= _value && _value > 0) {\n            doTransfer(_from, _to, _value);\n            return true;\n        } else { return false; }\n    }\n\n    function doTransfer(address _from, address _to, uint256 _value) internal {\n        require((_to != address(0)) && (_to != address(this)));\n        require(_value <= balances[_from]);\n        balances[_from] -= _value;\n        balances [_to] += _value;\n        emit Transfer(_from, _to, _value);\n    }\n\n\n    function withdrawReimbursement(uint amount) public {\n        require(accruedReimbursementByUser[msg.sender] >= amount);\n        accruedReimbursementByUser[msg.sender] -= amount;\n        paymentAddressInstance.transfer(msg.sender, amount);\n    }\n    /*\n    allows this contract to call an arbitrary function on a passed \"driver\" contract\n    example implementation: \"onlyOwner\" is a smart contract address with a voting\n    mechanism governed by owners of this contract's erc20 tokens\n    they can vote on decisions affecting the underlying 721\n    */\n    function execute(bytes memory _logic, address _driver) public onlyOwner{\n        DriverCoreInterface instanceDriverCore = DriverCoreInterface(_driver);\n        instanceDriverCore.executeCall(_logic);\n    }\n\n    //function getDebtByUser(address _user) public view returns(uint){\n    //\treturn escrowedByUser[_user] - (harbergerSetByUser[_user].value * taxRate * balances[_user] * \n    //}\n\n    //can be used if paymentAddress has approveAndCall\n    //function allowAndTransferFrom(address _from, address _to, uint256 _value, bytes _extraData){\n\n    //}\n\n    function balanceOf(address _owner) view public returns (uint256 balance) {\n        return balances[_owner];\n    }\n\n    // required bc of erc20\n    function approve(address _spender, uint256 _amount) public returns (bool success) {\n        // To change the approve amount you first have to reduce the addresses`\n        //  allowance to zero by calling `approve(_spender,0)` if it is not\n        //  already 0 to mitigate the race condition described here:\n        //  https://github.com/ethereum/EIPs/issues/20#issuecomment-263524729\n        require((_amount == 0) || (allowed[msg.sender][_spender] == 0));\n\n        allowed[msg.sender][_spender] = _amount;\n        emit Approval(msg.sender, _spender, _amount);\n        return true;\n    }\n\n\n    function allowance(address _owner, address _spender) public view returns (uint256 remaining) {\n        return allowed[_owner][_spender];\n    }\n\n\n    function () external {\n    //if ether is sent to this address, send it back.\n  \n    }\n\n    //function approveAndCall(address _spender, uint256 _value, bytes memory _extraData) public returns (bool success) {\n    //\tallowed[msg.sender][_spender] = _value;\n    //\tApproval(msg.sender, _spender, _value);\n//\n  //      //call the receiveApproval function on the contract you want to be notified. This crafts the function signature manually so one doesn't have to include a contract in here just for this.\n    //    //receiveApproval(address _from, uint256 _value, address _tokenContract, bytes _extraData)\n      //  //it is assumed that when does this that the call *should* succeed, otherwise one would use vanilla approve instead.\n        //if(!_spender.call(bytes4(bytes32(sha3(\"receiveApproval(address,uint256,address,bytes)\"))), msg.sender, _value, this, _extraData)) { revert; }\n        //return true;\n    //}\n\n       function setHarberger (uint _userValue, uint _userDuration) public {\n        require (_userValue != 0);\n        require (_userDuration != 0);\n\n        if(harbergerSetByUser[msg.sender].initialized == false){\n            harbergerSetByUser[msg.sender].initialized == true;\n        }\n        harbergerSetByUser[msg.sender].userValue = _userValue;\n        harbergerSetByUser[msg.sender].userDuration = _userDuration;\n        // set user start time\n    }\n\n    function unlockToken() public {\n        require (balances[msg.sender] == totalSupply);\n        transferFrom(msg.sender, tokenizeCore, totalSupply);\n        TokenizeCore instanceTokenizeCore = TokenizeCore(tokenizeCore);\n        instanceTokenizeCore.unlockToken(contractUnderlyingToken.underlyingTokenAddress, contractUnderlyingToken.underlyingTokenId, msg.sender);\n    }\n\n\n    event Transfer(\n        address indexed _from,\n        address indexed _to,\n        uint256 _amount\n    );\n\n    event Approval(\n    address indexed _owner,\n    address indexed _spender,\n    uint256 _amount\n    );\n\n}\n\n\n\n\n\n\n\n\n\n\n\n",
  "sourcePath": "/Users/anurag/Projects/tokenize-that/contracts/asset-tokenization-contract.sol",
  "compiler": {
    "name": "solc",
    "version": "0.5.0+commit.1d4f565a.Emscripten.clang"
  },
  "schemaVersion": "3.0.0",
  "updatedAt": "2019-02-15T21:48:34.693Z",
  "devdoc": {
    "methods": {
      "isOwner()": {
        "return": "true if `msg.sender` is the owner of the contract."
      },
      "owner()": {
        "return": "the address of the owner."
      },
      "renounceOwnership()": {
        "details": "Allows the current owner to relinquish control of the contract."
      },
      "transferOwnership(address)": {
        "details": "Allows the current owner to transfer control of the contract to a newOwner.",
        "params": {
          "newOwner": "The address to transfer ownership to."
        }
      }
    }
  },
  "userdoc": {
    "methods": {
      "renounceOwnership()": {
        "notice": "Renouncing to ownership will leave the contract without an owner. It will not be possible to call the functions with the `onlyOwner` modifier anymore."
      }
    }
  }
}