{
  "contractName": "AssetTokenizationContract",
  "abi": [
    {
      "constant": true,
      "inputs": [],
      "name": "name",
      "outputs": [
        {
          "name": "",
          "type": "string"
        }
      ],
      "payable": false,
      "stateMutability": "view",
      "type": "function"
    },
    {
      "constant": true,
      "inputs": [],
      "name": "tokenizeCore",
      "outputs": [
        {
          "name": "",
          "type": "address"
        }
      ],
      "payable": false,
      "stateMutability": "view",
      "type": "function"
    },
    {
      "constant": true,
      "inputs": [
        {
          "name": "",
          "type": "address"
        }
      ],
      "name": "balances",
      "outputs": [
        {
          "name": "",
          "type": "uint256"
        }
      ],
      "payable": false,
      "stateMutability": "view",
      "type": "function"
    },
    {
      "constant": true,
      "inputs": [],
      "name": "decimals",
      "outputs": [
        {
          "name": "",
          "type": "uint8"
        }
      ],
      "payable": false,
      "stateMutability": "view",
      "type": "function"
    },
    {
      "constant": true,
      "inputs": [
        {
          "name": "",
          "type": "address"
        }
      ],
      "name": "harbergerSetByUser",
      "outputs": [
        {
          "name": "userValue",
          "type": "uint256"
        },
        {
          "name": "userDuration",
          "type": "uint256"
        },
        {
          "name": "userStartTime",
          "type": "uint256"
        },
        {
          "name": "initialized",
          "type": "bool"
        }
      ],
      "payable": false,
      "stateMutability": "view",
      "type": "function"
    },
    {
      "constant": true,
      "inputs": [
        {
          "name": "",
          "type": "address"
        }
      ],
      "name": "escrowedByUser",
      "outputs": [
        {
          "name": "",
          "type": "uint256"
        }
      ],
      "payable": false,
      "stateMutability": "view",
      "type": "function"
    },
    {
      "constant": true,
      "inputs": [
        {
          "name": "",
          "type": "address"
        }
      ],
      "name": "accruedReimbursementByUser",
      "outputs": [
        {
          "name": "",
          "type": "uint256"
        }
      ],
      "payable": false,
      "stateMutability": "view",
      "type": "function"
    },
    {
      "constant": true,
      "inputs": [
        {
          "name": "",
          "type": "address"
        },
        {
          "name": "",
          "type": "address"
        }
      ],
      "name": "allowed",
      "outputs": [
        {
          "name": "",
          "type": "uint256"
        }
      ],
      "payable": false,
      "stateMutability": "view",
      "type": "function"
    },
    {
      "constant": true,
      "inputs": [],
      "name": "paymentAddress",
      "outputs": [
        {
          "name": "",
          "type": "address"
        }
      ],
      "payable": false,
      "stateMutability": "view",
      "type": "function"
    },
    {
      "constant": false,
      "inputs": [],
      "name": "renounceOwnership",
      "outputs": [],
      "payable": false,
      "stateMutability": "nonpayable",
      "type": "function"
    },
    {
      "constant": true,
      "inputs": [],
      "name": "taxRate",
      "outputs": [
        {
          "name": "",
          "type": "uint256"
        }
      ],
      "payable": false,
      "stateMutability": "view",
      "type": "function"
    },
    {
      "constant": true,
      "inputs": [],
      "name": "minimumShares",
      "outputs": [
        {
          "name": "",
          "type": "uint256"
        }
      ],
      "payable": false,
      "stateMutability": "view",
      "type": "function"
    },
    {
      "constant": true,
      "inputs": [],
      "name": "owner",
      "outputs": [
        {
          "name": "",
          "type": "address"
        }
      ],
      "payable": false,
      "stateMutability": "view",
      "type": "function"
    },
    {
      "constant": true,
      "inputs": [],
      "name": "isOwner",
      "outputs": [
        {
          "name": "",
          "type": "bool"
        }
      ],
      "payable": false,
      "stateMutability": "view",
      "type": "function"
    },
    {
      "constant": true,
      "inputs": [],
      "name": "symbol",
      "outputs": [
        {
          "name": "",
          "type": "string"
        }
      ],
      "payable": false,
      "stateMutability": "view",
      "type": "function"
    },
    {
      "constant": true,
      "inputs": [],
      "name": "taxAddress",
      "outputs": [
        {
          "name": "",
          "type": "address"
        }
      ],
      "payable": false,
      "stateMutability": "view",
      "type": "function"
    },
    {
      "constant": true,
      "inputs": [],
      "name": "contractUnderlyingToken",
      "outputs": [
        {
          "name": "underlyingTokenAddress",
          "type": "address"
        },
        {
          "name": "underlyingTokenId",
          "type": "uint256"
        }
      ],
      "payable": false,
      "stateMutability": "view",
      "type": "function"
    },
    {
      "constant": false,
      "inputs": [
        {
          "name": "newOwner",
          "type": "address"
        }
      ],
      "name": "transferOwnership",
      "outputs": [],
      "payable": false,
      "stateMutability": "nonpayable",
      "type": "function"
    },
    {
      "inputs": [
        {
          "name": "_underlyingTokenAddress",
          "type": "address"
        },
        {
          "name": "_underlyingTokenId",
          "type": "uint256"
        }
      ],
      "payable": false,
      "stateMutability": "nonpayable",
      "type": "constructor"
    },
    {
      "payable": false,
      "stateMutability": "nonpayable",
      "type": "fallback"
    },
    {
      "anonymous": false,
      "inputs": [
        {
          "indexed": false,
          "name": "g",
          "type": "bytes4"
        }
      ],
      "name": "checkIt",
      "type": "event"
    },
    {
      "anonymous": false,
      "inputs": [
        {
          "indexed": false,
          "name": "num",
          "type": "uint256"
        }
      ],
      "name": "testTransfer",
      "type": "event"
    },
    {
      "anonymous": false,
      "inputs": [
        {
          "indexed": true,
          "name": "_from",
          "type": "address"
        },
        {
          "indexed": true,
          "name": "_to",
          "type": "address"
        },
        {
          "indexed": false,
          "name": "_amount",
          "type": "uint256"
        }
      ],
      "name": "Transfer",
      "type": "event"
    },
    {
      "anonymous": false,
      "inputs": [
        {
          "indexed": true,
          "name": "_owner",
          "type": "address"
        },
        {
          "indexed": true,
          "name": "_spender",
          "type": "address"
        },
        {
          "indexed": false,
          "name": "_amount",
          "type": "uint256"
        }
      ],
      "name": "Approval",
      "type": "event"
    },
    {
      "anonymous": false,
      "inputs": [
        {
          "indexed": true,
          "name": "previousOwner",
          "type": "address"
        },
        {
          "indexed": true,
          "name": "newOwner",
          "type": "address"
        }
      ],
      "name": "OwnershipTransferred",
      "type": "event"
    },
    {
      "constant": true,
      "inputs": [],
      "name": "totalSupply",
      "outputs": [
        {
          "name": "",
          "type": "uint256"
        }
      ],
      "payable": false,
      "stateMutability": "view",
      "type": "function"
    },
    {
      "constant": false,
      "inputs": [
        {
          "name": "_erc20Name",
          "type": "string"
        },
        {
          "name": "_erc20Symbol",
          "type": "string"
        },
        {
          "name": "_erc20Decimals",
          "type": "uint8"
        }
      ],
      "name": "setERC20",
      "outputs": [],
      "payable": false,
      "stateMutability": "nonpayable",
      "type": "function"
    },
    {
      "constant": false,
      "inputs": [
        {
          "name": "_paymentAddress",
          "type": "address"
        },
        {
          "name": "_taxAddress",
          "type": "address"
        },
        {
          "name": "_minimumShares",
          "type": "uint256"
        },
        {
          "name": "_taxRate",
          "type": "uint256"
        },
        {
          "name": "_erc20Supply",
          "type": "uint256"
        }
      ],
      "name": "setMainInfo",
      "outputs": [],
      "payable": false,
      "stateMutability": "nonpayable",
      "type": "function"
    },
    {
      "constant": false,
      "inputs": [
        {
          "name": "_userValue",
          "type": "uint256"
        },
        {
          "name": "_userDuration",
          "type": "uint256"
        }
      ],
      "name": "setHarberger",
      "outputs": [],
      "payable": false,
      "stateMutability": "nonpayable",
      "type": "function"
    },
    {
      "constant": false,
      "inputs": [
        {
          "name": "_to",
          "type": "address"
        },
        {
          "name": "_value",
          "type": "uint256"
        }
      ],
      "name": "transfer",
      "outputs": [
        {
          "name": "success",
          "type": "bool"
        }
      ],
      "payable": false,
      "stateMutability": "nonpayable",
      "type": "function"
    },
    {
      "constant": false,
      "inputs": [
        {
          "name": "_from",
          "type": "address"
        },
        {
          "name": "_to",
          "type": "address"
        },
        {
          "name": "_value",
          "type": "uint256"
        }
      ],
      "name": "transferFrom",
      "outputs": [
        {
          "name": "success",
          "type": "bool"
        }
      ],
      "payable": false,
      "stateMutability": "nonpayable",
      "type": "function"
    },
    {
      "constant": false,
      "inputs": [
        {
          "name": "amount",
          "type": "uint256"
        }
      ],
      "name": "withdrawReimbursement",
      "outputs": [],
      "payable": false,
      "stateMutability": "nonpayable",
      "type": "function"
    },
    {
      "constant": false,
      "inputs": [
        {
          "name": "_logic",
          "type": "bytes"
        },
        {
          "name": "_driver",
          "type": "address"
        }
      ],
      "name": "execute",
      "outputs": [],
      "payable": false,
      "stateMutability": "nonpayable",
      "type": "function"
    },
    {
      "constant": true,
      "inputs": [
        {
          "name": "_owner",
          "type": "address"
        }
      ],
      "name": "balanceOf",
      "outputs": [
        {
          "name": "balance",
          "type": "uint256"
        }
      ],
      "payable": false,
      "stateMutability": "view",
      "type": "function"
    },
    {
      "constant": false,
      "inputs": [
        {
          "name": "_spender",
          "type": "address"
        },
        {
          "name": "_amount",
          "type": "uint256"
        }
      ],
      "name": "approve",
      "outputs": [
        {
          "name": "success",
          "type": "bool"
        }
      ],
      "payable": false,
      "stateMutability": "nonpayable",
      "type": "function"
    },
    {
      "constant": true,
      "inputs": [
        {
          "name": "_owner",
          "type": "address"
        },
        {
          "name": "_spender",
          "type": "address"
        }
      ],
      "name": "allowance",
      "outputs": [
        {
          "name": "remaining",
          "type": "uint256"
        }
      ],
      "payable": false,
      "stateMutability": "view",
      "type": "function"
    },
    {
      "constant": false,
      "inputs": [],
      "name": "unlockToken",
      "outputs": [],
      "payable": false,
      "stateMutability": "nonpayable",
      "type": "function"
    }
  ],
  "bytecode": "0x6080604052600360009054906101000a900473ffffffffffffffffffffffffffffffffffffffff16600c60006101000a81548173ffffffffffffffffffffffffffffffffffffffff021916908373ffffffffffffffffffffffffffffffffffffffff160217905550600160125534801561007857600080fd5b506040516040806130508339810180604052604081101561009857600080fd5b810190808051906020019092919080519060200190929190505050336000806101000a81548173ffffffffffffffffffffffffffffffffffffffff021916908373ffffffffffffffffffffffffffffffffffffffff1602179055506000809054906101000a900473ffffffffffffffffffffffffffffffffffffffff1673ffffffffffffffffffffffffffffffffffffffff16600073ffffffffffffffffffffffffffffffffffffffff167f8be0079c531659141344cd1fd0a4f28419497f9722a3daafe3b4186f6b6457e060405160405180910390a333600460006101000a81548173ffffffffffffffffffffffffffffffffffffffff021916908373ffffffffffffffffffffffffffffffffffffffff16021790555081600160000160006101000a81548173ffffffffffffffffffffffffffffffffffffffff021916908373ffffffffffffffffffffffffffffffffffffffff1602179055508060018001819055505050612e428061020e6000396000f3fe608060405260043610610180576000357c0100000000000000000000000000000000000000000000000000000000900463ffffffff16806306fdde031461018f578063095ea7b31461021f57806309fe2a581461029257806318160ddd146102e957806318a24b5b1461031457806323b872dd1461032b57806327e235e3146103be578063313ce5671461042357806332b72ffd146104545780634a4f5a1c146104d25780635563ad6d146105375780635c6581651461059c578063633423be1461062157806367eaf072146106785780636accdc13146106b357806370a082311461079b578063715018a614610800578063771a3a1d146108175780638b66b27e146108425780638d78fd0b146108875780638da5cb5b146108b25780638f32d59b146109095780639487e08f1461093857806395d89b41146109c7578063a9059cbb14610a57578063b7bda68f14610aca578063bcdea4f214610b21578063dd62ed3e14610b7f578063eaf6851214610c04578063f2fde38b14610cec575b34801561018c57600080fd5b50005b34801561019b57600080fd5b506101a4610d3d565b6040518080602001828103825283818151815260200191508051906020019080838360005b838110156101e45780820151818401526020810190506101c9565b50505050905090810190601f1680156102115780820380516001836020036101000a031916815260200191505b509250505060405180910390f35b34801561022b57600080fd5b506102786004803603604081101561024257600080fd5b81019080803573ffffffffffffffffffffffffffffffffffffffff16906020019092919080359060200190929190505050610ddb565b604051808215151515815260200191505060405180910390f35b34801561029e57600080fd5b506102a7610f62565b604051808273ffffffffffffffffffffffffffffffffffffffff1673ffffffffffffffffffffffffffffffffffffffff16815260200191505060405180910390f35b3480156102f557600080fd5b506102fe610f88565b6040518082815260200191505060405180910390f35b34801561032057600080fd5b50610329610f92565b005b34801561033757600080fd5b506103a46004803603606081101561034e57600080fd5b81019080803573ffffffffffffffffffffffffffffffffffffffff169060200190929190803573ffffffffffffffffffffffffffffffffffffffff16906020019092919080359060200190929190505050611153565b604051808215151515815260200191505060405180910390f35b3480156103ca57600080fd5b5061040d600480360360208110156103e157600080fd5b81019080803573ffffffffffffffffffffffffffffffffffffffff169060200190929190505050611c94565b6040518082815260200191505060405180910390f35b34801561042f57600080fd5b50610438611cac565b604051808260ff1660ff16815260200191505060405180910390f35b34801561046057600080fd5b506104a36004803603602081101561047757600080fd5b81019080803573ffffffffffffffffffffffffffffffffffffffff169060200190929190505050611cbf565b604051808581526020018481526020018381526020018215151515815260200194505050505060405180910390f35b3480156104de57600080fd5b50610521600480360360208110156104f557600080fd5b81019080803573ffffffffffffffffffffffffffffffffffffffff169060200190929190505050611cfc565b6040518082815260200191505060405180910390f35b34801561054357600080fd5b506105866004803603602081101561055a57600080fd5b81019080803573ffffffffffffffffffffffffffffffffffffffff169060200190929190505050611d14565b6040518082815260200191505060405180910390f35b3480156105a857600080fd5b5061060b600480360360408110156105bf57600080fd5b81019080803573ffffffffffffffffffffffffffffffffffffffff169060200190929190803573ffffffffffffffffffffffffffffffffffffffff169060200190929190505050611d2c565b6040518082815260200191505060405180910390f35b34801561062d57600080fd5b50610636611d51565b604051808273ffffffffffffffffffffffffffffffffffffffff1673ffffffffffffffffffffffffffffffffffffffff16815260200191505060405180910390f35b34801561068457600080fd5b506106b16004803603602081101561069b57600080fd5b8101908080359060200190929190505050611d77565b005b3480156106bf57600080fd5b50610799600480360360408110156106d657600080fd5b81019080803590602001906401000000008111156106f357600080fd5b82018360208201111561070557600080fd5b8035906020019184600183028401116401000000008311171561072757600080fd5b91908080601f016020809104026020016040519081016040528093929190818152602001838380828437600081840152601f19601f820116905080830192505050505050509192919290803573ffffffffffffffffffffffffffffffffffffffff169060200190929190505050611f16565b005b3480156107a757600080fd5b506107ea600480360360208110156107be57600080fd5b81019080803573ffffffffffffffffffffffffffffffffffffffff169060200190929190505050612043565b6040518082815260200191505060405180910390f35b34801561080c57600080fd5b5061081561208c565b005b34801561082357600080fd5b5061082c61215e565b6040518082815260200191505060405180910390f35b34801561084e57600080fd5b506108856004803603604081101561086557600080fd5b810190808035906020019092919080359060200190929190505050612164565b005b34801561089357600080fd5b5061089c612669565b6040518082815260200191505060405180910390f35b3480156108be57600080fd5b506108c761266f565b604051808273ffffffffffffffffffffffffffffffffffffffff1673ffffffffffffffffffffffffffffffffffffffff16815260200191505060405180910390f35b34801561091557600080fd5b5061091e612698565b604051808215151515815260200191505060405180910390f35b34801561094457600080fd5b506109c5600480360360a081101561095b57600080fd5b81019080803573ffffffffffffffffffffffffffffffffffffffff169060200190929190803573ffffffffffffffffffffffffffffffffffffffff1690602001909291908035906020019092919080359060200190929190803590602001909291905050506126ef565b005b3480156109d357600080fd5b506109dc61282d565b6040518080602001828103825283818151815260200191508051906020019080838360005b83811015610a1c578082015181840152602081019050610a01565b50505050905090810190601f168015610a495780820380516001836020036101000a031916815260200191505b509250505060405180910390f35b348015610a6357600080fd5b50610ab060048036036040811015610a7a57600080fd5b81019080803573ffffffffffffffffffffffffffffffffffffffff169060200190929190803590602001909291905050506128cb565b604051808215151515815260200191505060405180910390f35b348015610ad657600080fd5b50610adf612ad7565b604051808273ffffffffffffffffffffffffffffffffffffffff1673ffffffffffffffffffffffffffffffffffffffff16815260200191505060405180910390f35b348015610b2d57600080fd5b50610b36612afd565b604051808373ffffffffffffffffffffffffffffffffffffffff1673ffffffffffffffffffffffffffffffffffffffff1681526020018281526020019250505060405180910390f35b348015610b8b57600080fd5b50610bee60048036036040811015610ba257600080fd5b81019080803573ffffffffffffffffffffffffffffffffffffffff169060200190929190803573ffffffffffffffffffffffffffffffffffffffff169060200190929190505050612b2f565b6040518082815260200191505060405180910390f35b348015610c1057600080fd5b50610cea60048036036060811015610c2757600080fd5b8101908080359060200190640100000000811115610c4457600080fd5b820183602082011115610c5657600080fd5b80359060200191846001830284011164010000000083111715610c7857600080fd5b909192939192939080359060200190640100000000811115610c9957600080fd5b820183602082011115610cab57600080fd5b80359060200191846001830284011164010000000083111715610ccd57600080fd5b9091929391929390803560ff169060200190929190505050612bb6565b005b348015610cf857600080fd5b50610d3b60048036036020811015610d0f57600080fd5b81019080803573ffffffffffffffffffffffffffffffffffffffff169060200190929190505050612c58565b005b60078054600181600116156101000203166002900480601f016020809104026020016040519081016040528092919081815260200182805460018160011615610100020316600290048015610dd35780601f10610da857610100808354040283529160200191610dd3565b820191906000526020600020905b815481529060010190602001808311610db657829003601f168201915b505050505081565b600080821480610e6757506000600e60003373ffffffffffffffffffffffffffffffffffffffff1673ffffffffffffffffffffffffffffffffffffffff16815260200190815260200160002060008573ffffffffffffffffffffffffffffffffffffffff1673ffffffffffffffffffffffffffffffffffffffff16815260200190815260200160002054145b1515610e7257600080fd5b81600e60003373ffffffffffffffffffffffffffffffffffffffff1673ffffffffffffffffffffffffffffffffffffffff16815260200190815260200160002060008573ffffffffffffffffffffffffffffffffffffffff1673ffffffffffffffffffffffffffffffffffffffff168152602001908152602001600020819055508273ffffffffffffffffffffffffffffffffffffffff163373ffffffffffffffffffffffffffffffffffffffff167f8c5be1e5ebec7d5bd14f71427d1e84f3dd0314c0f7b2291e5b200ac8c7c3b925846040518082815260200191505060405180910390a36001905092915050565b600460009054906101000a900473ffffffffffffffffffffffffffffffffffffffff1681565b6000600654905090565b600654600d60003373ffffffffffffffffffffffffffffffffffffffff1673ffffffffffffffffffffffffffffffffffffffff16815260200190815260200160002054141515610fe157600080fd5b61101033600460009054906101000a900473ffffffffffffffffffffffffffffffffffffffff16600654611153565b506000600460009054906101000a900473ffffffffffffffffffffffffffffffffffffffff1690508073ffffffffffffffffffffffffffffffffffffffff16635a9c78ab600160000160009054906101000a900473ffffffffffffffffffffffffffffffffffffffff166001800154336040518463ffffffff167c0100000000000000000000000000000000000000000000000000000000028152600401808473ffffffffffffffffffffffffffffffffffffffff1673ffffffffffffffffffffffffffffffffffffffff1681526020018381526020018273ffffffffffffffffffffffffffffffffffffffff1673ffffffffffffffffffffffffffffffffffffffff1681526020019350505050600060405180830381600087803b15801561113857600080fd5b505af115801561114c573d6000803e3d6000fd5b5050505050565b6000600460009054906101000a900473ffffffffffffffffffffffffffffffffffffffff1673ffffffffffffffffffffffffffffffffffffffff168473ffffffffffffffffffffffffffffffffffffffff16141515156111f6576040517f08c379a0000000000000000000000000000000000000000000000000000000008152600401808060200182810382526000815260200160200191505060405180910390fd5b60008211151561126e576040517f08c379a000000000000000000000000000000000000000000000000000000000815260040180806020018281038252601c8152602001807f76616c7565206d7573742062652067726561746572207468616e20300000000081525060200191505060405180910390fd5b60011515600f60008573ffffffffffffffffffffffffffffffffffffffff1673ffffffffffffffffffffffffffffffffffffffff16815260200190815260200160002060030160009054906101000a900460ff161515148061131d5750600460009054906101000a900473ffffffffffffffffffffffffffffffffffffffff1673ffffffffffffffffffffffffffffffffffffffff168373ffffffffffffffffffffffffffffffffffffffff16145b15156113b7576040517f08c379a00000000000000000000000000000000000000000000000000000000081526004018080602001828103825260258152602001807f726563697069656e74206d75737420686176652068617262657267657220746181526020017f782073657400000000000000000000000000000000000000000000000000000081525060400191505060405180910390fd5b600b5482600d60008673ffffffffffffffffffffffffffffffffffffffff1673ffffffffffffffffffffffffffffffffffffffff1681526020019081526020016000205401101580156114995750600b5482600d60008773ffffffffffffffffffffffffffffffffffffffff1673ffffffffffffffffffffffffffffffffffffffff16815260200190815260200160002054031015806114985750600082600d60008773ffffffffffffffffffffffffffffffffffffffff1673ffffffffffffffffffffffffffffffffffffffff1681526020019081526020016000205403145b5b15156114a457600080fd5b3073ffffffffffffffffffffffffffffffffffffffff168473ffffffffffffffffffffffffffffffffffffffff161415156116c657600c60009054906101000a900473ffffffffffffffffffffffffffffffffffffffff1673ffffffffffffffffffffffffffffffffffffffff166323b872dd848685600f60008a73ffffffffffffffffffffffffffffffffffffffff1673ffffffffffffffffffffffffffffffffffffffff16815260200190815260200160002060000154026040518463ffffffff167c0100000000000000000000000000000000000000000000000000000000028152600401808473ffffffffffffffffffffffffffffffffffffffff1673ffffffffffffffffffffffffffffffffffffffff1681526020018373ffffffffffffffffffffffffffffffffffffffff1673ffffffffffffffffffffffffffffffffffffffff1681526020018281526020019350505050602060405180830381600087803b15801561161657600080fd5b505af115801561162a573d6000803e3d6000fd5b505050506040513d602081101561164057600080fd5b810190808051906020019092919050505015156116c5576040517f08c379a000000000000000000000000000000000000000000000000000000000815260040180806020018281038252601d8152602001807f5061796d656e7420746f20746f6b656e206f776e6572206661696c656400000081525060200191505060405180910390fd5b5b3073ffffffffffffffffffffffffffffffffffffffff168473ffffffffffffffffffffffffffffffffffffffff16141515611bbc576000600f60008673ffffffffffffffffffffffffffffffffffffffff1673ffffffffffffffffffffffffffffffffffffffff16815260200190815260200160002060010154600f60008773ffffffffffffffffffffffffffffffffffffffff1673ffffffffffffffffffffffffffffffffffffffff16815260200190815260200160002060020154420360640281151561179157fe5b049050600c60009054906101000a900473ffffffffffffffffffffffffffffffffffffffff1673ffffffffffffffffffffffffffffffffffffffff1663a9059cbb600560009054906101000a900473ffffffffffffffffffffffffffffffffffffffff1683600f60008a73ffffffffffffffffffffffffffffffffffffffff1673ffffffffffffffffffffffffffffffffffffffff16815260200190815260200160002060000154600a5402026040518363ffffffff167c0100000000000000000000000000000000000000000000000000000000028152600401808373ffffffffffffffffffffffffffffffffffffffff1673ffffffffffffffffffffffffffffffffffffffff16815260200182815260200192505050602060405180830381600087803b1580156118c357600080fd5b505af11580156118d7573d6000803e3d6000fd5b505050506040513d60208110156118ed57600080fd5b810190808051906020019092919050505050600c60009054906101000a900473ffffffffffffffffffffffffffffffffffffffff1673ffffffffffffffffffffffffffffffffffffffff1663a9059cbb8683600103600f60008a73ffffffffffffffffffffffffffffffffffffffff1673ffffffffffffffffffffffffffffffffffffffff16815260200190815260200160002060000154600a5402026040518363ffffffff167c0100000000000000000000000000000000000000000000000000000000028152600401808373ffffffffffffffffffffffffffffffffffffffff1673ffffffffffffffffffffffffffffffffffffffff16815260200182815260200192505050602060405180830381600087803b158015611a0f57600080fd5b505af1158015611a23573d6000803e3d6000fd5b505050506040513d6020811015611a3957600080fd5b810190808051906020019092919050505050600f60008673ffffffffffffffffffffffffffffffffffffffff1673ffffffffffffffffffffffffffffffffffffffff16815260200190815260200160002060010154600f60008773ffffffffffffffffffffffffffffffffffffffff1673ffffffffffffffffffffffffffffffffffffffff16815260200190815260200160002060000154600a540202601060008773ffffffffffffffffffffffffffffffffffffffff1673ffffffffffffffffffffffffffffffffffffffff1681526020019081526020016000206000828254039250508190555080600103600f60008773ffffffffffffffffffffffffffffffffffffffff1673ffffffffffffffffffffffffffffffffffffffff16815260200190815260200160002060000154600a540202601160008773ffffffffffffffffffffffffffffffffffffffff1673ffffffffffffffffffffffffffffffffffffffff16815260200190815260200160002060008282540192505081905550505b6000600f60008573ffffffffffffffffffffffffffffffffffffffff1673ffffffffffffffffffffffffffffffffffffffff16815260200190815260200160002060010154600f60008673ffffffffffffffffffffffffffffffffffffffff1673ffffffffffffffffffffffffffffffffffffffff168152602001908152602001600020600201544203606402811515611c5257fe5b0490507f040821fcca34311ef45a94a9642814fbd0bc0ad233cba17286f086261a7e58f9816040518082815260200191505060405180910390a1509392505050565b600d6020528060005260406000206000915090505481565b600960009054906101000a900460ff1681565b600f6020528060005260406000206000915090508060000154908060010154908060020154908060030160009054906101000a900460ff16905084565b60106020528060005260406000206000915090505481565b60116020528060005260406000206000915090505481565b600e602052816000526040600020602052806000526040600020600091509150505481565b600360009054906101000a900473ffffffffffffffffffffffffffffffffffffffff1681565b80601160003373ffffffffffffffffffffffffffffffffffffffff1673ffffffffffffffffffffffffffffffffffffffff1681526020019081526020016000205410151515611dc557600080fd5b80601160003373ffffffffffffffffffffffffffffffffffffffff1673ffffffffffffffffffffffffffffffffffffffff16815260200190815260200160002060008282540392505081905550600c60009054906101000a900473ffffffffffffffffffffffffffffffffffffffff1673ffffffffffffffffffffffffffffffffffffffff1663a9059cbb33836040518363ffffffff167c0100000000000000000000000000000000000000000000000000000000028152600401808373ffffffffffffffffffffffffffffffffffffffff1673ffffffffffffffffffffffffffffffffffffffff16815260200182815260200192505050602060405180830381600087803b158015611ed757600080fd5b505af1158015611eeb573d6000803e3d6000fd5b505050506040513d6020811015611f0157600080fd5b81019080805190602001909291905050505050565b611f1e612698565b1515611f2957600080fd5b60008190508073ffffffffffffffffffffffffffffffffffffffff1663089b0aeb846040518263ffffffff167c01000000000000000000000000000000000000000000000000000000000281526004018080602001828103825283818151815260200191508051906020019080838360005b83811015611fb6578082015181840152602081019050611f9b565b50505050905090810190601f168015611fe35780820380516001836020036101000a031916815260200191505b5092505050602060405180830381600087803b15801561200257600080fd5b505af1158015612016573d6000803e3d6000fd5b505050506040513d602081101561202c57600080fd5b810190808051906020019092919050505050505050565b6000600d60008373ffffffffffffffffffffffffffffffffffffffff1673ffffffffffffffffffffffffffffffffffffffff168152602001908152602001600020549050919050565b612094612698565b151561209f57600080fd5b600073ffffffffffffffffffffffffffffffffffffffff166000809054906101000a900473ffffffffffffffffffffffffffffffffffffffff1673ffffffffffffffffffffffffffffffffffffffff167f8be0079c531659141344cd1fd0a4f28419497f9722a3daafe3b4186f6b6457e060405160405180910390a360008060006101000a81548173ffffffffffffffffffffffffffffffffffffffff021916908373ffffffffffffffffffffffffffffffffffffffff160217905550565b600a5481565b6000821415151561217457600080fd5b6000811415151561218457600080fd5b60011515600f60003373ffffffffffffffffffffffffffffffffffffffff1673ffffffffffffffffffffffffffffffffffffffff16815260200190815260200160002060030160009054906101000a900460ff161515141515612241576001600f60003373ffffffffffffffffffffffffffffffffffffffff1673ffffffffffffffffffffffffffffffffffffffff16815260200190815260200160002060030160006101000a81548160ff021916908315150217905550612590565b6000600f60003373ffffffffffffffffffffffffffffffffffffffff1673ffffffffffffffffffffffffffffffffffffffff16815260200190815260200160002060010154600f60003373ffffffffffffffffffffffffffffffffffffffff1673ffffffffffffffffffffffffffffffffffffffff1681526020019081526020016000206002015442038115156122d457fe5b049050600c60009054906101000a900473ffffffffffffffffffffffffffffffffffffffff1673ffffffffffffffffffffffffffffffffffffffff1663a9059cbb600560009054906101000a900473ffffffffffffffffffffffffffffffffffffffff1683600f60003373ffffffffffffffffffffffffffffffffffffffff1673ffffffffffffffffffffffffffffffffffffffff16815260200190815260200160002060000154600a5402026040518363ffffffff167c0100000000000000000000000000000000000000000000000000000000028152600401808373ffffffffffffffffffffffffffffffffffffffff1673ffffffffffffffffffffffffffffffffffffffff16815260200182815260200192505050602060405180830381600087803b15801561240657600080fd5b505af115801561241a573d6000803e3d6000fd5b505050506040513d602081101561243057600080fd5b810190808051906020019092919050505050600c60009054906101000a900473ffffffffffffffffffffffffffffffffffffffff1673ffffffffffffffffffffffffffffffffffffffff1663a9059cbb3383600103600f60003373ffffffffffffffffffffffffffffffffffffffff1673ffffffffffffffffffffffffffffffffffffffff16815260200190815260200160002060000154600a5402026040518363ffffffff167c0100000000000000000000000000000000000000000000000000000000028152600401808373ffffffffffffffffffffffffffffffffffffffff1673ffffffffffffffffffffffffffffffffffffffff16815260200182815260200192505050602060405180830381600087803b15801561255257600080fd5b505af1158015612566573d6000803e3d6000fd5b505050506040513d602081101561257c57600080fd5b810190808051906020019092919050505050505b81600f60003373ffffffffffffffffffffffffffffffffffffffff1673ffffffffffffffffffffffffffffffffffffffff1681526020019081526020016000206000018190555080600f60003373ffffffffffffffffffffffffffffffffffffffff1673ffffffffffffffffffffffffffffffffffffffff1681526020019081526020016000206001018190555042600f60003373ffffffffffffffffffffffffffffffffffffffff1673ffffffffffffffffffffffffffffffffffffffff168152602001908152602001600020600201819055505050565b600b5481565b60008060009054906101000a900473ffffffffffffffffffffffffffffffffffffffff16905090565b60008060009054906101000a900473ffffffffffffffffffffffffffffffffffffffff1673ffffffffffffffffffffffffffffffffffffffff163373ffffffffffffffffffffffffffffffffffffffff1614905090565b600460009054906101000a900473ffffffffffffffffffffffffffffffffffffffff1673ffffffffffffffffffffffffffffffffffffffff163373ffffffffffffffffffffffffffffffffffffffff1614151561274b57600080fd5b84600360006101000a81548173ffffffffffffffffffffffffffffffffffffffff021916908373ffffffffffffffffffffffffffffffffffffffff16021790555083600560006101000a81548173ffffffffffffffffffffffffffffffffffffffff021916908373ffffffffffffffffffffffffffffffffffffffff16021790555082600b8190555081600a819055508060068190555080600d60003073ffffffffffffffffffffffffffffffffffffffff1673ffffffffffffffffffffffffffffffffffffffff168152602001908152602001600020819055505050505050565b60088054600181600116156101000203166002900480601f0160208091040260200160405190810160405280929190818152602001828054600181600116156101000203166002900480156128c35780601f10612898576101008083540402835291602001916128c3565b820191906000526020600020905b8154815290600101906020018083116128a657829003601f168201915b505050505081565b6000600460009054906101000a900473ffffffffffffffffffffffffffffffffffffffff1673ffffffffffffffffffffffffffffffffffffffff163373ffffffffffffffffffffffffffffffffffffffff161415151561292a57600080fd5b60011515600f60008573ffffffffffffffffffffffffffffffffffffffff1673ffffffffffffffffffffffffffffffffffffffff16815260200190815260200160002060030160009054906101000a900460ff16151514806129d95750600460009054906101000a900473ffffffffffffffffffffffffffffffffffffffff1673ffffffffffffffffffffffffffffffffffffffff168373ffffffffffffffffffffffffffffffffffffffff16145b15156129e457600080fd5b600b5482600d60008673ffffffffffffffffffffffffffffffffffffffff1673ffffffffffffffffffffffffffffffffffffffff168152602001908152602001600020540110158015612ac65750600b5482600d60003373ffffffffffffffffffffffffffffffffffffffff1673ffffffffffffffffffffffffffffffffffffffff1681526020019081526020016000205403101580612ac55750600082600d60003373ffffffffffffffffffffffffffffffffffffffff1673ffffffffffffffffffffffffffffffffffffffff1681526020019081526020016000205403145b5b1515612ad157600080fd5b92915050565b600560009054906101000a900473ffffffffffffffffffffffffffffffffffffffff1681565b60018060000160009054906101000a900473ffffffffffffffffffffffffffffffffffffffff16908060010154905082565b6000600e60008473ffffffffffffffffffffffffffffffffffffffff1673ffffffffffffffffffffffffffffffffffffffff16815260200190815260200160002060008373ffffffffffffffffffffffffffffffffffffffff1673ffffffffffffffffffffffffffffffffffffffff16815260200190815260200160002054905092915050565b600460009054906101000a900473ffffffffffffffffffffffffffffffffffffffff1673ffffffffffffffffffffffffffffffffffffffff163373ffffffffffffffffffffffffffffffffffffffff16141515612c1257600080fd5b848460079190612c23929190612d71565b50828260089190612c35929190612d71565b5080600960006101000a81548160ff021916908360ff1602179055505050505050565b612c60612698565b1515612c6b57600080fd5b612c7481612c77565b50565b600073ffffffffffffffffffffffffffffffffffffffff168173ffffffffffffffffffffffffffffffffffffffff1614151515612cb357600080fd5b8073ffffffffffffffffffffffffffffffffffffffff166000809054906101000a900473ffffffffffffffffffffffffffffffffffffffff1673ffffffffffffffffffffffffffffffffffffffff167f8be0079c531659141344cd1fd0a4f28419497f9722a3daafe3b4186f6b6457e060405160405180910390a3806000806101000a81548173ffffffffffffffffffffffffffffffffffffffff021916908373ffffffffffffffffffffffffffffffffffffffff16021790555050565b828054600181600116156101000203166002900490600052602060002090601f016020900481019282601f10612db257803560ff1916838001178555612de0565b82800160010185558215612de0579182015b82811115612ddf578235825591602001919060010190612dc4565b5b509050612ded9190612df1565b5090565b612e1391905b80821115612e0f576000816000905550600101612df7565b5090565b9056fea165627a7a723058208efb0ecff97f6a1a951041b33ea6283db50f854c72d6172ab2fcaf4e3a9c6b050029",
  "source": "pragma solidity ^0.5.0;\n\nimport 'openzeppelin-solidity/contracts/token/ERC20/ERC20.sol';\nimport 'openzeppelin-solidity/contracts/token/ERC20/IERC20.sol';\nimport 'openzeppelin-solidity/contracts/ownership/Ownable.sol';\nimport \"./deployment-core-example.sol\";\nimport \"./deployment-core-interface.sol\";\nimport \"./driver-core.sol\";\nimport \"./tokenize-core-interface.sol\";\n\n\n\ncontract AssetTokenizationContract is IERC20, Ownable {\n\n    //contract variables\n    //the ERC721 token locked to create the shares denominated in this ERC20 token\n    UnderlyingToken public contractUnderlyingToken;\n    // the token in which payments for shares are to be made\n    address public paymentAddress;\n    address public tokenizeCore;\n    address public taxAddress;\n\n\n    uint256 private _totalSupply;\n    string public name;\n    string public symbol;\n    uint8 public decimals;\n    uint256 public taxRate;\n    uint256 public minimumShares;\n\n    IERC20 paymentAddressInstance = IERC20(paymentAddress);\n    \n\n    //structs\n    struct UnderlyingToken{\n        address underlyingTokenAddress;\n        uint256 underlyingTokenId;\n    }\n\n    event checkIt(bytes4 g);\n\n    struct HarbergerSet{\n        // denominated in paymentAddress - i.e. .5 = .5 shares per Dai\n        uint256 userValue;\n        //duration in seconds\n        uint256  userDuration;\n        uint256  userStartTime;\n        bool initialized;\n    }\n\n\n    //mappings\n    mapping (address => uint256) public balances;\n    mapping (address => mapping (address => uint256)) public allowed;\n    mapping (address => HarbergerSet) public harbergerSetByUser;\n    mapping (address => uint) public escrowedByUser;\n    mapping (address => uint) public accruedReimbursementByUser;\n\n    constructor (\n        address _underlyingTokenAddress, \n        uint _underlyingTokenId) public\n    {\n        tokenizeCore = msg.sender;\n        contractUnderlyingToken.underlyingTokenAddress = _underlyingTokenAddress;\n        contractUnderlyingToken.underlyingTokenId = _underlyingTokenId;\n\n    }\n\n    modifier tokenizeCoreOnly{\n        require(msg.sender == tokenizeCore);\n        _;\n    }\n\n    function totalSupply() external view returns (uint256){\n        return _totalSupply;\n    }\n\n    function setERC20(string calldata _erc20Name, string calldata _erc20Symbol, uint8 _erc20Decimals) external tokenizeCoreOnly {\n        name = _erc20Name;\n        symbol = _erc20Symbol;\n        decimals = _erc20Decimals;\n    }\n\n    function setMainInfo(address _paymentAddress, address _taxAddress, uint256 _minimumShares, uint256 _taxRate, uint256 _erc20Supply) external tokenizeCoreOnly {\n        paymentAddress = _paymentAddress;\n        taxAddress = _taxAddress;\n        minimumShares = _minimumShares;\n        taxRate = _taxRate;\n        _totalSupply = _erc20Supply;\n        balances[address(this)] = _erc20Supply;\n    }\n\n    // function setDistributionInfo(address _distributionAddress, bytes calldata _deploymentData) external tokenizeCoreOnly returns (string memory) {\n        //Actually, I don't think distribution flag is needed since it's tokenizeCoreOnly; \n        //will think more about this later\n        // require(distributionFlag == 0);\n        \n        \n        // set distribution address\n        //distribute initially\n        // DeploymentCoreInterface instanceDeploymentCore = DeploymentCoreInterface();\n        //     instanceDeploymentCore.onReceipt(totalSupply, _deploymentData);\n            // bytes4 g = DeploymentCoreInterface(_distributionAddress).onReceipt(totalSupply, _deploymentData);\n            // emit checkIt(g);\n            // if(instanceDeploymentCore.onReceipt(_totalSupply, _deploymentData) == bytes4(keccak256(\"onReceipt(address,uint,bytes)\"))){\n            //     distributionFlag++;\n            //     return \"success\";\n            // }\n            // else{\n            //     return \"err: unable to distribute initial tokens\";\n            // }\n    // }\n\n\n   function setHarberger (uint _userValue, uint _userDuration) public {\n        require (_userValue != 0);\n        require (_userDuration != 0);\n\n        if(harbergerSetByUser[msg.sender].initialized != true){\n        harbergerSetByUser[msg.sender].initialized = true;\n        } else{\n        //close out existing position\n        uint256 taxedPortion = (now - harbergerSetByUser[msg.sender].userStartTime) / harbergerSetByUser[msg.sender].userDuration;\n        paymentAddressInstance.transfer(taxAddress, taxRate * harbergerSetByUser[msg.sender].userValue * taxedPortion);\n        paymentAddressInstance.transfer(msg.sender, taxRate * harbergerSetByUser[msg.sender].userValue * (1-taxedPortion));\n\n        }\n\n        harbergerSetByUser[msg.sender].userValue = _userValue;\n        harbergerSetByUser[msg.sender].userDuration = _userDuration;\n        harbergerSetByUser[msg.sender].userStartTime = now;\n    }\n\n    uint256 num = 1;\n\n    event testTransfer(uint256 num);\n\n    function transfer(address _to, uint256 _value) public returns (bool success) {\n        // makes sure that once the underlying asset is unlocked, the tokens are destroyed\n        require (msg.sender != tokenizeCore);\n        // require (_value > 0, \"value must be greater than 0\");\n        require ((harbergerSetByUser[_to].initialized == true) || (_to == tokenizeCore));\n        \n        require (balances[_to] + _value >= minimumShares && ((balances[msg.sender] - _value >= minimumShares) || balances[msg.sender] - _value == 0));\n\n        // if (balances[msg.sender] >= _value && _value > 0) {\n        //     doTransfer(msg.sender, _to, _value);\n        //     return true;\n        // } else { return false; }\n    }\n\n\n    function transferFrom(address _from, address _to, uint256 _value) public returns (bool success) {\n        /*todo offer a version of this function where recipient can change their duration/value within the function call\n        will be same params + uint _userDuration, uint _userValue; these will be set before determining escrow price\n        */\n\n        //make sure once the erc721 token is unlocked, tokens are destroyed\n        require (_from != tokenizeCore, \"\");\n        require (_value > 0, \"value must be greater than 0\");\n\n        //make sure recipient has harberger tax value and duration set\n        require (harbergerSetByUser[_to].initialized == true || _to == tokenizeCore, \"recipient must have harberger tax set\");\n\n        //if there's a minimumShares, make sure it's enforced by both sender and receiver after the tx\n        require (balances[_to] + _value >= minimumShares && (balances[_from] - _value >= minimumShares || balances[_from] - _value == 0));\n\n        \n        \n        // unless it's initial distribution, let's make sure we pay the _from when we're taking their shares\n        // _to should send _from (how much _from values each share) * (number of shares being taken)\n        //if you want this to be synchronous, call approveAndCall if implemented on the token contract, then call this function\n        if (_from != address(this)){\n            require (paymentAddressInstance.transferFrom(_to, _from, (harbergerSetByUser[_from].userValue * _value)), \"Payment to token owner failed\");\n        }\n\n        //but they've still gotta pay taxes on any previously held tokens!\n        if(_from != address(this)){\n        uint256 _senderTaxedPortion = 100 * (now - harbergerSetByUser[_from].userStartTime) / harbergerSetByUser[_from].userDuration;\n        paymentAddressInstance.transfer(taxAddress, taxRate * harbergerSetByUser[_from].userValue * _senderTaxedPortion);\n        paymentAddressInstance.transfer(_from, taxRate * harbergerSetByUser[_from].userValue * (1 - _senderTaxedPortion));\n        escrowedByUser[_from] -= taxRate * harbergerSetByUser[_from].userValue * harbergerSetByUser[_from].userDuration;\n        accruedReimbursementByUser[_from] += taxRate * harbergerSetByUser[_from].userValue * (1 - _senderTaxedPortion);\n        }\n        // //let's clear out the recipient's escrow as well, so we can reset their userStartTime and make them a new escrow\n        uint256 _recipientTaxedPortion = 100 * (now - harbergerSetByUser[_to].userStartTime) / harbergerSetByUser[_to].userDuration; \n        // //toconsider - instead of paying out the taxes, consider adding them to a state variable and paying it all out at once; \n        // //changes the economics of it though, so need to think through this\n        // paymentAddressInstance.transfer(taxAddress, taxRate * harbergerSetByUser[_to].userValue * _recipientTaxedPortion);\n\n        // paymentAddressInstance.transfer(_to, taxRate * harbergerSetByUser[_to].userValue * (1 - _recipientTaxedPortion));\n\n\n        // escrowedByUser[_to] -= taxRate * harbergerSetByUser[_from].userValue * harbergerSetByUser[_from].userDuration;\n        // accruedReimbursementByUser[_to] += taxRate * harbergerSetByUser[_from].userValue * (1 - _senderTaxedPortion);\n            \n        \n\n        // //recipient now needs to escrow, so one day they can pay taxes and get reimbursed and all that fun stuff\n        // paymentAddressInstance.transferFrom(_to, address(this), (harbergerSetByUser[_to].userValue * harbergerSetByUser[_to].userDuration * _value));\n        // escrowedByUser[_to] = harbergerSetByUser[_to].userValue * harbergerSetByUser[_to].userDuration * _value;\n        // harbergerSetByUser[_to].userStartTime = now;\n        \n        emit testTransfer(_recipientTaxedPortion);\n\n        // if (balances[_from] >= _value && _value > 0) {\n        //     doTransfer(_from, _to, _value);\n        //     return true;\n        // } else { return false; }\n    }\n\n    function doTransfer(address _from, address _to, uint256 _value) internal {\n        require((_to != address(0)) && (_to != address(this)));\n        require(_value <= balances[_from]);\n        balances[_from] -= _value;\n        balances [_to] += _value;\n        emit Transfer(_from, _to, _value);\n    }\n\n\n    function withdrawReimbursement(uint amount) public {\n        require(accruedReimbursementByUser[msg.sender] >= amount);\n        accruedReimbursementByUser[msg.sender] -= amount;\n        paymentAddressInstance.transfer(msg.sender, amount);\n    }\n    /*\n    allows this contract to call an arbitrary function on a passed \"driver\" contract\n    example implementation: \"onlyOwner\" is a smart contract address with a voting\n    mechanism governed by owners of this contract's erc20 tokens\n    they can vote on decisions affecting the underlying 721\n    */\n    function execute(bytes memory _logic, address _driver) public onlyOwner{\n        DriverCoreInterface instanceDriverCore = DriverCoreInterface(_driver);\n        instanceDriverCore.executeCall(_logic);\n    }\n\n    //function getDebtByUser(address _user) public view returns(uint){\n    //\treturn escrowedByUser[_user] - (harbergerSetByUser[_user].value * taxRate * balances[_user] * \n    //}\n\n    //can be used if paymentAddress has approveAndCall\n    //function allowAndTransferFrom(address _from, address _to, uint256 _value, bytes _extraData){\n\n    //}\n\n    function balanceOf(address _owner) view public returns (uint256 balance) {\n        return balances[_owner];\n    }\n\n    // required bc of erc20\n    function approve(address _spender, uint256 _amount) public returns (bool success) {\n        // To change the approve amount you first have to reduce the addresses`\n        //  allowance to zero by calling `approve(_spender,0)` if it is not\n        //  already 0 to mitigate the race condition described here:\n        //  https://github.com/ethereum/EIPs/issues/20#issuecomment-263524729\n        require((_amount == 0) || (allowed[msg.sender][_spender] == 0));\n\n        allowed[msg.sender][_spender] = _amount;\n        emit Approval(msg.sender, _spender, _amount);\n        return true;\n    }\n\n\n    function allowance(address _owner, address _spender) public view returns (uint256 remaining) {\n        return allowed[_owner][_spender];\n    }\n\n\n    function () external {\n    //if ether is sent to this address, send it back.\n  \n    }\n\n    //function approveAndCall(address _spender, uint256 _value, bytes memory _extraData) public returns (bool success) {\n    //\tallowed[msg.sender][_spender] = _value;\n    //\tApproval(msg.sender, _spender, _value);\n//\n  //      //call the receiveApproval function on the contract you want to be notified. This crafts the function signature manually so one doesn't have to include a contract in here just for this.\n    //    //receiveApproval(address _from, uint256 _value, address _tokenContract, bytes _extraData)\n      //  //it is assumed that when does this that the call *should* succeed, otherwise one would use vanilla approve instead.\n        //if(!_spender.call(bytes4(bytes32(sha3(\"receiveApproval(address,uint256,address,bytes)\"))), msg.sender, _value, this, _extraData)) { revert; }\n        //return true;\n    //}\n\n\n    function unlockToken() public {\n        require (balances[msg.sender] == _totalSupply);\n        transferFrom(msg.sender, tokenizeCore, _totalSupply);\n        TokenizeCoreInterface instanceTokenizeCore = TokenizeCoreInterface(tokenizeCore);\n        instanceTokenizeCore.unlockToken(contractUnderlyingToken.underlyingTokenAddress, contractUnderlyingToken.underlyingTokenId, msg.sender);\n    }\n\n    // event getHarbergerUserSet(HarbergerSet harbergerSetByUser);\n\n    // function getHarbergerValue(address user) public returns (HarbergerSet memory) {\n    //     emit getHarbergerUserSet(harbergerSetByUser[user]);\n    //     return harbergerSetByUser[user];\n    // }\n\n\n    event Transfer(\n        address indexed _from,\n        address indexed _to,\n        uint256 _amount\n    );\n\n    event Approval(\n    address indexed _owner,\n    address indexed _spender,\n    uint256 _amount\n    );\n\n}\n\n\n\n\n\n\n\n\n\n\n\n",
  "sourcePath": "/Users/anurag/Projects/Antidosis/contracts/asset-tokenization-contract.sol",
  "compiler": {
    "name": "solc",
    "version": "0.5.0+commit.1d4f565a.Emscripten.clang"
  },
  "schemaVersion": "3.0.0",
  "updatedAt": "2019-04-01T05:22:08.985Z",
  "devdoc": {
    "methods": {
      "isOwner()": {
        "return": "true if `msg.sender` is the owner of the contract."
      },
      "owner()": {
        "return": "the address of the owner."
      },
      "renounceOwnership()": {
        "details": "Allows the current owner to relinquish control of the contract."
      },
      "transferOwnership(address)": {
        "details": "Allows the current owner to transfer control of the contract to a newOwner.",
        "params": {
          "newOwner": "The address to transfer ownership to."
        }
      }
    }
  },
  "userdoc": {
    "methods": {
      "renounceOwnership()": {
        "notice": "Renouncing to ownership will leave the contract without an owner. It will not be possible to call the functions with the `onlyOwner` modifier anymore."
      }
    }
  }
}