{
  "contractName": "DeploymentCoreExample",
  "abi": [
    {
      "constant": false,
      "inputs": [],
      "name": "renounceOwnership",
      "outputs": [],
      "payable": false,
      "stateMutability": "nonpayable",
      "type": "function",
      "signature": "0x715018a6"
    },
    {
      "constant": true,
      "inputs": [],
      "name": "owner",
      "outputs": [
        {
          "name": "",
          "type": "address"
        }
      ],
      "payable": false,
      "stateMutability": "view",
      "type": "function",
      "signature": "0x8da5cb5b"
    },
    {
      "constant": true,
      "inputs": [],
      "name": "isOwner",
      "outputs": [
        {
          "name": "",
          "type": "bool"
        }
      ],
      "payable": false,
      "stateMutability": "view",
      "type": "function",
      "signature": "0x8f32d59b"
    },
    {
      "constant": true,
      "inputs": [
        {
          "name": "",
          "type": "uint256"
        }
      ],
      "name": "recipients",
      "outputs": [
        {
          "name": "",
          "type": "address"
        }
      ],
      "payable": false,
      "stateMutability": "view",
      "type": "function",
      "signature": "0xd1bc76a1"
    },
    {
      "constant": false,
      "inputs": [
        {
          "name": "newOwner",
          "type": "address"
        }
      ],
      "name": "transferOwnership",
      "outputs": [],
      "payable": false,
      "stateMutability": "nonpayable",
      "type": "function",
      "signature": "0xf2fde38b"
    },
    {
      "anonymous": false,
      "inputs": [
        {
          "indexed": true,
          "name": "previousOwner",
          "type": "address"
        },
        {
          "indexed": true,
          "name": "newOwner",
          "type": "address"
        }
      ],
      "name": "OwnershipTransferred",
      "type": "event",
      "signature": "0x8be0079c531659141344cd1fd0a4f28419497f9722a3daafe3b4186f6b6457e0"
    },
    {
      "constant": false,
      "inputs": [
        {
          "name": "_totalSupply",
          "type": "uint256"
        },
        {
          "name": "_deploymentData",
          "type": "bytes"
        }
      ],
      "name": "onReceipt",
      "outputs": [
        {
          "name": "",
          "type": "bytes4"
        }
      ],
      "payable": false,
      "stateMutability": "nonpayable",
      "type": "function",
      "signature": "0xe2730030"
    },
    {
      "constant": false,
      "inputs": [
        {
          "name": "_addressesToAdd",
          "type": "address[]"
        }
      ],
      "name": "addRecipients",
      "outputs": [],
      "payable": false,
      "stateMutability": "nonpayable",
      "type": "function",
      "signature": "0x29af54cc"
    }
  ],
  "bytecode": "0x6080604052336000806101000a81548173ffffffffffffffffffffffffffffffffffffffff021916908373ffffffffffffffffffffffffffffffffffffffff1602179055506000809054906101000a900473ffffffffffffffffffffffffffffffffffffffff1673ffffffffffffffffffffffffffffffffffffffff16600073ffffffffffffffffffffffffffffffffffffffff167f8be0079c531659141344cd1fd0a4f28419497f9722a3daafe3b4186f6b6457e060405160405180910390a361075e806100cf6000396000f3fe608060405260043610610083576000357c0100000000000000000000000000000000000000000000000000000000900463ffffffff16806329af54cc14610088578063715018a61461014d5780638da5cb5b146101645780638f32d59b146101bb578063d1bc76a1146101ea578063e273003014610265578063f2fde38b14610347575b600080fd5b34801561009457600080fd5b5061014b600480360360208110156100ab57600080fd5b81019080803590602001906401000000008111156100c857600080fd5b8201836020820111156100da57600080fd5b803590602001918460208302840111640100000000831117156100fc57600080fd5b919080806020026020016040519081016040528093929190818152602001838360200280828437600081840152601f19601f820116905080830192505050505050509192919290505050610398565b005b34801561015957600080fd5b50610162610448565b005b34801561017057600080fd5b5061017961051a565b604051808273ffffffffffffffffffffffffffffffffffffffff1673ffffffffffffffffffffffffffffffffffffffff16815260200191505060405180910390f35b3480156101c757600080fd5b506101d0610543565b604051808215151515815260200191505060405180910390f35b3480156101f657600080fd5b506102236004803603602081101561020d57600080fd5b810190808035906020019092919050505061059a565b604051808273ffffffffffffffffffffffffffffffffffffffff1673ffffffffffffffffffffffffffffffffffffffff16815260200191505060405180910390f35b34801561027157600080fd5b506102f36004803603604081101561028857600080fd5b8101908080359060200190929190803590602001906401000000008111156102af57600080fd5b8201836020820111156102c157600080fd5b803590602001918460018302840111640100000000831117156102e357600080fd5b90919293919293905050506105d8565b60405180827bffffffffffffffffffffffffffffffffffffffffffffffffffffffff19167bffffffffffffffffffffffffffffffffffffffffffffffffffffffff1916815260200191505060405180910390f35b34801561035357600080fd5b506103966004803603602081101561036a57600080fd5b81019080803573ffffffffffffffffffffffffffffffffffffffff169060200190929190505050610619565b005b6103a0610543565b15156103ab57600080fd5b60008090505b815181101561044457600182828151811015156103ca57fe5b9060200190602002015190806001815401808255809150509060018203906000526020600020016000909192909190916101000a81548173ffffffffffffffffffffffffffffffffffffffff021916908373ffffffffffffffffffffffffffffffffffffffff1602179055505080806001019150506103b1565b5050565b610450610543565b151561045b57600080fd5b600073ffffffffffffffffffffffffffffffffffffffff166000809054906101000a900473ffffffffffffffffffffffffffffffffffffffff1673ffffffffffffffffffffffffffffffffffffffff167f8be0079c531659141344cd1fd0a4f28419497f9722a3daafe3b4186f6b6457e060405160405180910390a360008060006101000a81548173ffffffffffffffffffffffffffffffffffffffff021916908373ffffffffffffffffffffffffffffffffffffffff160217905550565b60008060009054906101000a900473ffffffffffffffffffffffffffffffffffffffff16905090565b60008060009054906101000a900473ffffffffffffffffffffffffffffffffffffffff1673ffffffffffffffffffffffffffffffffffffffff163373ffffffffffffffffffffffffffffffffffffffff1614905090565b6001818154811015156105a957fe5b906000526020600020016000915054906101000a900473ffffffffffffffffffffffffffffffffffffffff1681565b600060405180807f6f6e5265636569707428616464726573732c75696e742c627974657329000000815250601d019050604051809103902090509392505050565b610621610543565b151561062c57600080fd5b61063581610638565b50565b600073ffffffffffffffffffffffffffffffffffffffff168173ffffffffffffffffffffffffffffffffffffffff161415151561067457600080fd5b8073ffffffffffffffffffffffffffffffffffffffff166000809054906101000a900473ffffffffffffffffffffffffffffffffffffffff1673ffffffffffffffffffffffffffffffffffffffff167f8be0079c531659141344cd1fd0a4f28419497f9722a3daafe3b4186f6b6457e060405160405180910390a3806000806101000a81548173ffffffffffffffffffffffffffffffffffffffff021916908373ffffffffffffffffffffffffffffffffffffffff1602179055505056fea165627a7a723058202353f0549bac6e009b50d9991bb191a658402fd6639c270d534e0ac243d9ed810029",
  "source": "\npragma solidity ^0.5.0;\nimport 'openzeppelin-solidity/contracts/ownership/Ownable.sol';\nimport 'openzeppelin-solidity/contracts/token/ERC20/IERC20.sol';\nimport './deployment-core-interface.sol';\n\n\n\ncontract DeploymentCoreExample is Ownable{\n\n\n\taddress[] public recipients;\n\n\tfunction onReceipt(uint _totalSupply, bytes calldata _deploymentData) external returns (bytes4){\n\t\t// distribute(msg.sender, _totalSupply);\n\n\t\treturn bytes4(keccak256(\"onReceipt(address,uint,bytes)\"));\n\t}\n\n\tfunction addRecipients(address[] memory _addressesToAdd) public onlyOwner{\n\t\tfor(uint i = 0; i < _addressesToAdd.length; i++){\n\t\t\trecipients.push(_addressesToAdd[i]);\n\t\t}\n\t}\n\n\tfunction distribute(address _ERC20TokenAddress, uint _totalSupply) internal {\n\t\tuint allocation = _totalSupply/(recipients.length);\n\t\t//need to think about error handling for when harberger is not set by recipients; transfer will fail\n\t\tfor(uint i = 0; i< recipients.length; i++){\n\t\t\tIERC20 instanceERC20 = IERC20(_ERC20TokenAddress);\n\t\t\tinstanceERC20.transfer(recipients[i], allocation);\n\t\t}\n\n\t}\n\n\n}",
  "sourcePath": "/Users/anurag/Projects/Antidosis/contracts/deployment-core-example.sol",
  "compiler": {
    "name": "solc",
    "version": "0.5.0+commit.1d4f565a.Emscripten.clang"
  },
  "schemaVersion": "3.0.0",
  "updatedAt": "2019-03-29T18:28:49.411Z",
  "devdoc": {
    "methods": {
      "isOwner()": {
        "return": "true if `msg.sender` is the owner of the contract."
      },
      "owner()": {
        "return": "the address of the owner."
      },
      "renounceOwnership()": {
        "details": "Allows the current owner to relinquish control of the contract."
      },
      "transferOwnership(address)": {
        "details": "Allows the current owner to transfer control of the contract to a newOwner.",
        "params": {
          "newOwner": "The address to transfer ownership to."
        }
      }
    }
  },
  "userdoc": {
    "methods": {
      "renounceOwnership()": {
        "notice": "Renouncing to ownership will leave the contract without an owner. It will not be possible to call the functions with the `onlyOwner` modifier anymore."
      }
    }
  }
}