{
  "contractName": "TokenizeCore",
  "abi": [
    {
      "constant": false,
      "inputs": [],
      "name": "renounceOwnership",
      "outputs": [],
      "payable": false,
      "stateMutability": "nonpayable",
      "type": "function",
      "signature": "0x715018a6"
    },
    {
      "constant": true,
      "inputs": [],
      "name": "owner",
      "outputs": [
        {
          "name": "",
          "type": "address"
        }
      ],
      "payable": false,
      "stateMutability": "view",
      "type": "function",
      "signature": "0x8da5cb5b"
    },
    {
      "constant": true,
      "inputs": [],
      "name": "isOwner",
      "outputs": [
        {
          "name": "",
          "type": "bool"
        }
      ],
      "payable": false,
      "stateMutability": "view",
      "type": "function",
      "signature": "0x8f32d59b"
    },
    {
      "constant": false,
      "inputs": [
        {
          "name": "newOwner",
          "type": "address"
        }
      ],
      "name": "transferOwnership",
      "outputs": [],
      "payable": false,
      "stateMutability": "nonpayable",
      "type": "function",
      "signature": "0xf2fde38b"
    },
    {
      "constant": true,
      "inputs": [
        {
          "name": "",
          "type": "address"
        }
      ],
      "name": "ERC20ToToken",
      "outputs": [
        {
          "name": "tokenToLockAddress",
          "type": "address"
        },
        {
          "name": "tokenToLockId",
          "type": "uint256"
        }
      ],
      "payable": false,
      "stateMutability": "view",
      "type": "function",
      "signature": "0xf9422980"
    },
    {
      "anonymous": false,
      "inputs": [
        {
          "indexed": false,
          "name": "tokenId",
          "type": "uint256"
        }
      ],
      "name": "receivedToken",
      "type": "event",
      "signature": "0x4780d897966fffb87040b96f2acea20fe95d9897f807afc5ecd09dedf8a16f5f"
    },
    {
      "anonymous": false,
      "inputs": [
        {
          "indexed": false,
          "name": "instanceAssetTokenizationContract",
          "type": "address"
        }
      ],
      "name": "newAssetTokenizationContractCreated",
      "type": "event",
      "signature": "0x47dd0ab44ea36d05425b0b5d44617aeefb5994d9c09f1df76c8318c4a1122eb7"
    },
    {
      "anonymous": false,
      "inputs": [
        {
          "indexed": true,
          "name": "previousOwner",
          "type": "address"
        },
        {
          "indexed": true,
          "name": "newOwner",
          "type": "address"
        }
      ],
      "name": "OwnershipTransferred",
      "type": "event",
      "signature": "0x8be0079c531659141344cd1fd0a4f28419497f9722a3daafe3b4186f6b6457e0"
    },
    {
      "constant": false,
      "inputs": [
        {
          "name": "_operator",
          "type": "address"
        },
        {
          "name": "_from",
          "type": "address"
        },
        {
          "name": "_tokenId",
          "type": "uint256"
        },
        {
          "name": "_data",
          "type": "bytes"
        }
      ],
      "name": "onERC721Received",
      "outputs": [
        {
          "name": "",
          "type": "bytes4"
        }
      ],
      "payable": false,
      "stateMutability": "nonpayable",
      "type": "function",
      "signature": "0x150b7a02"
    },
    {
      "constant": true,
      "inputs": [
        {
          "name": "_tokenToLockAddress",
          "type": "address"
        },
        {
          "name": "_tokenToLockId",
          "type": "uint256"
        }
      ],
      "name": "getERC20Address",
      "outputs": [
        {
          "name": "",
          "type": "address"
        }
      ],
      "payable": false,
      "stateMutability": "view",
      "type": "function",
      "signature": "0x037c5731"
    },
    {
      "constant": false,
      "inputs": [
        {
          "name": "_tokenToUnlockAddress",
          "type": "address"
        },
        {
          "name": "_tokenToUnlockId",
          "type": "uint256"
        },
        {
          "name": "_claimant",
          "type": "address"
        }
      ],
      "name": "unlockToken",
      "outputs": [],
      "payable": false,
      "stateMutability": "nonpayable",
      "type": "function",
      "signature": "0x5a9c78ab"
    }
  ],
  "bytecode": "0x6080604052336000806101000a81548173ffffffffffffffffffffffffffffffffffffffff021916908373ffffffffffffffffffffffffffffffffffffffff1602179055506000809054906101000a900473ffffffffffffffffffffffffffffffffffffffff1673ffffffffffffffffffffffffffffffffffffffff16600073ffffffffffffffffffffffffffffffffffffffff167f8be0079c531659141344cd1fd0a4f28419497f9722a3daafe3b4186f6b6457e060405160405180910390a361491c806100cf6000396000f3fe60806040526004361061008e576000357c0100000000000000000000000000000000000000000000000000000000900463ffffffff168063037c573114610093578063150b7a021461012e5780635a9c78ab14610292578063715018a61461030d5780638da5cb5b146103245780638f32d59b1461037b578063f2fde38b146103aa578063f9422980146103fb575b600080fd5b34801561009f57600080fd5b506100ec600480360360408110156100b657600080fd5b81019080803573ffffffffffffffffffffffffffffffffffffffff16906020019092919080359060200190929190505050610493565b604051808273ffffffffffffffffffffffffffffffffffffffff1673ffffffffffffffffffffffffffffffffffffffff16815260200191505060405180910390f35b34801561013a57600080fd5b5061023e6004803603608081101561015157600080fd5b81019080803573ffffffffffffffffffffffffffffffffffffffff169060200190929190803573ffffffffffffffffffffffffffffffffffffffff16906020019092919080359060200190929190803590602001906401000000008111156101b857600080fd5b8201836020820111156101ca57600080fd5b803590602001918460018302840111640100000000831117156101ec57600080fd5b91908080601f016020809104026020016040519081016040528093929190818152602001838380828437600081840152601f19601f820116905080830192505050505050509192919290505050610530565b60405180827bffffffffffffffffffffffffffffffffffffffffffffffffffffffff19167bffffffffffffffffffffffffffffffffffffffffffffffffffffffff1916815260200191505060405180910390f35b34801561029e57600080fd5b5061030b600480360360608110156102b557600080fd5b81019080803573ffffffffffffffffffffffffffffffffffffffff16906020019092919080359060200190929190803573ffffffffffffffffffffffffffffffffffffffff169060200190929190505050610a0f565b005b34801561031957600080fd5b50610322610bd0565b005b34801561033057600080fd5b50610339610ca2565b604051808273ffffffffffffffffffffffffffffffffffffffff1673ffffffffffffffffffffffffffffffffffffffff16815260200191505060405180910390f35b34801561038757600080fd5b50610390610ccb565b604051808215151515815260200191505060405180910390f35b3480156103b657600080fd5b506103f9600480360360208110156103cd57600080fd5b81019080803573ffffffffffffffffffffffffffffffffffffffff169060200190929190505050610d22565b005b34801561040757600080fd5b5061044a6004803603602081101561041e57600080fd5b81019080803573ffffffffffffffffffffffffffffffffffffffff169060200190929190505050610d41565b604051808373ffffffffffffffffffffffffffffffffffffffff1673ffffffffffffffffffffffffffffffffffffffff1681526020018281526020019250505060405180910390f35b6000808383604051602001808373ffffffffffffffffffffffffffffffffffffffff1673ffffffffffffffffffffffffffffffffffffffff168152602001828152602001925050506040516020818303038152906040528051906020012090506003600082815260200190815260200160002060009054906101000a900473ffffffffffffffffffffffffffffffffffffffff1691505092915050565b60007f4780d897966fffb87040b96f2acea20fe95d9897f807afc5ecd09dedf8a16f5f836040518082815260200191505060405180910390a16105716110f1565b600060608060008060008880602001905161010081101561059157600080fd5b810190809190826040018051906020019092919080516401000000008111156105b957600080fd5b828101905060208101848111156105cf57600080fd5b81518560018202830111640100000000821117156105ec57600080fd5b5050929190602001805164010000000081111561060857600080fd5b8281019050602081018481111561061e57600080fd5b815185600182028301116401000000008211171561063b57600080fd5b50509291906020018051906020019092919080519060200190929190805190602001909291905050509650965096509650965096509650600061067e338c610d85565b9050600088600060028110151561069157fe5b6020020151905060008960016002811015156106a957fe5b602002015190508273ffffffffffffffffffffffffffffffffffffffff1663eaf685128989896040518463ffffffff167c01000000000000000000000000000000000000000000000000000000000281526004018080602001806020018460ff1660ff168152602001838103835286818151815260200191508051906020019080838360005b8381101561074a57808201518184015260208101905061072f565b50505050905090810190601f1680156107775780820380516001836020036101000a031916815260200191505b50838103825285818151815260200191508051906020019080838360005b838110156107b0578082015181840152602081019050610795565b50505050905090810190601f1680156107dd5780820380516001836020036101000a031916815260200191505b5095505050505050600060405180830381600087803b1580156107ff57600080fd5b505af1158015610813573d6000803e3d6000fd5b505050508273ffffffffffffffffffffffffffffffffffffffff16639487e08f8b600060028110151561084257fe5b60200201518c600160028110151561085657fe5b602002015188888e6040518663ffffffff167c0100000000000000000000000000000000000000000000000000000000028152600401808673ffffffffffffffffffffffffffffffffffffffff1673ffffffffffffffffffffffffffffffffffffffff1681526020018573ffffffffffffffffffffffffffffffffffffffff1673ffffffffffffffffffffffffffffffffffffffff16815260200184815260200183815260200182815260200195505050505050600060405180830381600087803b15801561092457600080fd5b505af1158015610938573d6000803e3d6000fd5b505050507f47dd0ab44ea36d05425b0b5d44617aeefb5994d9c09f1df76c8318c4a1122eb783604051808273ffffffffffffffffffffffffffffffffffffffff1673ffffffffffffffffffffffffffffffffffffffff16815260200191505060405180910390a160405180807f6f6e455243373231526563656976656428616464726573732c6164647265737381526020017f2c75696e743235362c6279746573290000000000000000000000000000000000815250602f01905060405180910390209a5050505050505050505050949350505050565b600360008484604051602001808373ffffffffffffffffffffffffffffffffffffffff1673ffffffffffffffffffffffffffffffffffffffff1681526020018281526020019250505060405160208183030381529060405280519060200120815260200190815260200160002060009054906101000a900473ffffffffffffffffffffffffffffffffffffffff1673ffffffffffffffffffffffffffffffffffffffff163373ffffffffffffffffffffffffffffffffffffffff16141515610ad657600080fd5b60008390508073ffffffffffffffffffffffffffffffffffffffff166342842e0e3084866040518463ffffffff167c0100000000000000000000000000000000000000000000000000000000028152600401808473ffffffffffffffffffffffffffffffffffffffff1673ffffffffffffffffffffffffffffffffffffffff1681526020018373ffffffffffffffffffffffffffffffffffffffff1673ffffffffffffffffffffffffffffffffffffffff1681526020018281526020019350505050600060405180830381600087803b158015610bb257600080fd5b505af1158015610bc6573d6000803e3d6000fd5b5050505050505050565b610bd8610ccb565b1515610be357600080fd5b600073ffffffffffffffffffffffffffffffffffffffff166000809054906101000a900473ffffffffffffffffffffffffffffffffffffffff1673ffffffffffffffffffffffffffffffffffffffff167f8be0079c531659141344cd1fd0a4f28419497f9722a3daafe3b4186f6b6457e060405160405180910390a360008060006101000a81548173ffffffffffffffffffffffffffffffffffffffff021916908373ffffffffffffffffffffffffffffffffffffffff160217905550565b60008060009054906101000a900473ffffffffffffffffffffffffffffffffffffffff16905090565b60008060009054906101000a900473ffffffffffffffffffffffffffffffffffffffff1673ffffffffffffffffffffffffffffffffffffffff163373ffffffffffffffffffffffffffffffffffffffff1614905090565b610d2a610ccb565b1515610d3557600080fd5b610d3e81610ff7565b50565b60026020528060005260406000206000915090508060000160009054906101000a900473ffffffffffffffffffffffffffffffffffffffff16908060010154905082565b6000610d8f611113565b60408051908101604052808573ffffffffffffffffffffffffffffffffffffffff1681526020018481525090506001819080600181540180825580915050906001820390600052602060002090600202016000909192909190915060008201518160000160006101000a81548173ffffffffffffffffffffffffffffffffffffffff021916908373ffffffffffffffffffffffffffffffffffffffff1602179055506020820151816001015550505060008484610e4a611143565b808373ffffffffffffffffffffffffffffffffffffffff1673ffffffffffffffffffffffffffffffffffffffff16815260200182815260200192505050604051809103906000f080158015610ea3573d6000803e3d6000fd5b50905081600260008373ffffffffffffffffffffffffffffffffffffffff1673ffffffffffffffffffffffffffffffffffffffff16815260200190815260200160002060008201518160000160006101000a81548173ffffffffffffffffffffffffffffffffffffffff021916908373ffffffffffffffffffffffffffffffffffffffff1602179055506020820151816001015590505060008585604051602001808373ffffffffffffffffffffffffffffffffffffffff1673ffffffffffffffffffffffffffffffffffffffff16815260200182815260200192505050604051602081830303815290604052805190602001209050816003600083815260200190815260200160002060006101000a81548173ffffffffffffffffffffffffffffffffffffffff021916908373ffffffffffffffffffffffffffffffffffffffff16021790555081935050505092915050565b600073ffffffffffffffffffffffffffffffffffffffff168173ffffffffffffffffffffffffffffffffffffffff161415151561103357600080fd5b8073ffffffffffffffffffffffffffffffffffffffff166000809054906101000a900473ffffffffffffffffffffffffffffffffffffffff1673ffffffffffffffffffffffffffffffffffffffff167f8be0079c531659141344cd1fd0a4f28419497f9722a3daafe3b4186f6b6457e060405160405180910390a3806000806101000a81548173ffffffffffffffffffffffffffffffffffffffff021916908373ffffffffffffffffffffffffffffffffffffffff16021790555050565b6040805190810160405280600290602082028038833980820191505090505090565b6040805190810160405280600073ffffffffffffffffffffffffffffffffffffffff168152602001600081525090565b60405161379d806111548339019056fe608060405234801561001057600080fd5b5060405160408061379d8339810180604052604081101561003057600080fd5b810190808051906020019092919080519060200190929190505050336000806101000a81548173ffffffffffffffffffffffffffffffffffffffff021916908373ffffffffffffffffffffffffffffffffffffffff1602179055506000809054906101000a900473ffffffffffffffffffffffffffffffffffffffff1673ffffffffffffffffffffffffffffffffffffffff16600073ffffffffffffffffffffffffffffffffffffffff167f8be0079c531659141344cd1fd0a4f28419497f9722a3daafe3b4186f6b6457e060405160405180910390a333600360006101000a81548173ffffffffffffffffffffffffffffffffffffffff021916908373ffffffffffffffffffffffffffffffffffffffff16021790555081600c60000160006101000a81548173ffffffffffffffffffffffffffffffffffffffff021916908373ffffffffffffffffffffffffffffffffffffffff16021790555080600c6001018190555050506135f6806101a76000396000f3fe60806040526004361061018b576000357c0100000000000000000000000000000000000000000000000000000000900463ffffffff16806306fdde031461019a578063095ea7b31461022a57806309fe2a581461029d57806318160ddd146102f457806318a24b5b1461031f57806323b872dd1461033657806327e235e3146103c9578063313ce5671461042e57806332b72ffd1461045f57806346829831146104dd5780634a4f5a1c146104f45780635563ad6d146105595780635c658165146105be578063633423be1461064357806367eaf0721461069a5780636accdc13146106d557806370a08231146107bd578063715018a614610822578063771a3a1d146108395780638b66b27e146108645780638d78fd0b146108a95780638da5cb5b146108d45780638f32d59b1461092b5780639487e08f1461095a57806395d89b41146109e9578063a9059cbb14610a79578063b7bda68f14610aec578063bcdea4f214610b43578063dd62ed3e14610ba1578063eaf6851214610c26578063f2fde38b14610d0e575b34801561019757600080fd5b50005b3480156101a657600080fd5b506101af610d5f565b6040518080602001828103825283818151815260200191508051906020019080838360005b838110156101ef5780820151818401526020810190506101d4565b50505050905090810190601f16801561021c5780820380516001836020036101000a031916815260200191505b509250505060405180910390f35b34801561023657600080fd5b506102836004803603604081101561024d57600080fd5b81019080803573ffffffffffffffffffffffffffffffffffffffff16906020019092919080359060200190929190505050610dfd565b604051808215151515815260200191505060405180910390f35b3480156102a957600080fd5b506102b2610f84565b604051808273ffffffffffffffffffffffffffffffffffffffff1673ffffffffffffffffffffffffffffffffffffffff16815260200191505060405180910390f35b34801561030057600080fd5b50610309610faa565b6040518082815260200191505060405180910390f35b34801561032b57600080fd5b50610334610fb4565b005b34801561034257600080fd5b506103af6004803603606081101561035957600080fd5b81019080803573ffffffffffffffffffffffffffffffffffffffff169060200190929190803573ffffffffffffffffffffffffffffffffffffffff16906020019092919080359060200190929190505050611176565b604051808215151515815260200191505060405180910390f35b3480156103d557600080fd5b50610418600480360360208110156103ec57600080fd5b81019080803573ffffffffffffffffffffffffffffffffffffffff169060200190929190505050611f00565b6040518082815260200191505060405180910390f35b34801561043a57600080fd5b50610443611f18565b604051808260ff1660ff16815260200191505060405180910390f35b34801561046b57600080fd5b506104ae6004803603602081101561048257600080fd5b81019080803573ffffffffffffffffffffffffffffffffffffffff169060200190929190505050611f2b565b604051808581526020018481526020018381526020018215151515815260200194505050505060405180910390f35b3480156104e957600080fd5b506104f2611f68565b005b34801561050057600080fd5b506105436004803603602081101561051757600080fd5b81019080803573ffffffffffffffffffffffffffffffffffffffff169060200190929190505050612097565b6040518082815260200191505060405180910390f35b34801561056557600080fd5b506105a86004803603602081101561057c57600080fd5b81019080803573ffffffffffffffffffffffffffffffffffffffff1690602001909291905050506120af565b6040518082815260200191505060405180910390f35b3480156105ca57600080fd5b5061062d600480360360408110156105e157600080fd5b81019080803573ffffffffffffffffffffffffffffffffffffffff169060200190929190803573ffffffffffffffffffffffffffffffffffffffff1690602001909291905050506120c7565b6040518082815260200191505060405180910390f35b34801561064f57600080fd5b506106586120ec565b604051808273ffffffffffffffffffffffffffffffffffffffff1673ffffffffffffffffffffffffffffffffffffffff16815260200191505060405180910390f35b3480156106a657600080fd5b506106d3600480360360208110156106bd57600080fd5b8101908080359060200190929190505050612112565b005b3480156106e157600080fd5b506107bb600480360360408110156106f857600080fd5b810190808035906020019064010000000081111561071557600080fd5b82018360208201111561072757600080fd5b8035906020019184600183028401116401000000008311171561074957600080fd5b91908080601f016020809104026020016040519081016040528093929190818152602001838380828437600081840152601f19601f820116905080830192505050505050509192919290803573ffffffffffffffffffffffffffffffffffffffff1690602001909291905050506122b1565b005b3480156107c957600080fd5b5061080c600480360360208110156107e057600080fd5b81019080803573ffffffffffffffffffffffffffffffffffffffff1690602001909291905050506123de565b6040518082815260200191505060405180910390f35b34801561082e57600080fd5b50610837612427565b005b34801561084557600080fd5b5061084e6124f9565b6040518082815260200191505060405180910390f35b34801561087057600080fd5b506108a76004803603604081101561088757600080fd5b8101908080359060200190929190803590602001909291905050506124ff565b005b3480156108b557600080fd5b506108be612a04565b6040518082815260200191505060405180910390f35b3480156108e057600080fd5b506108e9612a0a565b604051808273ffffffffffffffffffffffffffffffffffffffff1673ffffffffffffffffffffffffffffffffffffffff16815260200191505060405180910390f35b34801561093757600080fd5b50610940612a33565b604051808215151515815260200191505060405180910390f35b34801561096657600080fd5b506109e7600480360360a081101561097d57600080fd5b81019080803573ffffffffffffffffffffffffffffffffffffffff169060200190929190803573ffffffffffffffffffffffffffffffffffffffff169060200190929190803590602001909291908035906020019092919080359060200190929190505050612a8a565b005b3480156109f557600080fd5b506109fe612c22565b6040518080602001828103825283818151815260200191508051906020019080838360005b83811015610a3e578082015181840152602081019050610a23565b50505050905090810190601f168015610a6b5780820380516001836020036101000a031916815260200191505b509250505060405180910390f35b348015610a8557600080fd5b50610ad260048036036040811015610a9c57600080fd5b81019080803573ffffffffffffffffffffffffffffffffffffffff16906020019092919080359060200190929190505050612cc0565b604051808215151515815260200191505060405180910390f35b348015610af857600080fd5b50610b01612fb8565b604051808273ffffffffffffffffffffffffffffffffffffffff1673ffffffffffffffffffffffffffffffffffffffff16815260200191505060405180910390f35b348015610b4f57600080fd5b50610b58612fde565b604051808373ffffffffffffffffffffffffffffffffffffffff1673ffffffffffffffffffffffffffffffffffffffff1681526020018281526020019250505060405180910390f35b348015610bad57600080fd5b50610c1060048036036040811015610bc457600080fd5b81019080803573ffffffffffffffffffffffffffffffffffffffff169060200190929190803573ffffffffffffffffffffffffffffffffffffffff169060200190929190505050613010565b6040518082815260200191505060405180910390f35b348015610c3257600080fd5b50610d0c60048036036060811015610c4957600080fd5b8101908080359060200190640100000000811115610c6657600080fd5b820183602082011115610c7857600080fd5b80359060200191846001830284011164010000000083111715610c9a57600080fd5b909192939192939080359060200190640100000000811115610cbb57600080fd5b820183602082011115610ccd57600080fd5b80359060200191846001830284011164010000000083111715610cef57600080fd5b9091929391929390803560ff169060200190929190505050613097565b005b348015610d1a57600080fd5b50610d5d60048036036020811015610d3157600080fd5b81019080803573ffffffffffffffffffffffffffffffffffffffff16906020019092919050505061314b565b005b60068054600181600116156101000203166002900480601f016020809104026020016040519081016040528092919081815260200182805460018160011615610100020316600290048015610df55780601f10610dca57610100808354040283529160200191610df5565b820191906000526020600020905b815481529060010190602001808311610dd857829003601f168201915b505050505081565b600080821480610e8957506000601060003373ffffffffffffffffffffffffffffffffffffffff1673ffffffffffffffffffffffffffffffffffffffff16815260200190815260200160002060008573ffffffffffffffffffffffffffffffffffffffff1673ffffffffffffffffffffffffffffffffffffffff16815260200190815260200160002054145b1515610e9457600080fd5b81601060003373ffffffffffffffffffffffffffffffffffffffff1673ffffffffffffffffffffffffffffffffffffffff16815260200190815260200160002060008573ffffffffffffffffffffffffffffffffffffffff1673ffffffffffffffffffffffffffffffffffffffff168152602001908152602001600020819055508273ffffffffffffffffffffffffffffffffffffffff163373ffffffffffffffffffffffffffffffffffffffff167f8c5be1e5ebec7d5bd14f71427d1e84f3dd0314c0f7b2291e5b200ac8c7c3b925846040518082815260200191505060405180910390a36001905092915050565b600360009054906101000a900473ffffffffffffffffffffffffffffffffffffffff1681565b6000600554905090565b600554600f60003373ffffffffffffffffffffffffffffffffffffffff1673ffffffffffffffffffffffffffffffffffffffff1681526020019081526020016000205414151561100357600080fd5b61103233600360009054906101000a900473ffffffffffffffffffffffffffffffffffffffff16600554611176565b506000600360009054906101000a900473ffffffffffffffffffffffffffffffffffffffff1690508073ffffffffffffffffffffffffffffffffffffffff16635a9c78ab600c60000160009054906101000a900473ffffffffffffffffffffffffffffffffffffffff16600c60010154336040518463ffffffff167c0100000000000000000000000000000000000000000000000000000000028152600401808473ffffffffffffffffffffffffffffffffffffffff1673ffffffffffffffffffffffffffffffffffffffff1681526020018381526020018273ffffffffffffffffffffffffffffffffffffffff1673ffffffffffffffffffffffffffffffffffffffff1681526020019350505050600060405180830381600087803b15801561115b57600080fd5b505af115801561116f573d6000803e3d6000fd5b5050505050565b6000600360009054906101000a900473ffffffffffffffffffffffffffffffffffffffff1673ffffffffffffffffffffffffffffffffffffffff168473ffffffffffffffffffffffffffffffffffffffff161415151561123e576040517f08c379a00000000000000000000000000000000000000000000000000000000081526004018080602001828103825260058152602001807f6572726f7200000000000000000000000000000000000000000000000000000081525060200191505060405180910390fd5b6000821115156112b6576040517f08c379a000000000000000000000000000000000000000000000000000000000815260040180806020018281038252601c8152602001807f76616c7565206d7573742062652067726561746572207468616e20300000000081525060200191505060405180910390fd5b60011515600e60008573ffffffffffffffffffffffffffffffffffffffff1673ffffffffffffffffffffffffffffffffffffffff16815260200190815260200160002060030160009054906101000a900460ff16151514806113655750600360009054906101000a900473ffffffffffffffffffffffffffffffffffffffff1673ffffffffffffffffffffffffffffffffffffffff168373ffffffffffffffffffffffffffffffffffffffff16145b15156113ff576040517f08c379a00000000000000000000000000000000000000000000000000000000081526004018080602001828103825260258152602001807f726563697069656e74206d75737420686176652068617262657267657220746181526020017f782073657400000000000000000000000000000000000000000000000000000081525060400191505060405180910390fd5b600a5482600f60008673ffffffffffffffffffffffffffffffffffffffff1673ffffffffffffffffffffffffffffffffffffffff1681526020019081526020016000205401101580156114e15750600a5482600f60008773ffffffffffffffffffffffffffffffffffffffff1673ffffffffffffffffffffffffffffffffffffffff16815260200190815260200160002054031015806114e05750600082600f60008773ffffffffffffffffffffffffffffffffffffffff1673ffffffffffffffffffffffffffffffffffffffff1681526020019081526020016000205403145b5b15156114ec57600080fd5b3073ffffffffffffffffffffffffffffffffffffffff168473ffffffffffffffffffffffffffffffffffffffff1614151561170e57600260009054906101000a900473ffffffffffffffffffffffffffffffffffffffff1673ffffffffffffffffffffffffffffffffffffffff166323b872dd338685600e60008a73ffffffffffffffffffffffffffffffffffffffff1673ffffffffffffffffffffffffffffffffffffffff16815260200190815260200160002060000154026040518463ffffffff167c0100000000000000000000000000000000000000000000000000000000028152600401808473ffffffffffffffffffffffffffffffffffffffff1673ffffffffffffffffffffffffffffffffffffffff1681526020018373ffffffffffffffffffffffffffffffffffffffff1673ffffffffffffffffffffffffffffffffffffffff1681526020018281526020019350505050602060405180830381600087803b15801561165e57600080fd5b505af1158015611672573d6000803e3d6000fd5b505050506040513d602081101561168857600080fd5b8101908080519060200190929190505050151561170d576040517f08c379a000000000000000000000000000000000000000000000000000000000815260040180806020018281038252600e8152602001807f5061796d656e74206661696c656400000000000000000000000000000000000081525060200191505060405180910390fd5b5b3073ffffffffffffffffffffffffffffffffffffffff168473ffffffffffffffffffffffffffffffffffffffff161415801561178957506000601160008673ffffffffffffffffffffffffffffffffffffffff1673ffffffffffffffffffffffffffffffffffffffff16815260200190815260200160002054115b15611bfe57600e60008573ffffffffffffffffffffffffffffffffffffffff1673ffffffffffffffffffffffffffffffffffffffff16815260200190815260200160002060010154600e60008673ffffffffffffffffffffffffffffffffffffffff1673ffffffffffffffffffffffffffffffffffffffff168152602001908152602001600020600201544203601160008773ffffffffffffffffffffffffffffffffffffffff1673ffffffffffffffffffffffffffffffffffffffff16815260200190815260200160002054600f60008873ffffffffffffffffffffffffffffffffffffffff1673ffffffffffffffffffffffffffffffffffffffff16815260200190815260200160002054858115156118a057fe5b0402028115156118ac57fe5b04600b60008282540192505081905550600260009054906101000a900473ffffffffffffffffffffffffffffffffffffffff1673ffffffffffffffffffffffffffffffffffffffff1663a9059cbb85600e60008873ffffffffffffffffffffffffffffffffffffffff1673ffffffffffffffffffffffffffffffffffffffff16815260200190815260200160002060010154600e60008973ffffffffffffffffffffffffffffffffffffffff1673ffffffffffffffffffffffffffffffffffffffff16815260200190815260200160002060020154420381151561198c57fe5b04600103601160008973ffffffffffffffffffffffffffffffffffffffff1673ffffffffffffffffffffffffffffffffffffffff16815260200190815260200160002054600f60008a73ffffffffffffffffffffffffffffffffffffffff1673ffffffffffffffffffffffffffffffffffffffff1681526020019081526020016000205487811515611a1a57fe5b0402026040518363ffffffff167c0100000000000000000000000000000000000000000000000000000000028152600401808373ffffffffffffffffffffffffffffffffffffffff1673ffffffffffffffffffffffffffffffffffffffff16815260200182815260200192505050602060405180830381600087803b158015611aa257600080fd5b505af1158015611ab6573d6000803e3d6000fd5b505050506040513d6020811015611acc57600080fd5b810190808051906020019092919050505050601160008573ffffffffffffffffffffffffffffffffffffffff1673ffffffffffffffffffffffffffffffffffffffff16815260200190815260200160002054600f60008673ffffffffffffffffffffffffffffffffffffffff1673ffffffffffffffffffffffffffffffffffffffff1681526020019081526020016000205483811515611b6857fe5b0402601160008673ffffffffffffffffffffffffffffffffffffffff1673ffffffffffffffffffffffffffffffffffffffff1681526020019081526020016000206000828254039250508190555042600e60008673ffffffffffffffffffffffffffffffffffffffff1673ffffffffffffffffffffffffffffffffffffffff168152602001908152602001600020600201819055505b600042600e60008673ffffffffffffffffffffffffffffffffffffffff1673ffffffffffffffffffffffffffffffffffffffff16815260200190815260200160002060010154600e60008773ffffffffffffffffffffffffffffffffffffffff1673ffffffffffffffffffffffffffffffffffffffff16815260200190815260200160002060020154010310151515611c9657600080fd5b600260009054906101000a900473ffffffffffffffffffffffffffffffffffffffff1673ffffffffffffffffffffffffffffffffffffffff166323b872dd8430600860009054906101000a900460ff1660ff16600a0a42600e60008a73ffffffffffffffffffffffffffffffffffffffff1673ffffffffffffffffffffffffffffffffffffffff16815260200190815260200160002060010154600e60008b73ffffffffffffffffffffffffffffffffffffffff1673ffffffffffffffffffffffffffffffffffffffff168152602001908152602001600020600201540103811515611d7e57fe5b04600e60008973ffffffffffffffffffffffffffffffffffffffff1673ffffffffffffffffffffffffffffffffffffffff16815260200190815260200160002060000154876009540202026040518463ffffffff167c0100000000000000000000000000000000000000000000000000000000028152600401808473ffffffffffffffffffffffffffffffffffffffff1673ffffffffffffffffffffffffffffffffffffffff1681526020018373ffffffffffffffffffffffffffffffffffffffff1673ffffffffffffffffffffffffffffffffffffffff1681526020018281526020019350505050602060405180830381600087803b158015611e8157600080fd5b505af1158015611e95573d6000803e3d6000fd5b505050506040513d6020811015611eab57600080fd5b8101908080519060200190929190505050507f777dec751f8a191ec297c5a70ffc57e627dd1117ca5d0a795cf8bb07164566a260016040518082815260200191505060405180910390a1600190509392505050565b600f6020528060005260406000206000915090505481565b600860009054906101000a900460ff1681565b600e6020528060005260406000206000915090508060000154908060010154908060020154908060030160009054906101000a900460ff16905084565b600260009054906101000a900473ffffffffffffffffffffffffffffffffffffffff1673ffffffffffffffffffffffffffffffffffffffff1663a9059cbb600460009054906101000a900473ffffffffffffffffffffffffffffffffffffffff16600b546040518363ffffffff167c0100000000000000000000000000000000000000000000000000000000028152600401808373ffffffffffffffffffffffffffffffffffffffff1673ffffffffffffffffffffffffffffffffffffffff16815260200182815260200192505050602060405180830381600087803b15801561205157600080fd5b505af1158015612065573d6000803e3d6000fd5b505050506040513d602081101561207b57600080fd5b8101908080519060200190929190505050506000600b81905550565b60116020528060005260406000206000915090505481565b60126020528060005260406000206000915090505481565b6010602052816000526040600020602052806000526040600020600091509150505481565b600160009054906101000a900473ffffffffffffffffffffffffffffffffffffffff1681565b80601260003373ffffffffffffffffffffffffffffffffffffffff1673ffffffffffffffffffffffffffffffffffffffff168152602001908152602001600020541015151561216057600080fd5b80601260003373ffffffffffffffffffffffffffffffffffffffff1673ffffffffffffffffffffffffffffffffffffffff16815260200190815260200160002060008282540392505081905550600260009054906101000a900473ffffffffffffffffffffffffffffffffffffffff1673ffffffffffffffffffffffffffffffffffffffff1663a9059cbb33836040518363ffffffff167c0100000000000000000000000000000000000000000000000000000000028152600401808373ffffffffffffffffffffffffffffffffffffffff1673ffffffffffffffffffffffffffffffffffffffff16815260200182815260200192505050602060405180830381600087803b15801561227257600080fd5b505af1158015612286573d6000803e3d6000fd5b505050506040513d602081101561229c57600080fd5b81019080805190602001909291905050505050565b6122b9612a33565b15156122c457600080fd5b60008190508073ffffffffffffffffffffffffffffffffffffffff1663089b0aeb846040518263ffffffff167c01000000000000000000000000000000000000000000000000000000000281526004018080602001828103825283818151815260200191508051906020019080838360005b83811015612351578082015181840152602081019050612336565b50505050905090810190601f16801561237e5780820380516001836020036101000a031916815260200191505b5092505050602060405180830381600087803b15801561239d57600080fd5b505af11580156123b1573d6000803e3d6000fd5b505050506040513d60208110156123c757600080fd5b810190808051906020019092919050505050505050565b6000600f60008373ffffffffffffffffffffffffffffffffffffffff1673ffffffffffffffffffffffffffffffffffffffff168152602001908152602001600020549050919050565b61242f612a33565b151561243a57600080fd5b600073ffffffffffffffffffffffffffffffffffffffff166000809054906101000a900473ffffffffffffffffffffffffffffffffffffffff1673ffffffffffffffffffffffffffffffffffffffff167f8be0079c531659141344cd1fd0a4f28419497f9722a3daafe3b4186f6b6457e060405160405180910390a360008060006101000a81548173ffffffffffffffffffffffffffffffffffffffff021916908373ffffffffffffffffffffffffffffffffffffffff160217905550565b60095481565b6000821415151561250f57600080fd5b6000811415151561251f57600080fd5b60011515600e60003373ffffffffffffffffffffffffffffffffffffffff1673ffffffffffffffffffffffffffffffffffffffff16815260200190815260200160002060030160009054906101000a900460ff1615151415156125dc576001600e60003373ffffffffffffffffffffffffffffffffffffffff1673ffffffffffffffffffffffffffffffffffffffff16815260200190815260200160002060030160006101000a81548160ff02191690831515021790555061292b565b6000600e60003373ffffffffffffffffffffffffffffffffffffffff1673ffffffffffffffffffffffffffffffffffffffff16815260200190815260200160002060010154600e60003373ffffffffffffffffffffffffffffffffffffffff1673ffffffffffffffffffffffffffffffffffffffff16815260200190815260200160002060020154420381151561266f57fe5b049050600260009054906101000a900473ffffffffffffffffffffffffffffffffffffffff1673ffffffffffffffffffffffffffffffffffffffff1663a9059cbb600460009054906101000a900473ffffffffffffffffffffffffffffffffffffffff1683600e60003373ffffffffffffffffffffffffffffffffffffffff1673ffffffffffffffffffffffffffffffffffffffff1681526020019081526020016000206000015460095402026040518363ffffffff167c0100000000000000000000000000000000000000000000000000000000028152600401808373ffffffffffffffffffffffffffffffffffffffff1673ffffffffffffffffffffffffffffffffffffffff16815260200182815260200192505050602060405180830381600087803b1580156127a157600080fd5b505af11580156127b5573d6000803e3d6000fd5b505050506040513d60208110156127cb57600080fd5b810190808051906020019092919050505050600260009054906101000a900473ffffffffffffffffffffffffffffffffffffffff1673ffffffffffffffffffffffffffffffffffffffff1663a9059cbb3383600103600e60003373ffffffffffffffffffffffffffffffffffffffff1673ffffffffffffffffffffffffffffffffffffffff1681526020019081526020016000206000015460095402026040518363ffffffff167c0100000000000000000000000000000000000000000000000000000000028152600401808373ffffffffffffffffffffffffffffffffffffffff1673ffffffffffffffffffffffffffffffffffffffff16815260200182815260200192505050602060405180830381600087803b1580156128ed57600080fd5b505af1158015612901573d6000803e3d6000fd5b505050506040513d602081101561291757600080fd5b810190808051906020019092919050505050505b81600e60003373ffffffffffffffffffffffffffffffffffffffff1673ffffffffffffffffffffffffffffffffffffffff1681526020019081526020016000206000018190555080600e60003373ffffffffffffffffffffffffffffffffffffffff1673ffffffffffffffffffffffffffffffffffffffff1681526020019081526020016000206001018190555042600e60003373ffffffffffffffffffffffffffffffffffffffff1673ffffffffffffffffffffffffffffffffffffffff168152602001908152602001600020600201819055505050565b600a5481565b60008060009054906101000a900473ffffffffffffffffffffffffffffffffffffffff16905090565b60008060009054906101000a900473ffffffffffffffffffffffffffffffffffffffff1673ffffffffffffffffffffffffffffffffffffffff163373ffffffffffffffffffffffffffffffffffffffff1614905090565b600360009054906101000a900473ffffffffffffffffffffffffffffffffffffffff1673ffffffffffffffffffffffffffffffffffffffff163373ffffffffffffffffffffffffffffffffffffffff16141515612ae657600080fd5b84600160006101000a81548173ffffffffffffffffffffffffffffffffffffffff021916908373ffffffffffffffffffffffffffffffffffffffff16021790555084600260006101000a81548173ffffffffffffffffffffffffffffffffffffffff021916908373ffffffffffffffffffffffffffffffffffffffff16021790555083600460006101000a81548173ffffffffffffffffffffffffffffffffffffffff021916908373ffffffffffffffffffffffffffffffffffffffff16021790555082600a8190555081600981905550600860009054906101000a900460ff1660ff16600a820218600581905550600554600f60003073ffffffffffffffffffffffffffffffffffffffff1673ffffffffffffffffffffffffffffffffffffffff168152602001908152602001600020819055505050505050565b60078054600181600116156101000203166002900480601f016020809104026020016040519081016040528092919081815260200182805460018160011615610100020316600290048015612cb85780601f10612c8d57610100808354040283529160200191612cb8565b820191906000526020600020905b815481529060010190602001808311612c9b57829003601f168201915b505050505081565b6000600360009054906101000a900473ffffffffffffffffffffffffffffffffffffffff1673ffffffffffffffffffffffffffffffffffffffff163373ffffffffffffffffffffffffffffffffffffffff1614151515612d1f57600080fd5b600082111515612d97576040517f08c379a000000000000000000000000000000000000000000000000000000000815260040180806020018281038252601c8152602001807f76616c7565206d7573742062652067726561746572207468616e20300000000081525060200191505060405180910390fd5b60011515600e60008573ffffffffffffffffffffffffffffffffffffffff1673ffffffffffffffffffffffffffffffffffffffff16815260200190815260200160002060030160009054906101000a900460ff1615151480612e465750600360009054906101000a900473ffffffffffffffffffffffffffffffffffffffff1673ffffffffffffffffffffffffffffffffffffffff168373ffffffffffffffffffffffffffffffffffffffff16145b1515612e5157600080fd5b600a54612e9d600f60008673ffffffffffffffffffffffffffffffffffffffff1673ffffffffffffffffffffffffffffffffffffffff16815260200190815260200160002054846133a6565b10158015612f3a5750600a5482600f60003373ffffffffffffffffffffffffffffffffffffffff1673ffffffffffffffffffffffffffffffffffffffff1681526020019081526020016000205403101580612f395750600082600f60003373ffffffffffffffffffffffffffffffffffffffff1673ffffffffffffffffffffffffffffffffffffffff1681526020019081526020016000205403145b5b1515612f4557600080fd5b81600f60003373ffffffffffffffffffffffffffffffffffffffff1673ffffffffffffffffffffffffffffffffffffffff1681526020019081526020016000205410158015612f945750600082115b15612fad57612fa433848461316a565b60019050612fb2565b600090505b92915050565b600460009054906101000a900473ffffffffffffffffffffffffffffffffffffffff1681565b600c8060000160009054906101000a900473ffffffffffffffffffffffffffffffffffffffff16908060010154905082565b6000601060008473ffffffffffffffffffffffffffffffffffffffff1673ffffffffffffffffffffffffffffffffffffffff16815260200190815260200160002060008373ffffffffffffffffffffffffffffffffffffffff1673ffffffffffffffffffffffffffffffffffffffff16815260200190815260200160002054905092915050565b600360009054906101000a900473ffffffffffffffffffffffffffffffffffffffff1673ffffffffffffffffffffffffffffffffffffffff163373ffffffffffffffffffffffffffffffffffffffff161415156130f357600080fd5b848460069190613104929190613525565b50828260079190613116929190613525565b5060028160ff1611151561312957600080fd5b80600860006101000a81548160ff021916908360ff1602179055505050505050565b613153612a33565b151561315e57600080fd5b6131678161342b565b50565b600073ffffffffffffffffffffffffffffffffffffffff168273ffffffffffffffffffffffffffffffffffffffff16141580156131d357503073ffffffffffffffffffffffffffffffffffffffff168273ffffffffffffffffffffffffffffffffffffffff1614155b15156131de57600080fd5b600f60008473ffffffffffffffffffffffffffffffffffffffff1673ffffffffffffffffffffffffffffffffffffffff16815260200190815260200160002054811115151561322c57600080fd5b80600f60008573ffffffffffffffffffffffffffffffffffffffff1673ffffffffffffffffffffffffffffffffffffffff1681526020019081526020016000206000828254039250508190555080600f60008473ffffffffffffffffffffffffffffffffffffffff1673ffffffffffffffffffffffffffffffffffffffff168152602001908152602001600020600082825401925050819055508173ffffffffffffffffffffffffffffffffffffffff168373ffffffffffffffffffffffffffffffffffffffff167fddf252ad1be2c89b69c2b068fc378daa952ba7f163c4a11628f55a4df523b3ef836040518082815260200191505060405180910390a37f040821fcca34311ef45a94a9642814fbd0bc0ad233cba17286f086261a7e58f9600f60008473ffffffffffffffffffffffffffffffffffffffff1673ffffffffffffffffffffffffffffffffffffffff168152602001908152602001600020546040518082815260200191505060405180910390a1505050565b60008282840191508110151515613425576040517f08c379a00000000000000000000000000000000000000000000000000000000081526004018080602001828103825260148152602001807f64732d6d6174682d6164642d6f766572666c6f7700000000000000000000000081525060200191505060405180910390fd5b92915050565b600073ffffffffffffffffffffffffffffffffffffffff168173ffffffffffffffffffffffffffffffffffffffff161415151561346757600080fd5b8073ffffffffffffffffffffffffffffffffffffffff166000809054906101000a900473ffffffffffffffffffffffffffffffffffffffff1673ffffffffffffffffffffffffffffffffffffffff167f8be0079c531659141344cd1fd0a4f28419497f9722a3daafe3b4186f6b6457e060405160405180910390a3806000806101000a81548173ffffffffffffffffffffffffffffffffffffffff021916908373ffffffffffffffffffffffffffffffffffffffff16021790555050565b828054600181600116156101000203166002900490600052602060002090601f016020900481019282601f1061356657803560ff1916838001178555613594565b82800160010185558215613594579182015b82811115613593578235825591602001919060010190613578565b5b5090506135a191906135a5565b5090565b6135c791905b808211156135c35760008160009055506001016135ab565b5090565b9056fea165627a7a72305820f9fb0ab5daa31ec682543f0d02fdb057f30659857a9376d1ee3919f6a334033e0029a165627a7a723058208ea68333219cd0dc58557c5404d87222756a0a00237d112b955cafc8d2e267ce0029",
  "source": "pragma solidity ^0.5.0;\n\nimport 'openzeppelin-solidity/contracts/token/ERC721/IERC721Receiver.sol';\nimport \"./asset-tokenization-contract.sol\";\nimport 'openzeppelin-solidity/contracts/ownership/Ownable.sol';\nimport 'openzeppelin-solidity/contracts/token/ERC721/ERC721.sol';\nimport \"./IAssetTokenizationContract.sol\";\n\n\n\ncontract TokenizeCore is IERC721Receiver, Ownable {\n\n\tTokenToLock[] locked721Tokens;\n\n\tevent receivedToken (uint256 tokenId);\n\tevent newAssetTokenizationContractCreated(AssetTokenizationContract instanceAssetTokenizationContract);\n\n\tstruct TokenToLock{\n\t\taddress tokenToLockAddress;\n\t\tuint tokenToLockId;\n\t}\n\n\tmapping(address => TokenToLock) public ERC20ToToken;\n\tmapping(bytes32 => address) tokenToERC20;\n\n\n\n\tfunction onERC721Received(address _operator, address _from, uint256 _tokenId, bytes memory _data) public returns(bytes4){\n\t\temit receivedToken(_tokenId);\n\t\t(address[2] memory addressesToUse, \n\t\t\tuint256 _erc20Supply,\n\t\t\tstring memory _erc20Name, \n\t\t\tstring memory _erc20Symbol, \n\t\t\tuint8 _erc20Decimals,\n\t\t\tuint256 _minimumShares, \n\t\t\tuint256 _taxRate) = abi.decode(_data, (\n\t\t\t\taddress[2], \n\t\t\t\tuint256, \n\t\t\t\tstring, \n\t\t\t\tstring, \n\t\t\t\tuint8, \n\t\t\t\tuint256, \n\t\t\t\tuint256)\n\t\t\t);\t\n\n\t\tAssetTokenizationContract instanceAssetTokenizationContract = lock721Token(msg.sender, _tokenId);\n\t\t// set ERC20 variables\n\t\t\taddress _paymentAddress = addressesToUse[0];\n\n\t\t// address of the recipient of all tax payments for this token\n\t\t\taddress _taxAddress = addressesToUse[1];\n\t\tIAssetTokenizationContract(address(instanceAssetTokenizationContract)).setERC20( _erc20Name, _erc20Symbol, _erc20Decimals);\n\t\tIAssetTokenizationContract(address(instanceAssetTokenizationContract)).setMainInfo(addressesToUse[0], addressesToUse[1], _minimumShares, _taxRate, _erc20Supply);\n\t\temit newAssetTokenizationContractCreated(instanceAssetTokenizationContract);\n\t\treturn bytes4(keccak256(\"onERC721Received(address,address,uint256,bytes)\"));\n\t}\n\n\tfunction lock721Token (address _tokenToLockAddress, uint256 _tokenToLockId) private returns(AssetTokenizationContract){\n\t\tTokenToLock memory _tokenToLock = TokenToLock(_tokenToLockAddress, _tokenToLockId);\n\t\tlocked721Tokens.push(_tokenToLock); //need to think about if this will cause memory issues\n\t\tAssetTokenizationContract newAssetTokenizationContract = new AssetTokenizationContract(_tokenToLockAddress, _tokenToLockId);\n\n\t\tERC20ToToken[address(newAssetTokenizationContract)] = _tokenToLock;\n\t\tbytes32 _tokenToLockHash = keccak256(abi.encode(_tokenToLockAddress, _tokenToLockId));\n\t\ttokenToERC20[_tokenToLockHash] = address(newAssetTokenizationContract);\n\t\treturn (newAssetTokenizationContract);\n\t}\n\n\tfunction getERC20Address(address _tokenToLockAddress, uint _tokenToLockId) public view returns(address){\n\t\tbytes32 _tokenToLockHash = keccak256(abi.encode(_tokenToLockAddress, _tokenToLockId));\n\t\treturn tokenToERC20[_tokenToLockHash];\n\t}\n\n\n\tfunction unlockToken  (address _tokenToUnlockAddress, uint _tokenToUnlockId, address _claimant) external {\n\t\trequire (msg.sender == tokenToERC20[keccak256(abi.encode(_tokenToUnlockAddress, _tokenToUnlockId))]);\n\t\tERC721 instanceERC721 = ERC721(_tokenToUnlockAddress);\n\t\tinstanceERC721.safeTransferFrom(address(this), _claimant, _tokenToUnlockId);\n\t}\n\n}\n",
  "sourcePath": "/Users/anurag/Projects/Antidosis/contracts/tokenize-core.sol",
  "compiler": {
    "name": "solc",
    "version": "0.5.0+commit.1d4f565a.Emscripten.clang"
  },
  "schemaVersion": "3.0.0",
  "updatedAt": "2019-04-20T16:10:17.753Z",
  "devdoc": {
    "methods": {
      "isOwner()": {
        "return": "true if `msg.sender` is the owner of the contract."
      },
      "owner()": {
        "return": "the address of the owner."
      },
      "renounceOwnership()": {
        "details": "Allows the current owner to relinquish control of the contract."
      },
      "transferOwnership(address)": {
        "details": "Allows the current owner to transfer control of the contract to a newOwner.",
        "params": {
          "newOwner": "The address to transfer ownership to."
        }
      }
    }
  },
  "userdoc": {
    "methods": {
      "renounceOwnership()": {
        "notice": "Renouncing to ownership will leave the contract without an owner. It will not be possible to call the functions with the `onlyOwner` modifier anymore."
      }
    }
  }
}